

Microchip Technology PIC18 LITE Macro Assembler V1.21 build 54009 
                                                                                               Tue Oct 15 10:17:06 2019

Microchip Technology Omniscient Code Generator (Lite mode) build 54009
     1                           	processor	18F45K22
     2                           	fnconf	rparam,??,?,0
     3                           	opt	pw 120
     4                           	opt	lm
     5                           	psect	idataCOMRAM,global,class=CODE,delta=1
     6                           	psect	idataBIGRAM,global,class=CODE,delta=1
     7                           	psect	idataBANK0,global,class=CODE,delta=1
     8                           	psect	idataBANK1,global,class=CODE,delta=1
     9                           	psect	idataBANK2,global,class=CODE,delta=1
    10                           	psect	smallconst,global,reloc=2,class=SMALLCONST,delta=1
    11                           	psect	cinit,global,reloc=2,class=CODE,delta=1
    12                           	psect	bssCOMRAM,global,class=COMRAM,space=1,delta=1
    13                           	psect	dataCOMRAM,global,class=COMRAM,space=1,delta=1
    14                           	psect	bssBANK0,global,class=BANK0,space=1,delta=1
    15                           	psect	dataBANK0,global,class=BANK0,space=1,delta=1
    16                           	psect	bssBANK1,global,class=BANK1,space=1,delta=1
    17                           	psect	dataBANK1,global,class=BANK1,space=1,delta=1
    18                           	psect	bssBANK2,global,class=BANK2,space=1,delta=1
    19                           	psect	dataBANK2,global,class=BANK2,space=1,delta=1
    20                           	psect	dataBIGRAM,global,class=BIGRAM,space=1,delta=1
    21                           	psect	cstackBANK2,global,class=BANK2,space=1,delta=1
    22                           	psect	cstackBANK1,global,class=BANK1,space=1,delta=1
    23                           	psect	cstackBANK0,global,class=BANK0,space=1,delta=1
    24                           	psect	cstackCOMRAM,global,class=COMRAM,space=1,delta=1
    25                           	psect	text0,global,reloc=2,class=CODE,delta=1
    26                           	psect	text1,global,reloc=2,class=CODE,delta=1
    27                           	psect	text2,global,reloc=2,class=CODE,delta=1
    28                           	psect	text3,global,reloc=2,class=CODE,delta=1
    29                           	psect	text4,global,reloc=2,class=CODE,delta=1
    30                           	psect	text5,global,reloc=2,class=CODE,delta=1
    31                           	psect	text6,global,reloc=2,class=CODE,delta=1
    32                           	psect	text7,global,reloc=2,class=CODE,delta=1
    33                           	psect	text8,global,reloc=2,class=CODE,delta=1
    34                           	psect	text9,global,reloc=2,class=CODE,delta=1
    35                           	psect	text10,global,reloc=2,class=CODE,delta=1
    36                           	psect	text11,global,reloc=2,class=CODE,delta=1
    37                           	psect	text12,global,reloc=2,class=CODE,delta=1
    38                           	psect	text13,global,reloc=2,class=CODE,delta=1
    39                           	psect	text14,global,reloc=2,class=CODE,delta=1
    40                           	psect	text15,global,reloc=2,class=CODE,delta=1
    41                           	psect	text16,global,reloc=2,class=CODE,delta=1
    42                           	psect	text17,global,reloc=2,class=CODE,delta=1
    43                           	psect	text18,global,reloc=2,class=CODE,delta=1
    44                           	psect	text19,global,reloc=2,class=CODE,delta=1
    45                           	psect	text20,global,reloc=2,class=CODE,delta=1
    46                           	psect	text21,global,reloc=2,class=CODE,delta=1
    47                           	psect	text22,global,reloc=2,class=CODE,delta=1
    48                           	psect	text23,global,reloc=2,class=CODE,delta=1
    49                           	psect	text24,global,reloc=2,class=CODE,delta=1
    50                           	psect	text25,global,reloc=2,class=CODE,delta=1
    51                           	psect	text26,global,reloc=2,class=CODE,delta=1
    52                           	psect	text27,global,reloc=2,class=CODE,delta=1
    53                           	psect	text28,global,reloc=2,class=CODE,delta=1
    54                           	psect	text29,global,reloc=2,class=CODE,delta=1
    55                           	psect	text30,global,reloc=2,class=CODE,delta=1
    56                           	psect	text31,global,reloc=2,class=CODE,delta=1
    57                           	psect	text32,global,reloc=2,class=CODE,delta=1
    58                           	psect	text33,global,reloc=2,class=CODE,delta=1
    59                           	psect	text34,global,reloc=2,class=CODE,delta=1
    60                           	psect	text35,global,reloc=2,class=CODE,delta=1
    61                           	psect	text36,global,reloc=2,class=CODE,delta=1
    62                           	psect	text37,global,reloc=2,class=CODE,delta=1
    63                           	psect	text38,global,reloc=2,class=CODE,delta=1
    64                           	psect	text39,global,reloc=2,class=CODE,delta=1
    65                           	psect	text40,global,reloc=2,class=CODE,delta=1
    66                           	psect	text41,global,reloc=2,class=CODE,delta=1
    67                           	psect	text42,global,reloc=2,class=CODE,delta=1
    68                           	psect	text43,global,reloc=2,class=CODE,delta=1
    69                           	psect	text44,global,reloc=2,class=CODE,delta=1
    70                           	psect	text45,global,reloc=2,class=CODE,delta=1
    71                           	psect	text46,global,reloc=2,class=CODE,delta=1
    72                           	psect	text47,global,reloc=2,class=CODE,delta=1
    73                           	psect	text48,global,reloc=2,class=CODE,delta=1
    74                           	psect	text49,global,reloc=2,class=CODE,delta=1
    75                           	psect	text50,global,reloc=2,class=CODE,delta=1
    76                           	psect	text51,global,reloc=2,class=CODE,delta=1
    77                           	psect	text52,global,reloc=2,class=CODE,delta=1
    78                           	psect	text53,global,reloc=2,class=CODE,delta=1
    79                           	psect	text54,global,reloc=2,class=CODE,delta=1
    80                           	psect	text55,global,reloc=2,class=CODE,delta=1
    81                           	psect	text56,global,reloc=2,class=CODE,delta=1
    82                           	psect	text57,global,reloc=2,class=CODE,delta=1
    83                           	psect	text58,global,reloc=2,class=CODE,delta=1
    84                           	psect	text59,global,reloc=2,class=CODE,delta=1
    85                           	psect	text60,global,reloc=2,class=CODE,delta=1
    86                           	psect	text61,global,reloc=2,class=CODE,delta=1
    87                           	psect	text62,global,reloc=2,class=CODE,delta=1
    88                           	psect	text63,global,reloc=2,class=CODE,delta=1
    89                           	psect	text64,global,reloc=2,class=CODE,delta=1
    90                           	psect	text65,global,reloc=2,class=CODE,delta=1
    91                           	psect	text66,global,reloc=2,class=CODE,delta=1
    92                           	psect	text67,global,reloc=2,class=CODE,delta=1
    93                           	psect	text68,global,reloc=2,class=CODE,delta=1
    94                           	psect	text69,global,reloc=2,class=CODE,delta=1
    95                           	psect	text70,global,reloc=2,class=CODE,delta=1
    96                           	psect	text71,global,reloc=2,class=CODE,delta=1
    97                           	psect	text72,global,reloc=2,class=CODE,delta=1
    98                           	psect	text73,global,reloc=2,class=CODE,delta=1
    99                           	psect	text74,global,reloc=2,class=CODE,delta=1
   100                           	psect	text75,global,reloc=2,class=CODE,delta=1
   101                           	psect	text76,global,reloc=2,class=CODE,delta=1
   102                           	psect	text77,global,reloc=2,class=CODE,delta=1
   103                           	psect	text78,global,reloc=2,class=CODE,delta=1
   104                           	psect	intcodelo,global,reloc=2,class=CODE,delta=1
   105                           	psect	text80,global,reloc=2,class=CODE,delta=1
   106                           	psect	intcode,global,reloc=2,class=CODE,delta=1
   107                           	psect	intcode_body,global,reloc=2,class=CODE,delta=1
   108                           	psect	text82,global,reloc=2,class=CODE,delta=1
   109                           	psect	text83,global,reloc=2,class=CODE,delta=1
   110                           	psect	text84,global,reloc=2,class=CODE,delta=1
   111                           	psect	text85,global,reloc=2,class=CODE,delta=1
   112                           	psect	text86,global,reloc=2,class=CODE,delta=1
   113                           	psect	text87,global,reloc=2,class=CODE,delta=1
   114                           	psect	text88,global,reloc=2,class=CODE,delta=1
   115                           	psect	text89,global,reloc=2,class=CODE,delta=1
   116                           	psect	text90,global,reloc=2,class=CODE,delta=1
   117                           	psect	text91,global,reloc=2,class=CODE,delta=1
   118                           	psect	text92,global,reloc=2,class=CODE,delta=1
   119                           	psect	text93,global,reloc=2,class=CODE,delta=1
   120                           	psect	text94,global,reloc=2,class=CODE,delta=1
   121                           	psect	text95,global,reloc=2,class=CODE,delta=1
   122                           	psect	text96,global,reloc=2,class=CODE,delta=1
   123                           	psect	text97,global,reloc=2,class=CODE,delta=1
   124                           	psect	text98,global,reloc=2,class=CODE,delta=1
   125                           	psect	text99,global,reloc=2,class=CODE,delta=1
   126                           	psect	text100,global,reloc=2,class=CODE,delta=1
   127                           	psect	intsave_regs,global,class=BIGRAM,space=1,delta=1
   128                           	psect	text101,global,reloc=2,class=CODE,delta=1
   129                           	psect	rparam,global,class=COMRAM,space=1,delta=1
   130  0000                     
   131                           	psect	idataCOMRAM
   132  004CF0                     __pidataCOMRAM:
   133                           	opt stack 0
   134                           
   135                           ;initializer for _BlockTemp
   136  004CF0  0000               	dw	0
   137  004CF2  41A0               	dw	16800
   138                           
   139                           ;initializer for _PotMult
   140  004CF4  0000               	dw	0
   141  004CF6  3F80               	dw	16256
   142                           
   143                           	psect	idataBIGRAM
   144  0022B6                     __pidataBIGRAM:
   145                           	opt stack 0
   146                           
   147                           ;initializer for _DC_out
   148  0022B6  002C               	dw	44
   149  0022B8  002C               	dw	44
   150  0022BA  002C               	dw	44
   151  0022BC  002E               	dw	46
   152  0022BE  002E               	dw	46
   153  0022C0  002E               	dw	46
   154  0022C2  002F               	dw	47
   155  0022C4  002F               	dw	47
   156  0022C6  002F               	dw	47
   157  0022C8  0031               	dw	49
   158  0022CA  0031               	dw	49
   159  0022CC  0031               	dw	49
   160  0022CE  0031               	dw	49
   161  0022D0  0033               	dw	51
   162  0022D2  0033               	dw	51
   163  0022D4  0033               	dw	51
   164  0022D6  0033               	dw	51
   165  0022D8  0034               	dw	52
   166  0022DA  0034               	dw	52
   167  0022DC  0034               	dw	52
   168  0022DE  0034               	dw	52
   169  0022E0  0035               	dw	53
   170  0022E2  0035               	dw	53
   171  0022E4  0035               	dw	53
   172  0022E6  0035               	dw	53
   173  0022E8  0038               	dw	56
   174  0022EA  0037               	dw	55
   175  0022EC  0037               	dw	55
   176  0022EE  003A               	dw	58
   177  0022F0  003A               	dw	58
   178  0022F2  003A               	dw	58
   179  0022F4  003A               	dw	58
   180  0022F6  003B               	dw	59
   181  0022F8  003C               	dw	60
   182  0022FA  003D               	dw	61
   183  0022FC  003E               	dw	62
   184  0022FE  003D               	dw	61
   185  002300  003D               	dw	61
   186  002302  003F               	dw	63
   187  002304  003F               	dw	63
   188  002306  0040               	dw	64
   189  002308  0040               	dw	64
   190  00230A  0040               	dw	64
   191  00230C  0041               	dw	65
   192  00230E  0042               	dw	66
   193  002310  0042               	dw	66
   194  002312  0044               	dw	68
   195  002314  0044               	dw	68
   196  002316  0045               	dw	69
   197  002318  0045               	dw	69
   198  00231A  0046               	dw	70
   199  00231C  0046               	dw	70
   200  00231E  0046               	dw	70
   201  002320  0047               	dw	71
   202  002322  0047               	dw	71
   203  002324  0048               	dw	72
   204  002326  0048               	dw	72
   205  002328  0049               	dw	73
   206  00232A  0049               	dw	73
   207  00232C  0049               	dw	73
   208  00232E  004A               	dw	74
   209  002330  004A               	dw	74
   210  002332  004A               	dw	74
   211  002334  004A               	dw	74
   212  002336  004C               	dw	76
   213  002338  004C               	dw	76
   214  00233A  004B               	dw	75
   215  00233C  004B               	dw	75
   216  00233E  004D               	dw	77
   217  002340  004D               	dw	77
   218  002342  004D               	dw	77
   219  002344  004E               	dw	78
   220  002346  0050               	dw	80
   221  002348  0051               	dw	81
   222  00234A  0053               	dw	83
   223  00234C  0052               	dw	82
   224  00234E  0054               	dw	84
   225  002350  0053               	dw	83
   226  002352  0055               	dw	85
   227  002354  0058               	dw	88
   228  002356  0058               	dw	88
   229  002358  0058               	dw	88
   230  00235A  0058               	dw	88
   231  00235C  0058               	dw	88
   232  00235E  0059               	dw	89
   233  002360  0059               	dw	89
   234  002362  005A               	dw	90
   235  002364  005B               	dw	91
   236  002366  005B               	dw	91
   237  002368  005C               	dw	92
   238  00236A  005D               	dw	93
   239  00236C  005D               	dw	93
   240  00236E  005E               	dw	94
   241  002370  005E               	dw	94
   242  002372  005D               	dw	93
   243  002374  005D               	dw	93
   244  002376  0060               	dw	96
   245  002378  005F               	dw	95
   246  00237A  005F               	dw	95
   247  00237C  0060               	dw	96
   248  00237E  0060               	dw	96
   249  002380  0061               	dw	97
   250  002382  0062               	dw	98
   251  002384  0063               	dw	99
   252  002386  0063               	dw	99
   253  002388  0063               	dw	99
   254  00238A  0063               	dw	99
   255  00238C  0064               	dw	100
   256  00238E  0064               	dw	100
   257  002390  0067               	dw	103
   258  002392  0067               	dw	103
   259  002394  0068               	dw	104
   260  002396  0068               	dw	104
   261  002398  0068               	dw	104
   262  00239A  006A               	dw	106
   263  00239C  006A               	dw	106
   264  00239E  0069               	dw	105
   265  0023A0  006B               	dw	107
   266  0023A2  006B               	dw	107
   267  0023A4  006C               	dw	108
   268  0023A6  006D               	dw	109
   269  0023A8  006C               	dw	108
   270  0023AA  006C               	dw	108
   271  0023AC  006D               	dw	109
   272  0023AE  006E               	dw	110
   273  0023B0  006E               	dw	110
   274  0023B2  006E               	dw	110
   275  0023B4  0070               	dw	112
   276  0023B6  0070               	dw	112
   277  0023B8  0070               	dw	112
   278  0023BA  0071               	dw	113
   279  0023BC  0071               	dw	113
   280  0023BE  0071               	dw	113
   281  0023C0  0074               	dw	116
   282  0023C2  0075               	dw	117
   283  0023C4  0075               	dw	117
   284  0023C6  0074               	dw	116
   285  0023C8  0077               	dw	119
   286  0023CA  0076               	dw	118
   287  0023CC  0076               	dw	118
   288  0023CE  0077               	dw	119
   289  0023D0  0077               	dw	119
   290  0023D2  0078               	dw	120
   291  0023D4  0078               	dw	120
   292  0023D6  0079               	dw	121
   293  0023D8  0079               	dw	121
   294  0023DA  007A               	dw	122
   295  0023DC  007B               	dw	123
   296  0023DE  007B               	dw	123
   297  0023E0  007B               	dw	123
   298  0023E2  0080               	dw	128
   299  0023E4  0080               	dw	128
   300  0023E6  0082               	dw	130
   301  0023E8  0081               	dw	129
   302  0023EA  0081               	dw	129
   303  0023EC  0083               	dw	131
   304  0023EE  0083               	dw	131
   305  0023F0  0083               	dw	131
   306  0023F2  0085               	dw	133
   307  0023F4  0085               	dw	133
   308  0023F6  0084               	dw	132
   309  0023F8  0084               	dw	132
   310  0023FA  0085               	dw	133
   311  0023FC  0086               	dw	134
   312  0023FE  0086               	dw	134
   313  002400  0087               	dw	135
   314  002402  0087               	dw	135
   315  002404  0087               	dw	135
   316  002406  0088               	dw	136
   317  002408  0088               	dw	136
   318  00240A  0088               	dw	136
   319  00240C  008A               	dw	138
   320  00240E  008B               	dw	139
   321  002410  008A               	dw	138
   322  002412  008A               	dw	138
   323  002414  008A               	dw	138
   324  002416  008B               	dw	139
   325  002418  008E               	dw	142
   326  00241A  008E               	dw	142
   327  00241C  008E               	dw	142
   328  00241E  008F               	dw	143
   329  002420  008F               	dw	143
   330  002422  0091               	dw	145
   331  002424  0092               	dw	146
   332  002426  0091               	dw	145
   333  002428  0092               	dw	146
   334  00242A  0092               	dw	146
   335  00242C  0096               	dw	150
   336  00242E  0096               	dw	150
   337  002430  0095               	dw	149
   338  002432  0093               	dw	147
   339  002434  0094               	dw	148
   340  002436  0094               	dw	148
   341  002438  0094               	dw	148
   342  00243A  0095               	dw	149
   343  00243C  0095               	dw	149
   344  00243E  0095               	dw	149
   345  002440  0097               	dw	151
   346  002442  0099               	dw	153
   347  002444  009B               	dw	155
   348  002446  009A               	dw	154
   349  002448  009A               	dw	154
   350  00244A  009B               	dw	155
   351  00244C  009B               	dw	155
   352  00244E  009A               	dw	154
   353  002450  009C               	dw	156
   354  002452  009C               	dw	156
   355  002454  009C               	dw	156
   356  002456  009D               	dw	157
   357  002458  009E               	dw	158
   358  00245A  009D               	dw	157
   359  00245C  009E               	dw	158
   360  00245E  009E               	dw	158
   361  002460  009E               	dw	158
   362  002462  009F               	dw	159
   363  002464  009F               	dw	159
   364  002466  009F               	dw	159
   365  002468  00A0               	dw	160
   366  00246A  009F               	dw	159
   367  00246C  00A0               	dw	160
   368  00246E  00A1               	dw	161
   369  002470  00A2               	dw	162
   370  002472  00A1               	dw	161
   371  002474  00A2               	dw	162
   372  002476  00A2               	dw	162
   373                           
   374                           	psect	idataBANK0
   375  004986                     __pidataBANK0:
   376                           	opt stack 0
   377                           
   378                           ;initializer for _BattTempCompOffsetHi
   379  004986  FF8A               	dw	65418
   380                           
   381                           ;initializer for _BattTempCompOffsetLo
   382  004988  004C               	dw	76
   383                           
   384                           ;initializer for _BattTempHi
   385  00498A  0166               	dw	358
   386                           
   387                           ;initializer for _BattTempLo
   388  00498C  0014               	dw	20
   389                           
   390                           ;initializer for _BattVolt25C_Hi
   391  00498E  0221               	dw	545
   392                           
   393                           ;initializer for _BattVolt25C_Lo
   394  004990  0209               	dw	521
   395                           
   396                           ;initializer for _CAG_Offset
   397  004992  01FF               	dw	511
   398                           
   399                           ;initializer for _CountEnrichment
   400  004994  2710               	dw	10000
   401                           
   402                           ;initializer for _DAC_Code
   403  004996  03FF               	dw	1023
   404                           
   405                           ;initializer for _INJ_DutyCycle
   406  004998  0032               	dw	50
   407                           
   408                           ;initializer for _INJ_DutyCycleHi
   409  00499A  0066               	dw	102
   410                           
   411                           ;initializer for _INJ_DutyCycleLo
   412  00499C  0052               	dw	82
   413                           
   414                           ;initializer for _SqrtQ10PolyB0
   415  00499E  0835               	dw	2101
   416                           
   417                           ;initializer for _SqrtQ10PolyB1
   418  0049A0  E0D1               	dw	57553
   419                           
   420                           ;initializer for _SqrtQ10PolyB2
   421  0049A2  45E3               	dw	17891
   422                           
   423                           ;initializer for _SqrtQ10PolyB3
   424  0049A4  1118               	dw	4376
   425                           
   426                           ;initializer for _StepNum
   427  0049A6  0001               	dw	1
   428                           
   429                           ;initializer for _TPS_VoltHi
   430  0049A8  039A               	dw	922
   431                           
   432                           ;initializer for _TPS_VoltLo
   433  0049AA  0066               	dw	102
   434                           
   435                           ;initializer for _TempSet
   436  0049AC  00F0               	dw	240
   437                           
   438                           ;initializer for _TimeStep
   439  0049AE  001E               	dw	30
   440                           
   441                           ;initializer for _TimeStepRun
   442  0049B0  0003               	dw	3
   443                           
   444                           ;initializer for _TimeWait
   445  0049B2  05DC               	dw	1500
   446                           
   447                           ;initializer for _diagnostic_mode
   448  0049B4  0001               	dw	1
   449                           
   450                           ;initializer for _inj_max
   451  0049B6  005A               	dw	90
   452                           
   453                           ;initializer for _start_time
   454  0049B8  0023               	dw	35
   455                           
   456                           ;initializer for _ClockSpeed
   457  0049BA  08                 	db	8
   458                           
   459                           	psect	idataBANK1
   460  0042F4                     __pidataBANK1:
   461                           	opt stack 0
   462                           
   463                           ;initializer for _cag_offset_cold
   464  0042F4  01FA               	dw	506
   465  0042F6  01FA               	dw	506
   466  0042F8  01FA               	dw	506
   467  0042FA  01FA               	dw	506
   468  0042FC  01FA               	dw	506
   469  0042FE  01FA               	dw	506
   470  004300  01FA               	dw	506
   471  004302  01FA               	dw	506
   472  004304  01FA               	dw	506
   473  004306  01FA               	dw	506
   474  004308  01FA               	dw	506
   475  00430A  01FA               	dw	506
   476  00430C  01FA               	dw	506
   477                           
   478                           ;initializer for _cag_offset_warm
   479  00430E  01FA               	dw	506
   480  004310  01FA               	dw	506
   481  004312  01FA               	dw	506
   482  004314  01FA               	dw	506
   483  004316  01FA               	dw	506
   484  004318  01FA               	dw	506
   485  00431A  01FA               	dw	506
   486  00431C  01FA               	dw	506
   487  00431E  01FA               	dw	506
   488  004320  01FA               	dw	506
   489  004322  01FA               	dw	506
   490  004324  01FA               	dw	506
   491  004326  01FA               	dw	506
   492                           
   493                           ;initializer for _DC_hot_flag1
   494  004328  00B7               	dw	183
   495  00432A  00DC               	dw	220
   496                           
   497                           ;initializer for _DC_hot_flag2
   498  00432C  00B7               	dw	183
   499  00432E  00DC               	dw	220
   500                           
   501                           ;initializer for _FuelModifier
   502                           ;injector.c: 33: float BlockTemp_0;
   503                           ;injector.c: 34: extern bool CalibrationMode;
   504                           ;injector.c: 38: extern AnalogSignal_t EngTempADC_Filtered;
   505                           ;injector.c: 39: extern uint16_t CAG_Offset;
   506                           ;injector.c: 41: int16_t TPS_VoltLo = (int16_t) ( ((float)(0.5)) / ((float)(5.0)) * ((fl
      +                          oat)(1024)) + ((0.5) > 0 ? 0.5 : -0.5) );
   507                           ;injector.c: 42: int16_t TPS_VoltHi = (int16_t) ( ((float)(4.5)) / ((float)(5.0)) * ((fl
      +                          oat)(1024)) + ((4.5) > 0 ? 0.5 : -0.5) );
   508                           ;injector.c: 44: int16_t StepTime=0;
   509                           ;injector.c: 45: int16_t StepStart=0;
   510  004330  0000               	dw	0
   511  004332  3F80               	dw	16256
   512                           
   513                           ;initializer for _PulseMult
   514  004334  0000               	dw	0
   515  004336  3F80               	dw	16256
   516                           
   517                           ;initializer for _TPS_high
   518  004338  0171               	dw	369
   519  00433A  02BC               	dw	700
   520                           
   521                           ;initializer for _TempMult
   522  00433C  0000               	dw	0
   523  00433E  3F80               	dw	16256
   524                           
   525                           ;initializer for _rho_multiplier
   526                           ;injector.c: 33: float BlockTemp_0;
   527                           ;injector.c: 34: extern bool CalibrationMode;
   528                           ;injector.c: 38: extern AnalogSignal_t EngTempADC_Filtered;
   529                           ;injector.c: 39: extern uint16_t CAG_Offset;
   530                           ;injector.c: 41: int16_t TPS_VoltLo = (int16_t) ( ((float)(0.5)) / ((float)(5.0)) * ((fl
      +                          oat)(1024)) + ((0.5) > 0 ? 0.5 : -0.5) );
   531                           ;injector.c: 42: int16_t TPS_VoltHi = (int16_t) ( ((float)(4.5)) / ((float)(5.0)) * ((fl
      +                          oat)(1024)) + ((4.5) > 0 ? 0.5 : -0.5) );
   532                           ;injector.c: 44: int16_t StepTime=0;
   533                           ;injector.c: 45: int16_t StepStart=0;
   534  004340  0000               	dw	0
   535  004342  3F80               	dw	16256
   536                           
   537                           ;initializer for _t_ambient
   538                           ;injector.c: 33: float BlockTemp_0;
   539                           ;injector.c: 34: extern bool CalibrationMode;
   540                           ;injector.c: 38: extern AnalogSignal_t EngTempADC_Filtered;
   541                           ;injector.c: 39: extern uint16_t CAG_Offset;
   542                           ;injector.c: 41: int16_t TPS_VoltLo = (int16_t) ( ((float)(0.5)) / ((float)(5.0)) * ((fl
      +                          oat)(1024)) + ((0.5) > 0 ? 0.5 : -0.5) );
   543                           ;injector.c: 42: int16_t TPS_VoltHi = (int16_t) ( ((float)(4.5)) / ((float)(5.0)) * ((fl
      +                          oat)(1024)) + ((4.5) > 0 ? 0.5 : -0.5) );
   544                           ;injector.c: 44: int16_t StepTime=0;
   545                           ;injector.c: 45: int16_t StepStart=0;
   546  004344  0000               	dw	0
   547  004346  41A0               	dw	16800
   548                           
   549                           ;initializer for _SS_time
   550  004348  00F0               	dw	240
   551                           
   552                           ;initializer for _TempThrStep11
   553  00434A  0050               	dw	80
   554                           
   555                           ;initializer for _TempThrStep12
   556  00434C  0052               	dw	82
   557                           
   558                           ;initializer for _TempThrStep7
   559  00434E  003C               	dw	60
   560                           
   561                           ;initializer for _TempThrStep9
   562  004350  0046               	dw	70
   563                           
   564                           ;initializer for _testflag
   565  004352  0002               	dw	2
   566                           
   567                           	psect	idataBANK2
   568  003E28                     __pidataBANK2:
   569                           	opt stack 0
   570                           
   571                           ;initializer for _time_mult_cold
   572                           ;calcfueltypeparameter.c: 33: extern uint16_t TempSet=240;
   573                           ;calcfueltypeparameter.c: 34: extern uint16_t TempThrStep12=82;
   574                           ;calcfueltypeparameter.c: 35: extern uint16_t TempThrStep11=80;
   575                           ;calcfueltypeparameter.c: 36: extern uint16_t TempThrStep9=70;
   576                           ;calcfueltypeparameter.c: 37: extern uint16_t TempThrStep7=60;
   577                           ;calcfueltypeparameter.c: 38: int i=0;
   578  003E28  0000               	dw	0
   579  003E2A  3F80               	dw	16256
   580                           
   581                           ;calcfueltypeparameter.c: 33: extern uint16_t TempSet=240;
   582                           ;calcfueltypeparameter.c: 34: extern uint16_t TempThrStep12=82;
   583                           ;calcfueltypeparameter.c: 35: extern uint16_t TempThrStep11=80;
   584                           ;calcfueltypeparameter.c: 36: extern uint16_t TempThrStep9=70;
   585                           ;calcfueltypeparameter.c: 37: extern uint16_t TempThrStep7=60;
   586                           ;calcfueltypeparameter.c: 38: int i=0;
   587  003E2C  0000               	dw	0
   588  003E2E  3F80               	dw	16256
   589                           
   590                           ;calcfueltypeparameter.c: 33: extern uint16_t TempSet=240;
   591                           ;calcfueltypeparameter.c: 34: extern uint16_t TempThrStep12=82;
   592                           ;calcfueltypeparameter.c: 35: extern uint16_t TempThrStep11=80;
   593                           ;calcfueltypeparameter.c: 36: extern uint16_t TempThrStep9=70;
   594                           ;calcfueltypeparameter.c: 37: extern uint16_t TempThrStep7=60;
   595                           ;calcfueltypeparameter.c: 38: int i=0;
   596  003E30  0000               	dw	0
   597  003E32  3F80               	dw	16256
   598                           
   599                           ;calcfueltypeparameter.c: 33: extern uint16_t TempSet=240;
   600                           ;calcfueltypeparameter.c: 34: extern uint16_t TempThrStep12=82;
   601                           ;calcfueltypeparameter.c: 35: extern uint16_t TempThrStep11=80;
   602                           ;calcfueltypeparameter.c: 36: extern uint16_t TempThrStep9=70;
   603                           ;calcfueltypeparameter.c: 37: extern uint16_t TempThrStep7=60;
   604                           ;calcfueltypeparameter.c: 38: int i=0;
   605  003E34  0000               	dw	0
   606  003E36  3F80               	dw	16256
   607                           
   608                           ;calcfueltypeparameter.c: 33: extern uint16_t TempSet=240;
   609                           ;calcfueltypeparameter.c: 34: extern uint16_t TempThrStep12=82;
   610                           ;calcfueltypeparameter.c: 35: extern uint16_t TempThrStep11=80;
   611                           ;calcfueltypeparameter.c: 36: extern uint16_t TempThrStep9=70;
   612                           ;calcfueltypeparameter.c: 37: extern uint16_t TempThrStep7=60;
   613                           ;calcfueltypeparameter.c: 38: int i=0;
   614  003E38  0000               	dw	0
   615  003E3A  3F80               	dw	16256
   616                           
   617                           ;calcfueltypeparameter.c: 33: extern uint16_t TempSet=240;
   618                           ;calcfueltypeparameter.c: 34: extern uint16_t TempThrStep12=82;
   619                           ;calcfueltypeparameter.c: 35: extern uint16_t TempThrStep11=80;
   620                           ;calcfueltypeparameter.c: 36: extern uint16_t TempThrStep9=70;
   621                           ;calcfueltypeparameter.c: 37: extern uint16_t TempThrStep7=60;
   622                           ;calcfueltypeparameter.c: 38: int i=0;
   623  003E3C  0000               	dw	0
   624  003E3E  3F80               	dw	16256
   625                           
   626                           ;calcfueltypeparameter.c: 33: extern uint16_t TempSet=240;
   627                           ;calcfueltypeparameter.c: 34: extern uint16_t TempThrStep12=82;
   628                           ;calcfueltypeparameter.c: 35: extern uint16_t TempThrStep11=80;
   629                           ;calcfueltypeparameter.c: 36: extern uint16_t TempThrStep9=70;
   630                           ;calcfueltypeparameter.c: 37: extern uint16_t TempThrStep7=60;
   631                           ;calcfueltypeparameter.c: 38: int i=0;
   632  003E40  0000               	dw	0
   633  003E42  3F80               	dw	16256
   634                           
   635                           ;calcfueltypeparameter.c: 33: extern uint16_t TempSet=240;
   636                           ;calcfueltypeparameter.c: 34: extern uint16_t TempThrStep12=82;
   637                           ;calcfueltypeparameter.c: 35: extern uint16_t TempThrStep11=80;
   638                           ;calcfueltypeparameter.c: 36: extern uint16_t TempThrStep9=70;
   639                           ;calcfueltypeparameter.c: 37: extern uint16_t TempThrStep7=60;
   640                           ;calcfueltypeparameter.c: 38: int i=0;
   641  003E44  0000               	dw	0
   642  003E46  3F80               	dw	16256
   643                           
   644                           ;calcfueltypeparameter.c: 33: extern uint16_t TempSet=240;
   645                           ;calcfueltypeparameter.c: 34: extern uint16_t TempThrStep12=82;
   646                           ;calcfueltypeparameter.c: 35: extern uint16_t TempThrStep11=80;
   647                           ;calcfueltypeparameter.c: 36: extern uint16_t TempThrStep9=70;
   648                           ;calcfueltypeparameter.c: 37: extern uint16_t TempThrStep7=60;
   649                           ;calcfueltypeparameter.c: 38: int i=0;
   650  003E48  0000               	dw	0
   651  003E4A  3F80               	dw	16256
   652                           
   653                           ;calcfueltypeparameter.c: 33: extern uint16_t TempSet=240;
   654                           ;calcfueltypeparameter.c: 34: extern uint16_t TempThrStep12=82;
   655                           ;calcfueltypeparameter.c: 35: extern uint16_t TempThrStep11=80;
   656                           ;calcfueltypeparameter.c: 36: extern uint16_t TempThrStep9=70;
   657                           ;calcfueltypeparameter.c: 37: extern uint16_t TempThrStep7=60;
   658                           ;calcfueltypeparameter.c: 38: int i=0;
   659  003E4C  0000               	dw	0
   660  003E4E  3F80               	dw	16256
   661                           
   662                           ;calcfueltypeparameter.c: 33: extern uint16_t TempSet=240;
   663                           ;calcfueltypeparameter.c: 34: extern uint16_t TempThrStep12=82;
   664                           ;calcfueltypeparameter.c: 35: extern uint16_t TempThrStep11=80;
   665                           ;calcfueltypeparameter.c: 36: extern uint16_t TempThrStep9=70;
   666                           ;calcfueltypeparameter.c: 37: extern uint16_t TempThrStep7=60;
   667                           ;calcfueltypeparameter.c: 38: int i=0;
   668  003E50  0000               	dw	0
   669  003E52  3F80               	dw	16256
   670                           
   671                           ;calcfueltypeparameter.c: 33: extern uint16_t TempSet=240;
   672                           ;calcfueltypeparameter.c: 34: extern uint16_t TempThrStep12=82;
   673                           ;calcfueltypeparameter.c: 35: extern uint16_t TempThrStep11=80;
   674                           ;calcfueltypeparameter.c: 36: extern uint16_t TempThrStep9=70;
   675                           ;calcfueltypeparameter.c: 37: extern uint16_t TempThrStep7=60;
   676                           ;calcfueltypeparameter.c: 38: int i=0;
   677  003E54  0000               	dw	0
   678  003E56  3F80               	dw	16256
   679                           
   680                           ;initializer for _time_mult_warm
   681                           ;calcfueltypeparameter.c: 33: extern uint16_t TempSet=240;
   682                           ;calcfueltypeparameter.c: 34: extern uint16_t TempThrStep12=82;
   683                           ;calcfueltypeparameter.c: 35: extern uint16_t TempThrStep11=80;
   684                           ;calcfueltypeparameter.c: 36: extern uint16_t TempThrStep9=70;
   685                           ;calcfueltypeparameter.c: 37: extern uint16_t TempThrStep7=60;
   686                           ;calcfueltypeparameter.c: 38: int i=0;
   687                           ;calcfueltypeparameter.c: 40: extern double time_mult_cold[]={1.00, 1.00, 1.00, 1.00, 1.
      +                          00, 1.00, 1.00, 1.00, 1.00, 1.00, 1.00, 1.00};
   688  003E58  0000               	dw	0
   689  003E5A  3F00               	dw	16128
   690                           
   691                           ;calcfueltypeparameter.c: 33: extern uint16_t TempSet=240;
   692                           ;calcfueltypeparameter.c: 34: extern uint16_t TempThrStep12=82;
   693                           ;calcfueltypeparameter.c: 35: extern uint16_t TempThrStep11=80;
   694                           ;calcfueltypeparameter.c: 36: extern uint16_t TempThrStep9=70;
   695                           ;calcfueltypeparameter.c: 37: extern uint16_t TempThrStep7=60;
   696                           ;calcfueltypeparameter.c: 38: int i=0;
   697                           ;calcfueltypeparameter.c: 40: extern double time_mult_cold[]={1.00, 1.00, 1.00, 1.00, 1.
      +                          00, 1.00, 1.00, 1.00, 1.00, 1.00, 1.00, 1.00};
   698  003E5C  0000               	dw	0
   699  003E5E  3F00               	dw	16128
   700                           
   701                           ;calcfueltypeparameter.c: 33: extern uint16_t TempSet=240;
   702                           ;calcfueltypeparameter.c: 34: extern uint16_t TempThrStep12=82;
   703                           ;calcfueltypeparameter.c: 35: extern uint16_t TempThrStep11=80;
   704                           ;calcfueltypeparameter.c: 36: extern uint16_t TempThrStep9=70;
   705                           ;calcfueltypeparameter.c: 37: extern uint16_t TempThrStep7=60;
   706                           ;calcfueltypeparameter.c: 38: int i=0;
   707                           ;calcfueltypeparameter.c: 40: extern double time_mult_cold[]={1.00, 1.00, 1.00, 1.00, 1.
      +                          00, 1.00, 1.00, 1.00, 1.00, 1.00, 1.00, 1.00};
   708  003E60  0000               	dw	0
   709  003E62  3F00               	dw	16128
   710                           
   711                           ;calcfueltypeparameter.c: 33: extern uint16_t TempSet=240;
   712                           ;calcfueltypeparameter.c: 34: extern uint16_t TempThrStep12=82;
   713                           ;calcfueltypeparameter.c: 35: extern uint16_t TempThrStep11=80;
   714                           ;calcfueltypeparameter.c: 36: extern uint16_t TempThrStep9=70;
   715                           ;calcfueltypeparameter.c: 37: extern uint16_t TempThrStep7=60;
   716                           ;calcfueltypeparameter.c: 38: int i=0;
   717                           ;calcfueltypeparameter.c: 40: extern double time_mult_cold[]={1.00, 1.00, 1.00, 1.00, 1.
      +                          00, 1.00, 1.00, 1.00, 1.00, 1.00, 1.00, 1.00};
   718  003E64  0000               	dw	0
   719  003E66  3F00               	dw	16128
   720                           
   721                           ;calcfueltypeparameter.c: 33: extern uint16_t TempSet=240;
   722                           ;calcfueltypeparameter.c: 34: extern uint16_t TempThrStep12=82;
   723                           ;calcfueltypeparameter.c: 35: extern uint16_t TempThrStep11=80;
   724                           ;calcfueltypeparameter.c: 36: extern uint16_t TempThrStep9=70;
   725                           ;calcfueltypeparameter.c: 37: extern uint16_t TempThrStep7=60;
   726                           ;calcfueltypeparameter.c: 38: int i=0;
   727                           ;calcfueltypeparameter.c: 40: extern double time_mult_cold[]={1.00, 1.00, 1.00, 1.00, 1.
      +                          00, 1.00, 1.00, 1.00, 1.00, 1.00, 1.00, 1.00};
   728  003E68  0000               	dw	0
   729  003E6A  3F00               	dw	16128
   730                           
   731                           ;calcfueltypeparameter.c: 33: extern uint16_t TempSet=240;
   732                           ;calcfueltypeparameter.c: 34: extern uint16_t TempThrStep12=82;
   733                           ;calcfueltypeparameter.c: 35: extern uint16_t TempThrStep11=80;
   734                           ;calcfueltypeparameter.c: 36: extern uint16_t TempThrStep9=70;
   735                           ;calcfueltypeparameter.c: 37: extern uint16_t TempThrStep7=60;
   736                           ;calcfueltypeparameter.c: 38: int i=0;
   737                           ;calcfueltypeparameter.c: 40: extern double time_mult_cold[]={1.00, 1.00, 1.00, 1.00, 1.
      +                          00, 1.00, 1.00, 1.00, 1.00, 1.00, 1.00, 1.00};
   738  003E6C  0000               	dw	0
   739  003E6E  3F00               	dw	16128
   740                           
   741                           ;calcfueltypeparameter.c: 33: extern uint16_t TempSet=240;
   742                           ;calcfueltypeparameter.c: 34: extern uint16_t TempThrStep12=82;
   743                           ;calcfueltypeparameter.c: 35: extern uint16_t TempThrStep11=80;
   744                           ;calcfueltypeparameter.c: 36: extern uint16_t TempThrStep9=70;
   745                           ;calcfueltypeparameter.c: 37: extern uint16_t TempThrStep7=60;
   746                           ;calcfueltypeparameter.c: 38: int i=0;
   747                           ;calcfueltypeparameter.c: 40: extern double time_mult_cold[]={1.00, 1.00, 1.00, 1.00, 1.
      +                          00, 1.00, 1.00, 1.00, 1.00, 1.00, 1.00, 1.00};
   748  003E70  0000               	dw	0
   749  003E72  3F80               	dw	16256
   750                           
   751                           ;calcfueltypeparameter.c: 33: extern uint16_t TempSet=240;
   752                           ;calcfueltypeparameter.c: 34: extern uint16_t TempThrStep12=82;
   753                           ;calcfueltypeparameter.c: 35: extern uint16_t TempThrStep11=80;
   754                           ;calcfueltypeparameter.c: 36: extern uint16_t TempThrStep9=70;
   755                           ;calcfueltypeparameter.c: 37: extern uint16_t TempThrStep7=60;
   756                           ;calcfueltypeparameter.c: 38: int i=0;
   757                           ;calcfueltypeparameter.c: 40: extern double time_mult_cold[]={1.00, 1.00, 1.00, 1.00, 1.
      +                          00, 1.00, 1.00, 1.00, 1.00, 1.00, 1.00, 1.00};
   758  003E74  0000               	dw	0
   759  003E76  3F80               	dw	16256
   760                           
   761                           ;calcfueltypeparameter.c: 33: extern uint16_t TempSet=240;
   762                           ;calcfueltypeparameter.c: 34: extern uint16_t TempThrStep12=82;
   763                           ;calcfueltypeparameter.c: 35: extern uint16_t TempThrStep11=80;
   764                           ;calcfueltypeparameter.c: 36: extern uint16_t TempThrStep9=70;
   765                           ;calcfueltypeparameter.c: 37: extern uint16_t TempThrStep7=60;
   766                           ;calcfueltypeparameter.c: 38: int i=0;
   767                           ;calcfueltypeparameter.c: 40: extern double time_mult_cold[]={1.00, 1.00, 1.00, 1.00, 1.
      +                          00, 1.00, 1.00, 1.00, 1.00, 1.00, 1.00, 1.00};
   768  003E78  0000               	dw	0
   769  003E7A  3F80               	dw	16256
   770                           
   771                           ;calcfueltypeparameter.c: 33: extern uint16_t TempSet=240;
   772                           ;calcfueltypeparameter.c: 34: extern uint16_t TempThrStep12=82;
   773                           ;calcfueltypeparameter.c: 35: extern uint16_t TempThrStep11=80;
   774                           ;calcfueltypeparameter.c: 36: extern uint16_t TempThrStep9=70;
   775                           ;calcfueltypeparameter.c: 37: extern uint16_t TempThrStep7=60;
   776                           ;calcfueltypeparameter.c: 38: int i=0;
   777                           ;calcfueltypeparameter.c: 40: extern double time_mult_cold[]={1.00, 1.00, 1.00, 1.00, 1.
      +                          00, 1.00, 1.00, 1.00, 1.00, 1.00, 1.00, 1.00};
   778  003E7C  0000               	dw	0
   779  003E7E  3F80               	dw	16256
   780                           
   781                           ;calcfueltypeparameter.c: 33: extern uint16_t TempSet=240;
   782                           ;calcfueltypeparameter.c: 34: extern uint16_t TempThrStep12=82;
   783                           ;calcfueltypeparameter.c: 35: extern uint16_t TempThrStep11=80;
   784                           ;calcfueltypeparameter.c: 36: extern uint16_t TempThrStep9=70;
   785                           ;calcfueltypeparameter.c: 37: extern uint16_t TempThrStep7=60;
   786                           ;calcfueltypeparameter.c: 38: int i=0;
   787                           ;calcfueltypeparameter.c: 40: extern double time_mult_cold[]={1.00, 1.00, 1.00, 1.00, 1.
      +                          00, 1.00, 1.00, 1.00, 1.00, 1.00, 1.00, 1.00};
   788  003E80  0000               	dw	0
   789  003E82  3F80               	dw	16256
   790                           
   791                           ;calcfueltypeparameter.c: 33: extern uint16_t TempSet=240;
   792                           ;calcfueltypeparameter.c: 34: extern uint16_t TempThrStep12=82;
   793                           ;calcfueltypeparameter.c: 35: extern uint16_t TempThrStep11=80;
   794                           ;calcfueltypeparameter.c: 36: extern uint16_t TempThrStep9=70;
   795                           ;calcfueltypeparameter.c: 37: extern uint16_t TempThrStep7=60;
   796                           ;calcfueltypeparameter.c: 38: int i=0;
   797                           ;calcfueltypeparameter.c: 40: extern double time_mult_cold[]={1.00, 1.00, 1.00, 1.00, 1.
      +                          00, 1.00, 1.00, 1.00, 1.00, 1.00, 1.00, 1.00};
   798  003E84  0000               	dw	0
   799  003E86  3F80               	dw	16256
   800                           
   801                           ;initializer for _SqrtTableQ10
   802  003E88  16A1               	dw	5793
   803  003E8A  1000               	dw	4096
   804  003E8C  0B50               	dw	2896
   805  003E8E  0800               	dw	2048
   806  003E90  05A8               	dw	1448
   807  003E92  0400               	dw	1024
   808  003E94  02D4               	dw	724
   809  003E96  0200               	dw	512
   810  003E98  016A               	dw	362
   811  003E9A  0100               	dw	256
   812  003E9C  00B5               	dw	181
   813  003E9E  0080               	dw	128
   814  003EA0  005A               	dw	90
   815  003EA2  0040               	dw	64
   816  003EA4  002D               	dw	45
   817  003EA6  0000               	dw	0
   818                           
   819                           	psect	smallconst
   820  000600                     __psmallconst:
   821                           	opt stack 0
   822  000600                     _dpowers:
   823                           	opt stack 0
   824  000600  0001               	dw	1
   825  000602  000A               	dw	10
   826  000604  0064               	dw	100
   827  000606  03E8               	dw	1000
   828  000608  2710               	dw	10000
   829  00060A                     __end_of_dpowers:
   830                           	opt stack 0
   831  0000                     _ADCON0	set	4034
   832  0000                     _ADCON0bits	set	4034
   833  0000                     _ADCON1	set	4033
   834  0000                     _ADCON2	set	4032
   835  0000                     _ADRESH	set	4036
   836  0000                     _ADRESL	set	4035
   837  0000                     _ANSELA	set	3896
   838  0000                     _ANSELAbits	set	3896
   839  0000                     _ANSELB	set	3897
   840  0000                     _ANSELC	set	3898
   841  0000                     _ANSELD	set	3899
   842  0000                     _ANSELE	set	3900
   843  0000                     _ANSELEbits	set	3900
   844  0000                     _BAUDCON1	set	4024
   845  0000                     _CCP1CON	set	4029
   846  0000                     _CCP4CON	set	3927
   847  0000                     _CCPR1H	set	4031
   848  0000                     _CCPR1L	set	4030
   849  0000                     _CCPR4H	set	3929
   850  0000                     _CCPR4L	set	3928
   851  0000                     _CCPTMRS0bits	set	3913
   852  0000                     _INTCON2bits	set	4081
   853  0000                     _INTCONbits	set	4082
   854  0000                     _LATBbits	set	3978
   855  0000                     _LATDbits	set	3980
   856  0000                     _OSCCON	set	4051
   857  0000                     _OSCTUNEbits	set	3995
   858  0000                     _PIE1	set	3997
   859  0000                     _PIE1bits	set	3997
   860  0000                     _PIE2bits	set	4000
   861  0000                     _PIE3bits	set	4003
   862  0000                     _PIR1bits	set	3998
   863  0000                     _PIR2bits	set	4001
   864  0000                     _PIR3bits	set	4004
   865  0000                     _PR2	set	4027
   866  0000                     _RCONbits	set	4048
   867  0000                     _RCSTA1	set	4011
   868  0000                     _RCSTA1bits	set	4011
   869  0000                     _SPBRG1	set	4015
   870  0000                     _SPBRGH1	set	4016
   871  0000                     _SSP1BUF	set	4041
   872  0000                     _SSP1CON1	set	4038
   873  0000                     _SSP1CON1bits	set	4038
   874  0000                     _SSP1STAT	set	4039
   875  0000                     _SSP1STATbits	set	4039
   876  0000                     _SSP2BUF	set	3951
   877  0000                     _SSP2CON1	set	3948
   878  0000                     _SSP2CON1bits	set	3948
   879  0000                     _T0CON	set	4053
   880  0000                     _T0CONbits	set	4053
   881  0000                     _T1CON	set	4045
   882  0000                     _T1CONbits	set	4045
   883  0000                     _T1GCON	set	4044
   884  0000                     _T1GCONbits	set	4044
   885  0000                     _T2CON	set	4026
   886  0000                     _T3CON	set	4017
   887  0000                     _T3CONbits	set	4017
   888  0000                     _T3GCON	set	4020
   889  0000                     _T3GCONbits	set	4020
   890  0000                     _TMR0H	set	4055
   891  0000                     _TMR0L	set	4054
   892  0000                     _TMR1H	set	4047
   893  0000                     _TMR1L	set	4046
   894  0000                     _TMR3H	set	4019
   895  0000                     _TMR3L	set	4018
   896  0000                     _TRISAbits	set	3986
   897  0000                     _TRISB	set	3987
   898  0000                     _TRISC	set	3988
   899  0000                     _TRISCbits	set	3988
   900  0000                     _TRISD	set	3989
   901  0000                     _TRISEbits	set	3990
   902  0000                     _TXREG1	set	4013
   903  0000                     _TXSTA1	set	4012
   904  0000                     _TXSTA1bits	set	4012
   905  00060A                     __stringdata:
   906                           	opt stack 0
   907  00060A  41                 	db	65	;'A'
   908  00060B  4E                 	db	78	;'N'
   909  00060C  30                 	db	48	;'0'
   910  00060D  3A                 	db	58	;':'
   911  00060E  25                 	db	37
   912  00060F  34                 	db	52	;'4'
   913  000610  75                 	db	117	;'u'
   914  000611  20                 	db	32
   915  000612  00                 	db	0
   916  000613  41                 	db	65	;'A'
   917  000614  4E                 	db	78	;'N'
   918  000615  31                 	db	49	;'1'
   919  000616  3A                 	db	58	;':'
   920  000617  25                 	db	37
   921  000618  34                 	db	52	;'4'
   922  000619  75                 	db	117	;'u'
   923  00061A  20                 	db	32
   924  00061B  00                 	db	0
   925  00061C  41                 	db	65	;'A'
   926  00061D  4E                 	db	78	;'N'
   927  00061E  32                 	db	50	;'2'
   928  00061F  3A                 	db	58	;':'
   929  000620  25                 	db	37
   930  000621  34                 	db	52	;'4'
   931  000622  75                 	db	117	;'u'
   932  000623  20                 	db	32
   933  000624  00                 	db	0
   934  000625  41                 	db	65	;'A'
   935  000626  4E                 	db	78	;'N'
   936  000627  33                 	db	51	;'3'
   937  000628  3A                 	db	58	;':'
   938  000629  25                 	db	37
   939  00062A  34                 	db	52	;'4'
   940  00062B  75                 	db	117	;'u'
   941  00062C  20                 	db	32
   942  00062D  00                 	db	0
   943  00062E                     __end_of__stringdata:
   944                           	opt stack 0
   945                           
   946                           ; #config settings
   947  00062E  00                 	db	0	; dummy byte at the end
   948  0000                     
   949                           	psect	cinit
   950  003338                     __pcinit:
   951                           	opt stack 0
   952  003338                     start_initialization:
   953                           	opt stack 0
   954  003338                     __initialization:
   955                           	opt stack 0
   956                           
   957                           ; Clear objects allocated to BANK2 (32 bytes)
   958  003338  EE02  F0A5         	lfsr	0,__pbssBANK2
   959  00333C  0E20               	movlw	32
   960  00333E                     clear_0:
   961  00333E  6AEE               	clrf	postinc0,c
   962  003340  06E8               	decf	wreg,f,c
   963  003342  E1FD               	bnz	clear_0
   964                           
   965                           ; Clear objects allocated to BANK1 (150 bytes)
   966  003344  EE01  F000         	lfsr	0,__pbssBANK1
   967  003348  0E96               	movlw	150
   968  00334A                     clear_1:
   969  00334A  6AEE               	clrf	postinc0,c
   970  00334C  06E8               	decf	wreg,f,c
   971  00334E  E1FD               	bnz	clear_1
   972                           
   973                           ; Clear objects allocated to BANK0 (46 bytes)
   974  003350  EE00  F095         	lfsr	0,__pbssBANK0
   975  003354  0E2E               	movlw	46
   976  003356                     clear_2:
   977  003356  6AEE               	clrf	postinc0,c
   978  003358  06E8               	decf	wreg,f,c
   979  00335A  E1FD               	bnz	clear_2
   980                           
   981                           ; Clear objects allocated to COMRAM (14 bytes)
   982  00335C  EE00  F034         	lfsr	0,__pbssCOMRAM
   983  003360  0E0E               	movlw	14
   984  003362                     clear_3:
   985  003362  6AEE               	clrf	postinc0,c
   986  003364  06E8               	decf	wreg,f,c
   987  003366  E1FD               	bnz	clear_3
   988                           
   989                           ; Initialize objects allocated to BIGRAM (450 bytes)
   990                           ; load TBLPTR registers with __pidataBIGRAM
   991  003368  0EB6               	movlw	low __pidataBIGRAM
   992  00336A  6EF6               	movwf	tblptrl,c
   993  00336C  0E22               	movlw	high __pidataBIGRAM
   994  00336E  6EF7               	movwf	tblptrh,c
   995  003370  0E00               	movlw	low (__pidataBIGRAM shr (0+16))
   996  003372  6EF8               	movwf	tblptru,c
   997  003374  EE02  F0C5         	lfsr	0,__pdataBIGRAM
   998  003378  EE11 F0C2          	lfsr	1,450
   999  00337C                     copy_data0:
  1000  00337C  0009               	tblrd		*+
  1001  00337E  CFF5 FFEE          	movff	tablat,postinc0
  1002  003382  50E5               	movf	postdec1,w,c
  1003  003384  50E1               	movf	fsr1l,w,c
  1004  003386  E1FA               	bnz	copy_data0
  1005  003388  50E2               	movf	fsr1h,w,c
  1006  00338A  E1F8               	bnz	copy_data0
  1007                           
  1008                           ; Initialize objects allocated to BANK2 (128 bytes)
  1009                           ; load TBLPTR registers with __pidataBANK2
  1010  00338C  0E28               	movlw	low __pidataBANK2
  1011  00338E  6EF6               	movwf	tblptrl,c
  1012  003390  0E3E               	movlw	high __pidataBANK2
  1013  003392  6EF7               	movwf	tblptrh,c
  1014  003394  0E00               	movlw	low (__pidataBANK2 shr (0+16))
  1015  003396  6EF8               	movwf	tblptru,c
  1016  003398  EE02  F000         	lfsr	0,__pdataBANK2
  1017  00339C  EE10 F080          	lfsr	1,128
  1018  0033A0                     copy_data1:
  1019  0033A0  0009               	tblrd		*+
  1020  0033A2  CFF5 FFEE          	movff	tablat,postinc0
  1021  0033A6  50E5               	movf	postdec1,w,c
  1022  0033A8  50E1               	movf	fsr1l,w,c
  1023  0033AA  E1FA               	bnz	copy_data1
  1024                           
  1025                           ; Initialize objects allocated to BANK1 (96 bytes)
  1026                           ; load TBLPTR registers with __pidataBANK1
  1027  0033AC  0EF4               	movlw	low __pidataBANK1
  1028  0033AE  6EF6               	movwf	tblptrl,c
  1029  0033B0  0E42               	movlw	high __pidataBANK1
  1030  0033B2  6EF7               	movwf	tblptrh,c
  1031  0033B4  0E00               	movlw	low (__pidataBANK1 shr (0+16))
  1032  0033B6  6EF8               	movwf	tblptru,c
  1033  0033B8  EE01  F096         	lfsr	0,__pdataBANK1
  1034  0033BC  EE10 F060          	lfsr	1,96
  1035  0033C0                     copy_data2:
  1036  0033C0  0009               	tblrd		*+
  1037  0033C2  CFF5 FFEE          	movff	tablat,postinc0
  1038  0033C6  50E5               	movf	postdec1,w,c
  1039  0033C8  50E1               	movf	fsr1l,w,c
  1040  0033CA  E1FA               	bnz	copy_data2
  1041                           
  1042                           ; Initialize objects allocated to BANK0 (53 bytes)
  1043                           ; load TBLPTR registers with __pidataBANK0
  1044  0033CC  0E86               	movlw	low __pidataBANK0
  1045  0033CE  6EF6               	movwf	tblptrl,c
  1046  0033D0  0E49               	movlw	high __pidataBANK0
  1047  0033D2  6EF7               	movwf	tblptrh,c
  1048  0033D4  0E00               	movlw	low (__pidataBANK0 shr (0+16))
  1049  0033D6  6EF8               	movwf	tblptru,c
  1050  0033D8  EE00  F060         	lfsr	0,__pdataBANK0
  1051  0033DC  EE10 F035          	lfsr	1,53
  1052  0033E0                     copy_data3:
  1053  0033E0  0009               	tblrd		*+
  1054  0033E2  CFF5 FFEE          	movff	tablat,postinc0
  1055  0033E6  50E5               	movf	postdec1,w,c
  1056  0033E8  50E1               	movf	fsr1l,w,c
  1057  0033EA  E1FA               	bnz	copy_data3
  1058                           
  1059                           ; Initialize objects allocated to COMRAM (8 bytes)
  1060                           ; load TBLPTR registers with __pidataCOMRAM
  1061  0033EC  0EF0               	movlw	low __pidataCOMRAM
  1062  0033EE  6EF6               	movwf	tblptrl,c
  1063  0033F0  0E4C               	movlw	high __pidataCOMRAM
  1064  0033F2  6EF7               	movwf	tblptrh,c
  1065  0033F4  0E00               	movlw	low (__pidataCOMRAM shr (0+16))
  1066  0033F6  6EF8               	movwf	tblptru,c
  1067  0033F8  EE00  F042         	lfsr	0,__pdataCOMRAM
  1068  0033FC  EE10 F008          	lfsr	1,8
  1069  003400                     copy_data4:
  1070  003400  0009               	tblrd		*+
  1071  003402  CFF5 FFEE          	movff	tablat,postinc0
  1072  003406  50E5               	movf	postdec1,w,c
  1073  003408  50E1               	movf	fsr1l,w,c
  1074  00340A  E1FA               	bnz	copy_data4
  1075  00340C                     end_of_initialization:
  1076                           	opt stack 0
  1077  00340C                     __end_of__initialization:
  1078                           	opt stack 0
  1079  00340C  0E00               	movlw	low (__Lmediumconst shr (0+16))
  1080  00340E  6EF8               	movwf	tblptru,c
  1081  003410  0100               	movlb	0
  1082  003412  EF55  F026         	goto	_main	;jump to C main() function
  1083                           tblptru	equ	0xFF8
  1084                           tblptrh	equ	0xFF7
  1085                           tblptrl	equ	0xFF6
  1086                           tablat	equ	0xFF5
  1087                           postinc0	equ	0xFEE
  1088                           wreg	equ	0xFE8
  1089                           postdec1	equ	0xFE5
  1090                           fsr1h	equ	0xFE2
  1091                           fsr1l	equ	0xFE1
  1092                           
  1093                           	psect	bssCOMRAM
  1094  000034                     __pbssCOMRAM:
  1095                           	opt stack 0
  1096  000034                     _BlockTemp_0:
  1097                           	opt stack 0
  1098  000034                     	ds	4
  1099  000038                     _EngTempADC_Filtered:
  1100                           	opt stack 0
  1101  000038                     	ds	3
  1102  00003B                     _IGN_PulsePeriod:
  1103                           	opt stack 0
  1104  00003B                     	ds	2
  1105  00003D                     _INJ_ThrottleADC:
  1106                           	opt stack 0
  1107  00003D                     	ds	2
  1108  00003F                     _SecondsRunTime:
  1109                           	opt stack 0
  1110  00003F                     	ds	2
  1111  000041                     _InjectorEnabled:
  1112                           	opt stack 0
  1113  000041                     	ds	1
  1114                           tblptru	equ	0xFF8
  1115                           tblptrh	equ	0xFF7
  1116                           tblptrl	equ	0xFF6
  1117                           tablat	equ	0xFF5
  1118                           postinc0	equ	0xFEE
  1119                           wreg	equ	0xFE8
  1120                           postdec1	equ	0xFE5
  1121                           fsr1h	equ	0xFE2
  1122                           fsr1l	equ	0xFE1
  1123                           
  1124                           	psect	dataCOMRAM
  1125  000042                     __pdataCOMRAM:
  1126                           	opt stack 0
  1127  000042                     _BlockTemp:
  1128                           	opt stack 0
  1129  000042                     	ds	4
  1130  000046                     _PotMult:
  1131                           	opt stack 0
  1132  000046                     	ds	4
  1133                           tblptru	equ	0xFF8
  1134                           tblptrh	equ	0xFF7
  1135                           tblptrl	equ	0xFF6
  1136                           tablat	equ	0xFF5
  1137                           postinc0	equ	0xFEE
  1138                           wreg	equ	0xFE8
  1139                           postdec1	equ	0xFE5
  1140                           fsr1h	equ	0xFE2
  1141                           fsr1l	equ	0xFE1
  1142                           
  1143                           	psect	bssBANK0
  1144  000095                     __pbssBANK0:
  1145                           	opt stack 0
  1146  000095                     _AirTempADC_Filtered:
  1147                           	opt stack 0
  1148  000095                     	ds	3
  1149  000098                     INJ_StartSequence@interval:
  1150                           	opt stack 0
  1151  000098                     	ds	2
  1152  00009A                     _BattTempCompOffset:
  1153                           	opt stack 0
  1154  00009A                     	ds	2
  1155  00009C                     _EngTemp:
  1156                           	opt stack 0
  1157  00009C                     	ds	2
  1158  00009E                     _IGN_PulseTimeNew:
  1159                           	opt stack 0
  1160  00009E                     	ds	2
  1161  0000A0                     _IGN_PulseTimeOld:
  1162                           	opt stack 0
  1163  0000A0                     	ds	2
  1164  0000A2                     _INJ_Pot:
  1165                           	opt stack 0
  1166  0000A2                     	ds	2
  1167  0000A4                     _INJ_ThrottleADC_old:
  1168                           	opt stack 0
  1169  0000A4                     	ds	2
  1170  0000A6                     _SCH_ErrorCount:
  1171                           	opt stack 0
  1172  0000A6                     	ds	2
  1173  0000A8                     _StepStart:
  1174                           	opt stack 0
  1175  0000A8                     	ds	2
  1176  0000AA                     _StepTime:
  1177                           	opt stack 0
  1178  0000AA                     	ds	2
  1179  0000AC                     _TimerInState:
  1180                           	opt stack 0
  1181  0000AC                     	ds	2
  1182  0000AE                     _VsenseBattADC:
  1183                           	opt stack 0
  1184  0000AE                     	ds	2
  1185  0000B0                     _hot_flag:
  1186                           	opt stack 0
  1187  0000B0                     	ds	2
  1188  0000B2                     _i:
  1189                           	opt stack 0
  1190  0000B2                     	ds	2
  1191  0000B4                     _start_hot_flag:
  1192                           	opt stack 0
  1193  0000B4                     	ds	2
  1194  0000B6                     _AirTempBufferCounter:
  1195                           	opt stack 0
  1196  0000B6                     	ds	1
  1197  0000B7                     _CalibrationMode:
  1198                           	opt stack 0
  1199  0000B7                     	ds	1
  1200  0000B8                     _CapStatus:
  1201                           	opt stack 0
  1202  0000B8                     	ds	1
  1203  0000B9                     _ChargeEnabled:
  1204                           	opt stack 0
  1205  0000B9                     	ds	1
  1206  0000BA                     _DrainMode:
  1207                           	opt stack 0
  1208  0000BA                     	ds	1
  1209  0000BB                     _EngTempBufferCounter:
  1210                           	opt stack 0
  1211  0000BB                     	ds	1
  1212  0000BC                     _FuelType:
  1213                           	opt stack 0
  1214  0000BC                     	ds	1
  1215  0000BD                     _GenCtrlFaultCode:
  1216                           	opt stack 0
  1217  0000BD                     	ds	1
  1218  0000BE                     _GenCtrlState:
  1219                           	opt stack 0
  1220  0000BE                     	ds	1
  1221  0000BF                     _IGN_PulseTimeoutCntr:
  1222                           	opt stack 0
  1223  0000BF                     	ds	1
  1224  0000C0                     _SCH_ErrorCode:
  1225                           	opt stack 0
  1226  0000C0                     	ds	1
  1227  0000C1                     _SCH_ErrorLast:
  1228                           	opt stack 0
  1229  0000C1                     	ds	1
  1230  0000C2                     _USART1_Status:
  1231                           	opt stack 0
  1232  0000C2                     	ds	1
  1233                           tblptru	equ	0xFF8
  1234                           tblptrh	equ	0xFF7
  1235                           tblptrl	equ	0xFF6
  1236                           tablat	equ	0xFF5
  1237                           postinc0	equ	0xFEE
  1238                           wreg	equ	0xFE8
  1239                           postdec1	equ	0xFE5
  1240                           fsr1h	equ	0xFE2
  1241                           fsr1l	equ	0xFE1
  1242                           
  1243                           	psect	dataBANK0
  1244  000060                     __pdataBANK0:
  1245                           	opt stack 0
  1246  000060                     _BattTempCompOffsetHi:
  1247                           	opt stack 0
  1248  000060                     	ds	2
  1249  000062                     _BattTempCompOffsetLo:
  1250                           	opt stack 0
  1251  000062                     	ds	2
  1252  000064                     _BattTempHi:
  1253                           	opt stack 0
  1254  000064                     	ds	2
  1255  000066                     _BattTempLo:
  1256                           	opt stack 0
  1257  000066                     	ds	2
  1258  000068                     _BattVolt25C_Hi:
  1259                           	opt stack 0
  1260  000068                     	ds	2
  1261  00006A                     _BattVolt25C_Lo:
  1262                           	opt stack 0
  1263  00006A                     	ds	2
  1264  00006C                     _CAG_Offset:
  1265                           	opt stack 0
  1266  00006C                     	ds	2
  1267  00006E                     _CountEnrichment:
  1268                           	opt stack 0
  1269  00006E                     	ds	2
  1270  000070                     _DAC_Code:
  1271                           	opt stack 0
  1272  000070                     	ds	2
  1273  000072                     _INJ_DutyCycle:
  1274                           	opt stack 0
  1275  000072                     	ds	2
  1276  000074                     _INJ_DutyCycleHi:
  1277                           	opt stack 0
  1278  000074                     	ds	2
  1279  000076                     _INJ_DutyCycleLo:
  1280                           	opt stack 0
  1281  000076                     	ds	2
  1282  000078                     _SqrtQ10PolyB0:
  1283                           	opt stack 0
  1284  000078                     	ds	2
  1285  00007A                     _SqrtQ10PolyB1:
  1286                           	opt stack 0
  1287  00007A                     	ds	2
  1288  00007C                     _SqrtQ10PolyB2:
  1289                           	opt stack 0
  1290  00007C                     	ds	2
  1291  00007E                     _SqrtQ10PolyB3:
  1292                           	opt stack 0
  1293  00007E                     	ds	2
  1294  000080                     _StepNum:
  1295                           	opt stack 0
  1296  000080                     	ds	2
  1297  000082                     _TPS_VoltHi:
  1298                           	opt stack 0
  1299  000082                     	ds	2
  1300  000084                     _TPS_VoltLo:
  1301                           	opt stack 0
  1302  000084                     	ds	2
  1303  000086                     _TempSet:
  1304                           	opt stack 0
  1305  000086                     	ds	2
  1306  000088                     _TimeStep:
  1307                           	opt stack 0
  1308  000088                     	ds	2
  1309  00008A                     _TimeStepRun:
  1310                           	opt stack 0
  1311  00008A                     	ds	2
  1312  00008C                     _TimeWait:
  1313                           	opt stack 0
  1314  00008C                     	ds	2
  1315  00008E                     _diagnostic_mode:
  1316                           	opt stack 0
  1317  00008E                     	ds	2
  1318  000090                     _inj_max:
  1319                           	opt stack 0
  1320  000090                     	ds	2
  1321  000092                     _start_time:
  1322                           	opt stack 0
  1323  000092                     	ds	2
  1324  000094                     _ClockSpeed:
  1325                           	opt stack 0
  1326  000094                     	ds	1
  1327                           tblptru	equ	0xFF8
  1328                           tblptrh	equ	0xFF7
  1329                           tblptrl	equ	0xFF6
  1330                           tablat	equ	0xFF5
  1331                           postinc0	equ	0xFEE
  1332                           wreg	equ	0xFE8
  1333                           postdec1	equ	0xFE5
  1334                           fsr1h	equ	0xFE2
  1335                           fsr1l	equ	0xFE1
  1336                           
  1337                           	psect	bssBANK1
  1338  000100                     __pbssBANK1:
  1339                           	opt stack 0
  1340  000100                     _AirTempDataBuffer:
  1341                           	opt stack 0
  1342  000100                     	ds	32
  1343  000120                     _SCH_Tasks:
  1344                           	opt stack 0
  1345  000120                     	ds	28
  1346  00013C                     _FM_AirTempInterp:
  1347                           	opt stack 0
  1348  00013C                     	ds	12
  1349  000148                     _PulseInterp:
  1350                           	opt stack 0
  1351  000148                     	ds	12
  1352  000154                     _AnaInputs:
  1353                           	opt stack 0
  1354  000154                     	ds	8
  1355  00015C                     _time_mult:
  1356                           	opt stack 0
  1357  00015C                     	ds	4
  1358  000160                     _AbsEngTempError:
  1359                           	opt stack 0
  1360  000160                     	ds	2
  1361  000162                     _UI_InputADC:
  1362                           	opt stack 0
  1363  000162                     	ds	2
  1364  000164                     _counter:
  1365                           	opt stack 0
  1366  000164                     	ds	2
  1367  000166                     _n:
  1368                           	opt stack 0
  1369  000166                     	ds	2
  1370  000168                     _overheat_flag:
  1371                           	opt stack 0
  1372  000168                     	ds	2
  1373  00016A                     _short_flag_cold:
  1374                           	opt stack 0
  1375  00016A                     	ds	2
  1376  00016C                     _short_flag_hot:
  1377                           	opt stack 0
  1378  00016C                     	ds	2
  1379  00016E                     _shutter_counter:
  1380                           	opt stack 0
  1381  00016E                     	ds	2
  1382  000170                     _underheat_flag:
  1383                           	opt stack 0
  1384  000170                     	ds	2
  1385  000172                     _BattTempCompInterp:
  1386                           	opt stack 0
  1387  000172                     	ds	12
  1388  00017E                     _PotInterp:
  1389                           	opt stack 0
  1390  00017E                     	ds	12
  1391  00018A                     _TPS_InjPWMInterp:
  1392                           	opt stack 0
  1393  00018A                     	ds	12
  1394                           tblptru	equ	0xFF8
  1395                           tblptrh	equ	0xFF7
  1396                           tblptrl	equ	0xFF6
  1397                           tablat	equ	0xFF5
  1398                           postinc0	equ	0xFEE
  1399                           wreg	equ	0xFE8
  1400                           postdec1	equ	0xFE5
  1401                           fsr1h	equ	0xFE2
  1402                           fsr1l	equ	0xFE1
  1403                           
  1404                           	psect	dataBANK1
  1405  000196                     __pdataBANK1:
  1406                           	opt stack 0
  1407  000196                     _cag_offset_cold:
  1408                           	opt stack 0
  1409  000196                     	ds	26
  1410  0001B0                     _cag_offset_warm:
  1411                           	opt stack 0
  1412  0001B0                     	ds	26
  1413  0001CA                     _DC_hot_flag1:
  1414                           	opt stack 0
  1415  0001CA                     	ds	4
  1416  0001CE                     _DC_hot_flag2:
  1417                           	opt stack 0
  1418  0001CE                     	ds	4
  1419  0001D2                     _FuelModifier:
  1420                           	opt stack 0
  1421  0001D2                     	ds	4
  1422  0001D6                     _PulseMult:
  1423                           	opt stack 0
  1424  0001D6                     	ds	4
  1425  0001DA                     _TPS_high:
  1426                           	opt stack 0
  1427  0001DA                     	ds	4
  1428  0001DE                     _TempMult:
  1429                           	opt stack 0
  1430  0001DE                     	ds	4
  1431  0001E2                     _rho_multiplier:
  1432                           	opt stack 0
  1433  0001E2                     	ds	4
  1434  0001E6                     _t_ambient:
  1435                           	opt stack 0
  1436  0001E6                     	ds	4
  1437  0001EA                     _SS_time:
  1438                           	opt stack 0
  1439  0001EA                     	ds	2
  1440  0001EC                     _TempThrStep11:
  1441                           	opt stack 0
  1442  0001EC                     	ds	2
  1443  0001EE                     _TempThrStep12:
  1444                           	opt stack 0
  1445  0001EE                     	ds	2
  1446  0001F0                     _TempThrStep7:
  1447                           	opt stack 0
  1448  0001F0                     	ds	2
  1449  0001F2                     _TempThrStep9:
  1450                           	opt stack 0
  1451  0001F2                     	ds	2
  1452  0001F4                     _testflag:
  1453                           	opt stack 0
  1454  0001F4                     	ds	2
  1455                           tblptru	equ	0xFF8
  1456                           tblptrh	equ	0xFF7
  1457                           tblptrl	equ	0xFF6
  1458                           tablat	equ	0xFF5
  1459                           postinc0	equ	0xFEE
  1460                           wreg	equ	0xFE8
  1461                           postdec1	equ	0xFE5
  1462                           fsr1h	equ	0xFE2
  1463                           fsr1l	equ	0xFE1
  1464                           
  1465                           	psect	bssBANK2
  1466  0002A5                     __pbssBANK2:
  1467                           	opt stack 0
  1468  0002A5                     _EngTempDataBuffer:
  1469                           	opt stack 0
  1470  0002A5                     	ds	32
  1471                           tblptru	equ	0xFF8
  1472                           tblptrh	equ	0xFF7
  1473                           tblptrl	equ	0xFF6
  1474                           tablat	equ	0xFF5
  1475                           postinc0	equ	0xFEE
  1476                           wreg	equ	0xFE8
  1477                           postdec1	equ	0xFE5
  1478                           fsr1h	equ	0xFE2
  1479                           fsr1l	equ	0xFE1
  1480                           
  1481                           	psect	dataBANK2
  1482  000200                     __pdataBANK2:
  1483                           	opt stack 0
  1484  000200                     _time_mult_cold:
  1485                           	opt stack 0
  1486  000200                     	ds	48
  1487  000230                     _time_mult_warm:
  1488                           	opt stack 0
  1489  000230                     	ds	48
  1490  000260                     _SqrtTableQ10:
  1491                           	opt stack 0
  1492  000260                     	ds	32
  1493                           tblptru	equ	0xFF8
  1494                           tblptrh	equ	0xFF7
  1495                           tblptrl	equ	0xFF6
  1496                           tablat	equ	0xFF5
  1497                           postinc0	equ	0xFEE
  1498                           wreg	equ	0xFE8
  1499                           postdec1	equ	0xFE5
  1500                           fsr1h	equ	0xFE2
  1501                           fsr1l	equ	0xFE1
  1502                           
  1503                           	psect	dataBIGRAM
  1504  0002C5                     __pdataBIGRAM:
  1505                           	opt stack 0
  1506  0002C5                     _DC_out:
  1507                           	opt stack 0
  1508  0002C5                     	ds	450
  1509                           tblptru	equ	0xFF8
  1510                           tblptrh	equ	0xFF7
  1511                           tblptrl	equ	0xFF6
  1512                           tablat	equ	0xFF5
  1513                           postinc0	equ	0xFEE
  1514                           wreg	equ	0xFE8
  1515                           postdec1	equ	0xFE5
  1516                           fsr1h	equ	0xFE2
  1517                           fsr1l	equ	0xFE1
  1518                           
  1519                           	psect	cstackBANK2
  1520  000280                     __pcstackBANK2:
  1521                           	opt stack 0
  1522  000280                     ??___flge:
  1523  000280                     ?___awtofl:
  1524                           	opt stack 0
  1525  000280                     ?___lwtofl:
  1526                           	opt stack 0
  1527  000280                     PWM_LS_Init@config:
  1528                           	opt stack 0
  1529  000280                     ___aldiv@counter:
  1530                           	opt stack 0
  1531  000280                     BDCFuelPumpEnable@PWM_FrequencyDytyCycle:
  1532                           	opt stack 0
  1533  000280                     ___awtofl@c:
  1534                           	opt stack 0
  1535  000280                     ___lwtofl@c:
  1536                           	opt stack 0
  1537                           
  1538                           ; 2 bytes @ 0x0
  1539  000280                     	ds	1
  1540  000281                     ___aldiv@sign:
  1541                           	opt stack 0
  1542  000281                     PWM_LS_Init@pos_pulse_width:
  1543                           	opt stack 0
  1544                           
  1545                           ; 2 bytes @ 0x1
  1546  000281                     	ds	1
  1547  000282                     BDCFuelPumpEnable@PWM_Enable:
  1548                           	opt stack 0
  1549  000282                     ___aldiv@quotient:
  1550                           	opt stack 0
  1551                           
  1552                           ; 4 bytes @ 0x2
  1553  000282                     	ds	2
  1554  000284                     ??___awtofl:
  1555  000284                     ??___lwtofl:
  1556  000284                     BDCFuelPumpEnable@PWM_Output:
  1557                           	opt stack 0
  1558                           
  1559                           ; 2 bytes @ 0x4
  1560  000284                     	ds	1
  1561  000285                     ___awtofl@sign:
  1562                           	opt stack 0
  1563                           
  1564                           ; 1 bytes @ 0x5
  1565  000285                     	ds	1
  1566  000286                     ?_LinearInterpInit:
  1567                           	opt stack 0
  1568  000286                     ?___flmul:
  1569                           	opt stack 0
  1570  000286                     LinearInterpInit@d:
  1571                           	opt stack 0
  1572  000286                     ___flmul@f1:
  1573                           	opt stack 0
  1574                           
  1575                           ; 4 bytes @ 0x6
  1576  000286                     	ds	2
  1577  000288                     LinearInterpInit@x1:
  1578                           	opt stack 0
  1579                           
  1580                           ; 2 bytes @ 0x8
  1581  000288                     	ds	2
  1582  00028A                     LinearInterpInit@y1:
  1583                           	opt stack 0
  1584  00028A                     ___flmul@f2:
  1585                           	opt stack 0
  1586                           
  1587                           ; 4 bytes @ 0xA
  1588  00028A                     	ds	2
  1589  00028C                     LinearInterpInit@x2:
  1590                           	opt stack 0
  1591                           
  1592                           ; 2 bytes @ 0xC
  1593  00028C                     	ds	2
  1594  00028E                     ??___flmul:
  1595  00028E                     LinearInterpInit@y2:
  1596                           	opt stack 0
  1597                           
  1598                           ; 2 bytes @ 0xE
  1599  00028E                     	ds	1
  1600  00028F                     ___flmul@exp:
  1601                           	opt stack 0
  1602                           
  1603                           ; 1 bytes @ 0xF
  1604  00028F                     	ds	1
  1605  000290                     LinearInterpInit@q_slope:
  1606                           	opt stack 0
  1607  000290                     ___flmul@f3_as_product:
  1608                           	opt stack 0
  1609                           
  1610                           ; 4 bytes @ 0x10
  1611  000290                     	ds	2
  1612  000292                     ??_LinearInterpInit:
  1613                           
  1614                           ; 0 bytes @ 0x12
  1615  000292                     	ds	2
  1616  000294                     ___flmul@cntr:
  1617                           	opt stack 0
  1618                           
  1619                           ; 1 bytes @ 0x14
  1620  000294                     	ds	1
  1621  000295                     ___flmul@sign:
  1622                           	opt stack 0
  1623                           
  1624                           ; 1 bytes @ 0x15
  1625  000295                     	ds	1
  1626  000296                     ??_TimeMultInit:
  1627  000296                     ?___fladd:
  1628                           	opt stack 0
  1629  000296                     ?___fltol:
  1630                           	opt stack 0
  1631  000296                     LinearInterpInit@calWarnDetected:
  1632                           	opt stack 0
  1633  000296                     ___fladd@f1:
  1634                           	opt stack 0
  1635  000296                     ___fltol@f1:
  1636                           	opt stack 0
  1637                           
  1638                           ; 4 bytes @ 0x16
  1639  000296                     	ds	1
  1640  000297                     LinearInterpInit@delta_x_abs:
  1641                           	opt stack 0
  1642                           
  1643                           ; 2 bytes @ 0x17
  1644  000297                     	ds	2
  1645  000299                     LinearInterpInit@delta_y_abs:
  1646                           	opt stack 0
  1647                           
  1648                           ; 2 bytes @ 0x19
  1649  000299                     	ds	1
  1650  00029A                     ??___fltol:
  1651  00029A                     ___fladd@f2:
  1652                           	opt stack 0
  1653                           
  1654                           ; 4 bytes @ 0x1A
  1655  00029A                     	ds	1
  1656  00029B                     LinearInterpInit@delta_x:
  1657                           	opt stack 0
  1658                           
  1659                           ; 2 bytes @ 0x1B
  1660  00029B                     	ds	2
  1661  00029D                     LinearInterpInit@max_slope:
  1662                           	opt stack 0
  1663                           
  1664                           ; 2 bytes @ 0x1D
  1665  00029D                     	ds	1
  1666  00029E                     ??___fladd:
  1667  00029E                     ___fltol@sign1:
  1668                           	opt stack 0
  1669                           
  1670                           ; 1 bytes @ 0x1E
  1671  00029E                     	ds	1
  1672  00029F                     ___fladd@sign:
  1673                           	opt stack 0
  1674  00029F                     ___fltol@exp1:
  1675                           	opt stack 0
  1676  00029F                     LinearInterpInit@delta_y:
  1677                           	opt stack 0
  1678                           
  1679                           ; 2 bytes @ 0x1F
  1680  00029F                     	ds	1
  1681  0002A0                     ??_INJ_Init:
  1682  0002A0                     ___fladd@exp2:
  1683                           	opt stack 0
  1684                           
  1685                           ; 1 bytes @ 0x20
  1686  0002A0                     	ds	1
  1687  0002A1                     ___fladd@exp1:
  1688                           	opt stack 0
  1689                           
  1690                           ; 1 bytes @ 0x21
  1691  0002A1                     	ds	1
  1692  0002A2                     ??_EnterGenStateStart:
  1693  0002A2                     ??_ExecuteGenStateInit:
  1694                           
  1695                           ; 0 bytes @ 0x22
  1696  0002A2                     	ds	1
  1697  0002A3                     ??_SCH_DispatchTasks:
  1698                           
  1699                           ; 0 bytes @ 0x23
  1700  0002A3                     	ds	1
  1701  0002A4                     SCH_DispatchTasks@index:
  1702                           	opt stack 0
  1703                           
  1704                           ; 1 bytes @ 0x24
  1705  0002A4                     	ds	1
  1706                           tblptru	equ	0xFF8
  1707                           tblptrh	equ	0xFF7
  1708                           tblptrl	equ	0xFF6
  1709                           tablat	equ	0xFF5
  1710                           postinc0	equ	0xFEE
  1711                           wreg	equ	0xFE8
  1712                           postdec1	equ	0xFE5
  1713                           fsr1h	equ	0xFE2
  1714                           fsr1l	equ	0xFE1
  1715                           
  1716                           	psect	cstackBANK1
  1717  0001F6                     __pcstackBANK1:
  1718                           	opt stack 0
  1719  0001F6                     ?_SetIntOSC:
  1720                           	opt stack 0
  1721  0001F6                     ?_OpenADC:
  1722                           	opt stack 0
  1723  0001F6                     ?_SelChanConvADC:
  1724                           	opt stack 0
  1725  0001F6                     ?_WriteTimer0:
  1726                           	opt stack 0
  1727  0001F6                     ?_OpenTimer0:
  1728                           	opt stack 0
  1729  0001F6                     ?_WriteTimer1:
  1730                           	opt stack 0
  1731  0001F6                     ?_OpenTimer1:
  1732                           	opt stack 0
  1733  0001F6                     ?_WriteTimer3:
  1734                           	opt stack 0
  1735  0001F6                     ?_OpenTimer3:
  1736                           	opt stack 0
  1737  0001F6                     ?_OpenSPI1:
  1738                           	opt stack 0
  1739  0001F6                     ??_AirTempInit:
  1740  0001F6                     ??_EnterGenStateOff:
  1741  0001F6                     ??_EnterGenStateRun:
  1742  0001F6                     ??_AirTempFilter:
  1743  0001F6                     ??_EngTempFilter:
  1744  0001F6                     ?___flge:
  1745                           	opt stack 0
  1746  0001F6                     ?_SCH_DeleteTask:
  1747                           	opt stack 0
  1748  0001F6                     ?_WriteSPI1:
  1749                           	opt stack 0
  1750  0001F6                     ?_WriteSPI2:
  1751                           	opt stack 0
  1752  0001F6                     ?_SCH_AddTask:
  1753                           	opt stack 0
  1754  0001F6                     ?_ReadADC:
  1755                           	opt stack 0
  1756  0001F6                     ?_abs:
  1757                           	opt stack 0
  1758  0001F6                     ?___lwmod:
  1759                           	opt stack 0
  1760  0001F6                     ?___wmul:
  1761                           	opt stack 0
  1762  0001F6                     ?___flpack:
  1763                           	opt stack 0
  1764  0001F6                     ?___aldiv:
  1765                           	opt stack 0
  1766  0001F6                     SetIntOSC@ClockSet:
  1767                           	opt stack 0
  1768  0001F6                     SCH_DeleteTask@task_index:
  1769                           	opt stack 0
  1770  0001F6                     OpenADC@config:
  1771                           	opt stack 0
  1772  0001F6                     SelChanConvADC@channel:
  1773                           	opt stack 0
  1774  0001F6                     OpenSPI1@sync_mode:
  1775                           	opt stack 0
  1776  0001F6                     WriteSPI1@data_out:
  1777                           	opt stack 0
  1778  0001F6                     WriteSPI2@data_out:
  1779                           	opt stack 0
  1780  0001F6                     OpenTimer0@config:
  1781                           	opt stack 0
  1782  0001F6                     OpenTimer1@config:
  1783                           	opt stack 0
  1784  0001F6                     OpenTimer3@config:
  1785                           	opt stack 0
  1786  0001F6                     SCH_AddTask@pFunction:
  1787                           	opt stack 0
  1788  0001F6                     WriteTimer0@timer0:
  1789                           	opt stack 0
  1790  0001F6                     WriteTimer1@timer1:
  1791                           	opt stack 0
  1792  0001F6                     WriteTimer3@timer3:
  1793                           	opt stack 0
  1794  0001F6                     abs@a:
  1795                           	opt stack 0
  1796  0001F6                     ___lwmod@dividend:
  1797                           	opt stack 0
  1798  0001F6                     ___wmul@multiplier:
  1799                           	opt stack 0
  1800  0001F6                     ___aldiv@dividend:
  1801                           	opt stack 0
  1802  0001F6                     ___flpack@arg:
  1803                           	opt stack 0
  1804  0001F6                     ___flge@ff1:
  1805                           	opt stack 0
  1806                           
  1807                           ; 4 bytes @ 0x0
  1808  0001F6                     	ds	1
  1809  0001F7                     ??_SCH_DeleteTask:
  1810  0001F7                     ??_SelChanConvADC:
  1811  0001F7                     ??_ExecuteGenStateStart:
  1812  0001F7                     AirTempInit@bufferIndex:
  1813                           	opt stack 0
  1814  0001F7                     OpenADC@config2:
  1815                           	opt stack 0
  1816  0001F7                     OpenSPI1@bus_mode:
  1817                           	opt stack 0
  1818  0001F7                     WriteSPI1@TempVar:
  1819                           	opt stack 0
  1820  0001F7                     WriteSPI2@TempVar:
  1821                           	opt stack 0
  1822  0001F7                     OpenTimer1@config1:
  1823                           	opt stack 0
  1824  0001F7                     OpenTimer3@config1:
  1825                           	opt stack 0
  1826                           
  1827                           ; 1 bytes @ 0x1
  1828  0001F7                     	ds	1
  1829  0001F8                     ??_DAC_Write:
  1830  0001F8                     ??_OpenTimer1:
  1831  0001F8                     ??_OpenTimer3:
  1832  0001F8                     ??_abs:
  1833  0001F8                     ?_SPI_Write16:
  1834                           	opt stack 0
  1835  0001F8                     ?_ADC_Convert:
  1836                           	opt stack 0
  1837  0001F8                     SCH_DeleteTask@return_code:
  1838                           	opt stack 0
  1839  0001F8                     ADC_Convert@chan:
  1840                           	opt stack 0
  1841  0001F8                     OpenADC@config3:
  1842                           	opt stack 0
  1843  0001F8                     OpenSPI1@smp_phase:
  1844                           	opt stack 0
  1845  0001F8                     SCH_AddTask@delay:
  1846                           	opt stack 0
  1847  0001F8                     SPI_Write16@data:
  1848                           	opt stack 0
  1849  0001F8                     WriteTimer0@timer:
  1850                           	opt stack 0
  1851  0001F8                     WriteTimer1@timer:
  1852                           	opt stack 0
  1853  0001F8                     WriteTimer3@timer:
  1854                           	opt stack 0
  1855  0001F8                     ___lwmod@divisor:
  1856                           	opt stack 0
  1857  0001F8                     ___wmul@multiplicand:
  1858                           	opt stack 0
  1859                           
  1860                           ; 2 bytes @ 0x2
  1861  0001F8                     	ds	1
  1862  0001F9                     ??_SPI_Init:
  1863  0001F9                     ??_OpenADC:
  1864  0001F9                     ??_SCH_Init:
  1865  0001F9                     AirTempFilter@airTempAvg:
  1866                           	opt stack 0
  1867  0001F9                     EngTempFilter@engTempAvg:
  1868                           	opt stack 0
  1869                           
  1870                           ; 2 bytes @ 0x3
  1871  0001F9                     	ds	1
  1872  0001FA                     ??_TMR0_Init:
  1873  0001FA                     ??_TMR1_Init:
  1874  0001FA                     ??_TMR3_Init:
  1875  0001FA                     ??___lwmod:
  1876  0001FA                     SCH_Init@index:
  1877                           	opt stack 0
  1878  0001FA                     SPI_Init@sync_mode:
  1879                           	opt stack 0
  1880  0001FA                     SPI_Write16@chan:
  1881                           	opt stack 0
  1882  0001FA                     ___flpack@exp:
  1883                           	opt stack 0
  1884  0001FA                     SCH_AddTask@period:
  1885                           	opt stack 0
  1886  0001FA                     ADC_Convert@timeout:
  1887                           	opt stack 0
  1888  0001FA                     ___wmul@product:
  1889                           	opt stack 0
  1890  0001FA                     ___aldiv@divisor:
  1891                           	opt stack 0
  1892  0001FA                     ___flge@ff2:
  1893                           	opt stack 0
  1894                           
  1895                           ; 4 bytes @ 0x4
  1896  0001FA                     	ds	1
  1897  0001FB                     ??_ADC_Init:
  1898  0001FB                     ??_LSD_FaultCommand:
  1899  0001FB                     ??_BDCFuelPumpEnable:
  1900  0001FB                     TMR0_Init@config1:
  1901                           	opt stack 0
  1902  0001FB                     TMR1_Init@config:
  1903                           	opt stack 0
  1904  0001FB                     TMR3_Init@config:
  1905                           	opt stack 0
  1906  0001FB                     SPI_Init@bus_mode:
  1907                           	opt stack 0
  1908  0001FB                     AirTempFilter@bufferIndex:
  1909                           	opt stack 0
  1910  0001FB                     EngTempFilter@bufferIndex:
  1911                           	opt stack 0
  1912  0001FB                     ___flpack@sign:
  1913                           	opt stack 0
  1914  0001FB                     ___lwmod@counter:
  1915                           	opt stack 0
  1916  0001FB                     DAC_Write@pump_setpoint:
  1917                           	opt stack 0
  1918                           
  1919                           ; 2 bytes @ 0x5
  1920  0001FB                     	ds	1
  1921  0001FC                     ??_BatteryMonitor:
  1922  0001FC                     ??_EngTempInit:
  1923  0001FC                     ??_AirTempMonitor:
  1924  0001FC                     ??_EngTempMonitor:
  1925  0001FC                     ??_EnterGenStateDrain:
  1926  0001FC                     ??_EnterGenStateWait:
  1927  0001FC                     ??___flpack:
  1928  0001FC                     ??_SCH_AddTask:
  1929  0001FC                     ADC_Init@config1:
  1930                           	opt stack 0
  1931  0001FC                     TMR1_Init@config1:
  1932                           	opt stack 0
  1933  0001FC                     TMR3_Init@config1:
  1934                           	opt stack 0
  1935  0001FC                     SPI_Init@smp_phase:
  1936                           	opt stack 0
  1937  0001FC                     LSD_FaultCommand@faultCommand:
  1938                           	opt stack 0
  1939                           
  1940                           ; 2 bytes @ 0x6
  1941  0001FC                     	ds	1
  1942  0001FD                     ??_CaptureInit:
  1943  0001FD                     ??_PWM_LS_Init:
  1944  0001FD                     SCH_AddTask@index:
  1945                           	opt stack 0
  1946  0001FD                     ADC_Init@config2:
  1947                           	opt stack 0
  1948  0001FD                     DAC_Write@config:
  1949                           	opt stack 0
  1950  0001FD                     EngTempInit@bufferIndex:
  1951                           	opt stack 0
  1952                           
  1953                           ; 1 bytes @ 0x7
  1954  0001FD                     	ds	1
  1955  0001FE                     ??_EnterGenStateInit:
  1956  0001FE                     ??___aldiv:
  1957  0001FE                     CaptureInit@config:
  1958                           	opt stack 0
  1959  0001FE                     ADC_Init@config3:
  1960                           	opt stack 0
  1961  0001FE                     DAC_Write@data_out_msb:
  1962                           	opt stack 0
  1963                           
  1964                           ; 1 bytes @ 0x8
  1965  0001FE                     	ds	1
  1966  0001FF                     BatteryMonitor@chargeSwitchState:
  1967                           	opt stack 0
  1968  0001FF                     DAC_Write@data_out_lsb:
  1969                           	opt stack 0
  1970                           
  1971                           ; 1 bytes @ 0x9
  1972  0001FF                     	ds	1
  1973  000200                     tblptru	equ	0xFF8
  1974                           tblptrh	equ	0xFF7
  1975                           tblptrl	equ	0xFF6
  1976                           tablat	equ	0xFF5
  1977                           postinc0	equ	0xFEE
  1978                           wreg	equ	0xFE8
  1979                           postdec1	equ	0xFE5
  1980                           fsr1h	equ	0xFE2
  1981                           fsr1l	equ	0xFE1
  1982                           
  1983                           ; 0 bytes @ 0xA
  1984                           
  1985                           	psect	cstackBANK0
  1986  0000C3                     __pcstackBANK0:
  1987                           	opt stack 0
  1988  0000C3                     ??i2_LinearInterpInit:
  1989  0000C3                     ?i2___flmul:
  1990                           	opt stack 0
  1991  0000C3                     i2___flmul@f1:
  1992                           	opt stack 0
  1993                           
  1994                           ; 4 bytes @ 0x0
  1995  0000C3                     	ds	4
  1996  0000C7                     i2LinearInterpInit@calWarnDetected:
  1997                           	opt stack 0
  1998  0000C7                     i2___flmul@f2:
  1999                           	opt stack 0
  2000                           
  2001                           ; 4 bytes @ 0x4
  2002  0000C7                     	ds	1
  2003  0000C8                     i2LinearInterpInit@delta_x_abs:
  2004                           	opt stack 0
  2005                           
  2006                           ; 2 bytes @ 0x5
  2007  0000C8                     	ds	2
  2008  0000CA                     i2LinearInterpInit@delta_y_abs:
  2009                           	opt stack 0
  2010                           
  2011                           ; 2 bytes @ 0x7
  2012  0000CA                     	ds	1
  2013  0000CB                     ??i2___flmul:
  2014                           
  2015                           ; 0 bytes @ 0x8
  2016  0000CB                     	ds	1
  2017  0000CC                     i2___flmul@exp:
  2018                           	opt stack 0
  2019  0000CC                     i2LinearInterpInit@delta_x:
  2020                           	opt stack 0
  2021                           
  2022                           ; 2 bytes @ 0x9
  2023  0000CC                     	ds	1
  2024  0000CD                     i2___flmul@f3_as_product:
  2025                           	opt stack 0
  2026                           
  2027                           ; 4 bytes @ 0xA
  2028  0000CD                     	ds	1
  2029  0000CE                     i2LinearInterpInit@max_slope:
  2030                           	opt stack 0
  2031                           
  2032                           ; 2 bytes @ 0xB
  2033  0000CE                     	ds	2
  2034  0000D0                     i2LinearInterpInit@delta_y:
  2035                           	opt stack 0
  2036                           
  2037                           ; 2 bytes @ 0xD
  2038  0000D0                     	ds	1
  2039  0000D1                     i2___flmul@cntr:
  2040                           	opt stack 0
  2041                           
  2042                           ; 1 bytes @ 0xE
  2043  0000D1                     	ds	1
  2044  0000D2                     i2___flmul@sign:
  2045                           	opt stack 0
  2046                           
  2047                           ; 1 bytes @ 0xF
  2048  0000D2                     	ds	1
  2049  0000D3                     ??_INJ_StartSequence:
  2050                           
  2051                           ; 0 bytes @ 0x10
  2052  0000D3                     	ds	4
  2053  0000D7                     ??_INJ_SetDutyCycle:
  2054                           
  2055                           ; 0 bytes @ 0x14
  2056  0000D7                     	ds	2
  2057  0000D9                     ??_high_isr:
  2058                           
  2059                           ; 0 bytes @ 0x16
  2060  0000D9                     	ds	14
  2061                           tblptru	equ	0xFF8
  2062                           tblptrh	equ	0xFF7
  2063                           tblptrl	equ	0xFF6
  2064                           tablat	equ	0xFF5
  2065                           postinc0	equ	0xFEE
  2066                           wreg	equ	0xFE8
  2067                           postdec1	equ	0xFE5
  2068                           fsr1h	equ	0xFE2
  2069                           fsr1l	equ	0xFE1
  2070                           
  2071                           	psect	cstackCOMRAM
  2072  000001                     __pcstackCOMRAM:
  2073                           	opt stack 0
  2074  000001                     ??_SCH_Update:
  2075  000001                     
  2076                           ; 1 bytes @ 0x0
  2077  000001                     	ds	4
  2078  000005                     SCH_Update@index:
  2079                           	opt stack 0
  2080                           
  2081                           ; 1 bytes @ 0x4
  2082  000005                     	ds	1
  2083  000006                     ??_low_isr:
  2084                           
  2085                           ; 0 bytes @ 0x5
  2086  000006                     	ds	17
  2087  000017                     ?i2_SelChanConvADC:
  2088                           	opt stack 0
  2089  000017                     ?i2___flge:
  2090                           	opt stack 0
  2091  000017                     ?_ReadECapture1:
  2092                           	opt stack 0
  2093  000017                     ?i2_ReadADC:
  2094                           	opt stack 0
  2095  000017                     ?i2_abs:
  2096                           	opt stack 0
  2097  000017                     ?___lmul:
  2098                           	opt stack 0
  2099  000017                     ?i2___aldiv:
  2100                           	opt stack 0
  2101  000017                     ?i2___flpack:
  2102                           	opt stack 0
  2103  000017                     i2SelChanConvADC@channel:
  2104                           	opt stack 0
  2105  000017                     i2abs@a:
  2106                           	opt stack 0
  2107  000017                     ___lmul@multiplier:
  2108                           	opt stack 0
  2109  000017                     i2___aldiv@dividend:
  2110                           	opt stack 0
  2111  000017                     i2___flpack@arg:
  2112                           	opt stack 0
  2113  000017                     i2___flge@ff1:
  2114                           	opt stack 0
  2115                           
  2116                           ; 4 bytes @ 0x16
  2117  000017                     	ds	1
  2118  000018                     ??i2_SelChanConvADC:
  2119                           
  2120                           ; 0 bytes @ 0x17
  2121  000018                     	ds	1
  2122  000019                     ??i2_abs:
  2123  000019                     ?i2_ADC_Convert:
  2124                           	opt stack 0
  2125  000019                     i2ADC_Convert@chan:
  2126                           	opt stack 0
  2127  000019                     ReadECapture1@Cap:
  2128                           	opt stack 0
  2129                           
  2130                           ; 2 bytes @ 0x18
  2131  000019                     	ds	2
  2132  00001B                     ??_GetIgnitionPeriod:
  2133  00001B                     i2___flpack@exp:
  2134                           	opt stack 0
  2135  00001B                     i2ADC_Convert@timeout:
  2136                           	opt stack 0
  2137  00001B                     ___lmul@multiplicand:
  2138                           	opt stack 0
  2139  00001B                     i2___aldiv@divisor:
  2140                           	opt stack 0
  2141  00001B                     i2___flge@ff2:
  2142                           	opt stack 0
  2143                           
  2144                           ; 4 bytes @ 0x1A
  2145  00001B                     	ds	1
  2146  00001C                     i2___flpack@sign:
  2147                           	opt stack 0
  2148                           
  2149                           ; 1 bytes @ 0x1B
  2150  00001C                     	ds	1
  2151  00001D                     ??i2___flpack:
  2152                           
  2153                           ; 0 bytes @ 0x1C
  2154  00001D                     	ds	2
  2155  00001F                     ??i2___aldiv:
  2156  00001F                     ??i2___flge:
  2157  00001F                     ___lmul@product:
  2158                           	opt stack 0
  2159                           
  2160                           ; 4 bytes @ 0x1E
  2161  00001F                     	ds	1
  2162  000020                     i2___aldiv@counter:
  2163                           	opt stack 0
  2164                           
  2165                           ; 1 bytes @ 0x1F
  2166  000020                     	ds	1
  2167  000021                     ?___fldiv:
  2168                           	opt stack 0
  2169  000021                     ?i2___fltol:
  2170                           	opt stack 0
  2171  000021                     i2___aldiv@sign:
  2172                           	opt stack 0
  2173  000021                     ___fldiv@f1:
  2174                           	opt stack 0
  2175  000021                     i2___fltol@f1:
  2176                           	opt stack 0
  2177                           
  2178                           ; 4 bytes @ 0x20
  2179  000021                     	ds	1
  2180  000022                     i2___aldiv@quotient:
  2181                           	opt stack 0
  2182                           
  2183                           ; 4 bytes @ 0x21
  2184  000022                     	ds	1
  2185  000023                     ?_LinearInterp:
  2186                           	opt stack 0
  2187  000023                     LinearInterp@d:
  2188                           	opt stack 0
  2189                           
  2190                           ; 2 bytes @ 0x22
  2191  000023                     	ds	2
  2192  000025                     ??i2___fltol:
  2193  000025                     LinearInterp@x:
  2194                           	opt stack 0
  2195  000025                     ___fldiv@f2:
  2196                           	opt stack 0
  2197                           
  2198                           ; 4 bytes @ 0x24
  2199  000025                     	ds	1
  2200  000026                     ?i2_LinearInterpInit:
  2201                           	opt stack 0
  2202  000026                     i2LinearInterpInit@d:
  2203                           	opt stack 0
  2204                           
  2205                           ; 2 bytes @ 0x25
  2206  000026                     	ds	1
  2207  000027                     ??_LinearInterp:
  2208                           
  2209                           ; 0 bytes @ 0x26
  2210  000027                     	ds	1
  2211  000028                     i2LinearInterpInit@x1:
  2212                           	opt stack 0
  2213                           
  2214                           ; 2 bytes @ 0x27
  2215  000028                     	ds	1
  2216  000029                     ??___fldiv:
  2217  000029                     i2___fltol@sign1:
  2218                           	opt stack 0
  2219                           
  2220                           ; 1 bytes @ 0x28
  2221  000029                     	ds	1
  2222  00002A                     i2___fltol@exp1:
  2223                           	opt stack 0
  2224  00002A                     i2LinearInterpInit@y1:
  2225                           	opt stack 0
  2226  00002A                     ___fldiv@f3:
  2227                           	opt stack 0
  2228                           
  2229                           ; 4 bytes @ 0x29
  2230  00002A                     	ds	2
  2231  00002C                     LinearInterp@y:
  2232                           	opt stack 0
  2233  00002C                     i2LinearInterpInit@x2:
  2234                           	opt stack 0
  2235                           
  2236                           ; 2 bytes @ 0x2B
  2237  00002C                     	ds	2
  2238  00002E                     ?i2___awtofl:
  2239                           	opt stack 0
  2240  00002E                     ___fldiv@cntr:
  2241                           	opt stack 0
  2242  00002E                     i2LinearInterpInit@y2:
  2243                           	opt stack 0
  2244  00002E                     i2___awtofl@c:
  2245                           	opt stack 0
  2246                           
  2247                           ; 2 bytes @ 0x2D
  2248  00002E                     	ds	1
  2249  00002F                     ___fldiv@exp:
  2250                           	opt stack 0
  2251                           
  2252                           ; 1 bytes @ 0x2E
  2253  00002F                     	ds	1
  2254  000030                     ___fldiv@sign:
  2255                           	opt stack 0
  2256  000030                     i2LinearInterpInit@q_slope:
  2257                           	opt stack 0
  2258                           
  2259                           ; 2 bytes @ 0x2F
  2260  000030                     	ds	2
  2261  000032                     ??i2___awtofl:
  2262                           
  2263                           ; 0 bytes @ 0x31
  2264  000032                     	ds	1
  2265  000033                     i2___awtofl@sign:
  2266                           	opt stack 0
  2267                           
  2268                           ; 1 bytes @ 0x32
  2269  000033                     	ds	1
  2270                           tblptru	equ	0xFF8
  2271                           tblptrh	equ	0xFF7
  2272                           tblptrl	equ	0xFF6
  2273                           tablat	equ	0xFF5
  2274                           postinc0	equ	0xFEE
  2275                           wreg	equ	0xFE8
  2276                           postdec1	equ	0xFE5
  2277                           fsr1h	equ	0xFE2
  2278                           fsr1l	equ	0xFE1
  2279                           
  2280 ;;
  2281 ;;Main: autosize = 0, tempsize = 0, incstack = 0, save=0
  2282 ;;
  2283 ;; *************** function _main *****************
  2284 ;; Defined at:
  2285 ;;		line 13 in file "main.c"
  2286 ;; Parameters:    Size  Location     Type
  2287 ;;		None
  2288 ;; Auto vars:     Size  Location     Type
  2289 ;;		None
  2290 ;; Return value:  Size  Location     Type
  2291 ;;		None               void
  2292 ;; Registers used:
  2293 ;;		wreg, fsr0l, fsr0h, fsr1l, fsr1h, fsr1l, fsr1h, fsr2l, fsr2h, status,2, status,0, pclat, btemp, btemp+1, btemp+2, bt
      +emp+3, btemp+4, btemp+5, btemp+6, btemp+7, tosl, structret, tblptrl, tblptrh, tblptru, prodl, prodh, bsr, cstack
  2294 ;; Tracked objects:
  2295 ;;		On entry : 0/0
  2296 ;;		On exit  : 0/0
  2297 ;;		Unchanged: 0/0
  2298 ;; Data sizes:     COMRAM   BANK0   BANK1   BANK2   BANK3   BANK4   BANK5
  2299 ;;      Params:         0       0       0       0       0       0       0
  2300 ;;      Locals:         0       0       0       0       0       0       0
  2301 ;;      Temps:          0       0       0       0       0       0       0
  2302 ;;      Totals:         0       0       0       0       0       0       0
  2303 ;;Total ram usage:        0 bytes
  2304 ;; Hardware stack levels required when called:   16
  2305 ;; This function calls:
  2306 ;;		_ConfigureOscillator
  2307 ;;		_InitApp
  2308 ;;		_SCH_DispatchTasks
  2309 ;; This function is called by:
  2310 ;;		Startup code after reset
  2311 ;; This function uses a non-reentrant model
  2312 ;;
  2313                           
  2314                           	psect	text0
  2315  004CAA                     __ptext0:
  2316                           	opt stack 0
  2317  004CAA                     _main:
  2318                           	opt stack 15
  2319                           
  2320                           ;main.c: 15: ConfigureOscillator();
  2321                           
  2322                           ;incstack = 0
  2323                           ;incstack = 0
  2324  004CAA  EC6E  F026         	call	_ConfigureOscillator	;wreg free
  2325                           
  2326                           ;main.c: 17: InitApp();
  2327  004CAE  ECE7  F01A         	call	_InitApp	;wreg free
  2328  004CB2                     l7796:
  2329                           
  2330                           ;main.c: 20: SCH_DispatchTasks();
  2331  004CB2  EC2C  F01C         	call	_SCH_DispatchTasks	;wreg free
  2332  004CB6  D7FD               	goto	l7796
  2333  004CB8                     __end_of_main:
  2334                           	opt stack 0
  2335                           tblptru	equ	0xFF8
  2336                           tblptrh	equ	0xFF7
  2337                           tblptrl	equ	0xFF6
  2338                           tablat	equ	0xFF5
  2339                           postinc0	equ	0xFEE
  2340                           wreg	equ	0xFE8
  2341                           postdec1	equ	0xFE5
  2342                           fsr1h	equ	0xFE2
  2343                           fsr1l	equ	0xFE1
  2344                           
  2345 ;; *************** function _SCH_DispatchTasks *****************
  2346 ;; Defined at:
  2347 ;;		line 72 in file "scheduler.c"
  2348 ;; Parameters:    Size  Location     Type
  2349 ;;		None
  2350 ;; Auto vars:     Size  Location     Type
  2351 ;;  index           1   36[BANK2 ] unsigned char 
  2352 ;; Return value:  Size  Location     Type
  2353 ;;		None               void
  2354 ;; Registers used:
  2355 ;;		wreg, fsr0l, fsr0h, fsr1l, fsr1h, fsr1l, fsr1h, fsr2l, fsr2h, status,2, status,0, pclat, btemp, btemp+1, btemp+2, bt
      +emp+3, btemp+4, btemp+5, btemp+6, btemp+7, tosl, structret, tblptrl, tblptrh, tblptru, prodl, prodh, bsr, cstack
  2356 ;; Tracked objects:
  2357 ;;		On entry : 0/0
  2358 ;;		On exit  : 0/0
  2359 ;;		Unchanged: 0/0
  2360 ;; Data sizes:     COMRAM   BANK0   BANK1   BANK2   BANK3   BANK4   BANK5
  2361 ;;      Params:         0       0       0       0       0       0       0
  2362 ;;      Locals:         0       0       0       1       0       0       0
  2363 ;;      Temps:          0       0       0       1       0       0       0
  2364 ;;      Totals:         0       0       0       2       0       0       0
  2365 ;;Total ram usage:        2 bytes
  2366 ;; Hardware stack levels used:    1
  2367 ;; Hardware stack levels required when called:   15
  2368 ;; This function calls:
  2369 ;;		_SCH_DeleteTask
  2370 ;;		Absolute function
  2371 ;;		_GenControl
  2372 ;;		_BatteryMonitor
  2373 ;;		_DAC_Write
  2374 ;;		_EngTempControl
  2375 ;; This function is called by:
  2376 ;;		_main
  2377 ;; This function uses a non-reentrant model
  2378 ;;
  2379                           
  2380                           	psect	text1
  2381  003858                     __ptext1:
  2382                           	opt stack 0
  2383  003858                     _SCH_DispatchTasks:
  2384                           	opt stack 15
  2385                           
  2386                           ;scheduler.c: 73: uint8_t index;
  2387                           ;scheduler.c: 75: for(index = 0; index < (4); index++){
  2388                           
  2389                           ;incstack = 0
  2390                           ;incstack = 0
  2391  003858  0102               	movlb	2	; () banked
  2392  00385A  6FA3               	movwf	??_SCH_DispatchTasks& (0+255),b
  2393  00385C  0E00               	movlw	0
  2394  00385E  0102               	movlb	2	; () banked
  2395  003860  0102               	movlb	2	; () banked
  2396  003862  6FA4               	movwf	SCH_DispatchTasks@index& (0+255),b
  2397  003864  0102               	movlb	2	; () banked
  2398  003866  51A3               	movf	??_SCH_DispatchTasks& (0+255),w,b
  2399                           
  2400                           ; BSR set to: 2
  2401  003868  0E03               	movlw	3
  2402  00386A  0102               	movlb	2	; () banked
  2403  00386C  0102               	movlb	2	; () banked
  2404  00386E  65A4               	cpfsgt	SCH_DispatchTasks@index& (0+255),b
  2405  003870  D001               	goto	l7830
  2406  003872  0012               	return	
  2407  003874                     l7830:
  2408                           
  2409                           ; BSR set to: 2
  2410                           ;scheduler.c: 76: if(SCH_Tasks[index].TaskReady > 0){
  2411  003874  0102               	movlb	2	; () banked
  2412  003876  0102               	movlb	2	; () banked
  2413  003878  51A4               	movf	SCH_DispatchTasks@index& (0+255),w,b
  2414  00387A  0D07               	mullw	7
  2415  00387C  0E06               	movlw	6
  2416  00387E  26F3               	addwf	prodl,f,c
  2417  003880  0E00               	movlw	0
  2418  003882  22F4               	addwfc	prodh,f,c
  2419  003884  0101               	movlb	1	; () banked
  2420  003886  0E20               	movlw	low _SCH_Tasks
  2421  003888  24F3               	addwf	prodl,w,c
  2422  00388A  6ED9               	movwf	fsr2l,c
  2423  00388C  0101               	movlb	1	; () banked
  2424  00388E  0E01               	movlw	high _SCH_Tasks
  2425  003890  20F4               	addwfc	prodh,w,c
  2426  003892  6EDA               	movwf	fsr2h,c
  2427  003894  50DF               	movf	indf2,w,c
  2428  003896  B4D8               	btfsc	status,2,c
  2429  003898  D041               	goto	l7840
  2430                           
  2431                           ; BSR set to: 1
  2432                           ;scheduler.c: 77: (*SCH_Tasks[index].pTask)();
  2433  00389A  0102               	movlb	2	; () banked
  2434  00389C  0102               	movlb	2	; () banked
  2435  00389E  51A4               	movf	SCH_DispatchTasks@index& (0+255),w,b
  2436  0038A0  0D07               	mullw	7
  2437  0038A2  0101               	movlb	1	; () banked
  2438  0038A4  0E20               	movlw	low _SCH_Tasks
  2439  0038A6  24F3               	addwf	prodl,w,c
  2440  0038A8  6ED9               	movwf	fsr2l,c
  2441  0038AA  0101               	movlb	1	; () banked
  2442  0038AC  0E01               	movlw	high _SCH_Tasks
  2443  0038AE  20F4               	addwfc	prodh,w,c
  2444  0038B0  6EDA               	movwf	fsr2h,c
  2445  0038B2  D801               	call	u5738
  2446  0038B4  D00A               	goto	u5739
  2447  0038B6                     u5738:
  2448  0038B6  0005               	push	
  2449  0038B8  6EFA               	movwf	pclath,c
  2450  0038BA  50DE               	movf	postinc2,w,c
  2451  0038BC  6EFD               	movwf	tosl,c
  2452  0038BE  50DE               	movf	postinc2,w,c
  2453  0038C0  6EFE               	movwf	tosh,c
  2454  0038C2  50F8               	movf	tblptru,w,c
  2455  0038C4  6EFF               	movwf	tosu,c
  2456  0038C6  50FA               	movf	pclath,w,c
  2457  0038C8  0012               	return		;indir
  2458  0038CA                     u5739:
  2459                           
  2460                           ;scheduler.c: 78: SCH_Tasks[index].TaskReady -= 1;
  2461  0038CA  0102               	movlb	2	; () banked
  2462  0038CC  0102               	movlb	2	; () banked
  2463  0038CE  51A4               	movf	SCH_DispatchTasks@index& (0+255),w,b
  2464  0038D0  0D07               	mullw	7
  2465  0038D2  0E06               	movlw	6
  2466  0038D4  26F3               	addwf	prodl,f,c
  2467  0038D6  0E00               	movlw	0
  2468  0038D8  22F4               	addwfc	prodh,f,c
  2469  0038DA  0101               	movlb	1	; () banked
  2470  0038DC  0E20               	movlw	low _SCH_Tasks
  2471  0038DE  24F3               	addwf	prodl,w,c
  2472  0038E0  6ED9               	movwf	fsr2l,c
  2473  0038E2  0101               	movlb	1	; () banked
  2474  0038E4  0E01               	movlw	high _SCH_Tasks
  2475  0038E6  20F4               	addwfc	prodh,w,c
  2476  0038E8  6EDA               	movwf	fsr2h,c
  2477  0038EA  06DF               	decf	indf2,f,c
  2478                           
  2479                           ; BSR set to: 1
  2480                           ;scheduler.c: 80: if(SCH_Tasks[index].Period == 0){
  2481  0038EC  0102               	movlb	2	; () banked
  2482  0038EE  0102               	movlb	2	; () banked
  2483  0038F0  51A4               	movf	SCH_DispatchTasks@index& (0+255),w,b
  2484  0038F2  0D07               	mullw	7
  2485  0038F4  0E04               	movlw	4
  2486  0038F6  26F3               	addwf	prodl,f,c
  2487  0038F8  0E00               	movlw	0
  2488  0038FA  22F4               	addwfc	prodh,f,c
  2489  0038FC  0101               	movlb	1	; () banked
  2490  0038FE  0E20               	movlw	low _SCH_Tasks
  2491  003900  24F3               	addwf	prodl,w,c
  2492  003902  6ED9               	movwf	fsr2l,c
  2493  003904  0101               	movlb	1	; () banked
  2494  003906  0E01               	movlw	high _SCH_Tasks
  2495  003908  20F4               	addwfc	prodh,w,c
  2496  00390A  6EDA               	movwf	fsr2h,c
  2497  00390C  50DE               	movf	postinc2,w,c
  2498  00390E  10DD               	iorwf	postdec2,w,c
  2499  003910  A4D8               	btfss	status,2,c
  2500  003912  D004               	goto	l7840
  2501                           
  2502                           ; BSR set to: 1
  2503                           ;scheduler.c: 81: SCH_DeleteTask(index);
  2504  003914  C2A4  F1F6         	movff	SCH_DispatchTasks@index,?_SCH_DeleteTask
  2505  003918  EC0B  F01A         	call	_SCH_DeleteTask	;wreg free
  2506  00391C                     l7840:
  2507  00391C  0102               	movlb	2	; () banked
  2508  00391E  0102               	movlb	2	; () banked
  2509  003920  2BA4               	incf	SCH_DispatchTasks@index& (0+255),f,b
  2510                           
  2511                           ; BSR set to: 2
  2512  003922  0E03               	movlw	3
  2513  003924  0102               	movlb	2	; () banked
  2514  003926  0102               	movlb	2	; () banked
  2515  003928  65A4               	cpfsgt	SCH_DispatchTasks@index& (0+255),b
  2516  00392A  D7A4               	goto	l7830
  2517  00392C  0012               	return	
  2518  00392E                     __end_of_SCH_DispatchTasks:
  2519                           	opt stack 0
  2520                           tosu	equ	0xFFF
  2521                           tosh	equ	0xFFE
  2522                           tosl	equ	0xFFD
  2523                           pclath	equ	0xFFA
  2524                           tblptru	equ	0xFF8
  2525                           tblptrh	equ	0xFF7
  2526                           tblptrl	equ	0xFF6
  2527                           tablat	equ	0xFF5
  2528                           prodh	equ	0xFF4
  2529                           prodl	equ	0xFF3
  2530                           postinc0	equ	0xFEE
  2531                           wreg	equ	0xFE8
  2532                           postdec1	equ	0xFE5
  2533                           fsr1h	equ	0xFE2
  2534                           fsr1l	equ	0xFE1
  2535                           indf2	equ	0xFDF
  2536                           postinc2	equ	0xFDE
  2537                           postdec2	equ	0xFDD
  2538                           fsr2h	equ	0xFDA
  2539                           fsr2l	equ	0xFD9
  2540                           status	equ	0xFD8
  2541                           
  2542 ;; *************** function _DAC_Write *****************
  2543 ;; Defined at:
  2544 ;;		line 92 in file "dac.c"
  2545 ;; Parameters:    Size  Location     Type
  2546 ;;		None
  2547 ;; Auto vars:     Size  Location     Type
  2548 ;;  pump_setpoin    2    5[BANK1 ] unsigned int 
  2549 ;;  data_out_lsb    1    9[BANK1 ] unsigned char 
  2550 ;;  data_out_msb    1    8[BANK1 ] unsigned char 
  2551 ;;  config          1    7[BANK1 ] unsigned char 
  2552 ;; Return value:  Size  Location     Type
  2553 ;;		None               void
  2554 ;; Registers used:
  2555 ;;		wreg, status,2, status,0, cstack
  2556 ;; Tracked objects:
  2557 ;;		On entry : 0/0
  2558 ;;		On exit  : 0/0
  2559 ;;		Unchanged: 0/0
  2560 ;; Data sizes:     COMRAM   BANK0   BANK1   BANK2   BANK3   BANK4   BANK5
  2561 ;;      Params:         0       0       0       0       0       0       0
  2562 ;;      Locals:         0       0       5       0       0       0       0
  2563 ;;      Temps:          0       0       3       0       0       0       0
  2564 ;;      Totals:         0       0       8       0       0       0       0
  2565 ;;Total ram usage:        8 bytes
  2566 ;; Hardware stack levels used:    1
  2567 ;; Hardware stack levels required when called:    8
  2568 ;; This function calls:
  2569 ;;		_WriteSPI1
  2570 ;; This function is called by:
  2571 ;;		_InitApp
  2572 ;;		_SCH_DispatchTasks
  2573 ;; This function uses a non-reentrant model
  2574 ;;
  2575                           
  2576                           	psect	text2
  2577  002AE0                     __ptext2:
  2578                           	opt stack 0
  2579  002AE0                     _DAC_Write:
  2580                           	opt stack 21
  2581                           
  2582                           ;dac.c: 93: uint8_t config = 0x00;
  2583                           
  2584                           ; BSR set to: 2
  2585                           ;incstack = 0
  2586                           ;incstack = 0
  2587  002AE0  0101               	movlb	1	; () banked
  2588  002AE2  6FF8               	movwf	??_DAC_Write& (0+255),b
  2589  002AE4  0E00               	movlw	0
  2590  002AE6  0101               	movlb	1	; () banked
  2591  002AE8  0101               	movlb	1	; () banked
  2592  002AEA  6FFD               	movwf	DAC_Write@config& (0+255),b
  2593  002AEC  0101               	movlb	1	; () banked
  2594  002AEE  51F8               	movf	??_DAC_Write& (0+255),w,b
  2595                           
  2596                           ; BSR set to: 1
  2597                           ;dac.c: 94: uint16_t pump_setpoint = DAC_Code;
  2598  002AF0  C070  F1FB         	movff	_DAC_Code,DAC_Write@pump_setpoint
  2599  002AF4  C071  F1FC         	movff	_DAC_Code+1,DAC_Write@pump_setpoint+1
  2600                           
  2601                           ;dac.c: 95: uint8_t data_out_msb = 0x00;
  2602  002AF8  0101               	movlb	1	; () banked
  2603  002AFA  6FF8               	movwf	??_DAC_Write& (0+255),b
  2604  002AFC  0E00               	movlw	0
  2605  002AFE  0101               	movlb	1	; () banked
  2606  002B00  0101               	movlb	1	; () banked
  2607  002B02  6FFE               	movwf	DAC_Write@data_out_msb& (0+255),b
  2608  002B04  0101               	movlb	1	; () banked
  2609  002B06  51F8               	movf	??_DAC_Write& (0+255),w,b
  2610                           
  2611                           ;dac.c: 96: uint8_t data_out_lsb = 0x00;
  2612  002B08  0101               	movlb	1	; () banked
  2613  002B0A  6FF8               	movwf	??_DAC_Write& (0+255),b
  2614  002B0C  0E00               	movlw	0
  2615  002B0E  0101               	movlb	1	; () banked
  2616  002B10  0101               	movlb	1	; () banked
  2617  002B12  6FFF               	movwf	DAC_Write@data_out_lsb& (0+255),b
  2618  002B14  0101               	movlb	1	; () banked
  2619  002B16  51F8               	movf	??_DAC_Write& (0+255),w,b
  2620                           
  2621                           ;dac.c: 98: config = 0b10000000 | 0b00000000 | 0b00100000 | 0b00010000;
  2622  002B18  0101               	movlb	1	; () banked
  2623  002B1A  6FF8               	movwf	??_DAC_Write& (0+255),b
  2624  002B1C  0EB0               	movlw	176
  2625  002B1E  0101               	movlb	1	; () banked
  2626  002B20  0101               	movlb	1	; () banked
  2627  002B22  6FFD               	movwf	DAC_Write@config& (0+255),b
  2628  002B24  0101               	movlb	1	; () banked
  2629  002B26  51F8               	movf	??_DAC_Write& (0+255),w,b
  2630                           
  2631                           ; BSR set to: 1
  2632                           ;dac.c: 99: data_out_msb = config | ((CAG_Offset >> 6) & 0xF);
  2633  002B28  0100               	movlb	0	; () banked
  2634  002B2A  C06C  F1F8         	movff	_CAG_Offset,??_DAC_Write
  2635  002B2E  0100               	movlb	0	; () banked
  2636  002B30  C06D  F1F9         	movff	_CAG_Offset+1,??_DAC_Write+1
  2637  002B34  0E06               	movlw	6
  2638  002B36  0101               	movlb	1	; () banked
  2639  002B38  6FFA               	movwf	(??_DAC_Write+2)& (0+255),b
  2640  002B3A                     u6885:
  2641  002B3A  0101               	movlb	1	; () banked
  2642  002B3C  90D8               	bcf	status,0,c
  2643  002B3E  33F9               	rrcf	(??_DAC_Write+1)& (0+255),f,b
  2644  002B40  33F8               	rrcf	??_DAC_Write& (0+255),f,b
  2645  002B42  0101               	movlb	1	; () banked
  2646  002B44  2FFA               	decfsz	(??_DAC_Write+2)& (0+255),f,b
  2647  002B46  D7F9               	goto	u6885
  2648  002B48  0101               	movlb	1	; () banked
  2649  002B4A  51F8               	movf	??_DAC_Write& (0+255),w,b
  2650  002B4C  0B0F               	andlw	15
  2651  002B4E  0101               	movlb	1	; () banked
  2652  002B50  0101               	movlb	1	; () banked
  2653  002B52  11FD               	iorwf	DAC_Write@config& (0+255),w,b
  2654  002B54  0101               	movlb	1	; () banked
  2655  002B56  0101               	movlb	1	; () banked
  2656  002B58  6FFE               	movwf	DAC_Write@data_out_msb& (0+255),b
  2657                           
  2658                           ; BSR set to: 1
  2659                           ;dac.c: 100: data_out_lsb = (CAG_Offset << 2) & 0xFF;
  2660  002B5A  0100               	movlb	0	; () banked
  2661  002B5C  0100               	movlb	0	; () banked
  2662  002B5E  456C               	rlncf	_CAG_Offset& (0+255),w,b
  2663  002B60  46E8               	rlncf	wreg,f,c
  2664  002B62  0BFC               	andlw	252
  2665  002B64  0101               	movlb	1	; () banked
  2666  002B66  0101               	movlb	1	; () banked
  2667  002B68  6FFF               	movwf	DAC_Write@data_out_lsb& (0+255),b
  2668                           
  2669                           ; BSR set to: 1
  2670                           
  2671                           ; BSR set to: 1
  2672                           
  2673                           ;dac.c: 102: do {LATBbits.LATB4 = 0;} while(0);
  2674  002B6A  988A               	bcf	3978,4,c	;volatile
  2675                           
  2676                           ; BSR set to: 1
  2677                           ;dac.c: 103: WriteSPI1(data_out_msb);
  2678                           
  2679                           ; BSR set to: 1
  2680  002B6C  C1FE  F1F6         	movff	DAC_Write@data_out_msb,?_WriteSPI1
  2681  002B70  EC06  F026         	call	_WriteSPI1	;wreg free
  2682                           
  2683                           ;dac.c: 104: WriteSPI1(data_out_lsb);
  2684  002B74  C1FF  F1F6         	movff	DAC_Write@data_out_lsb,?_WriteSPI1
  2685  002B78  EC06  F026         	call	_WriteSPI1	;wreg free
  2686                           
  2687                           ;dac.c: 105: do {LATBbits.LATB4 = 1;} while(0);
  2688  002B7C  888A               	bsf	3978,4,c	;volatile
  2689                           
  2690                           ;dac.c: 108: config = 0x00;
  2691  002B7E  0101               	movlb	1	; () banked
  2692  002B80  6FF8               	movwf	??_DAC_Write& (0+255),b
  2693  002B82  0E00               	movlw	0
  2694  002B84  0101               	movlb	1	; () banked
  2695  002B86  0101               	movlb	1	; () banked
  2696  002B88  6FFD               	movwf	DAC_Write@config& (0+255),b
  2697  002B8A  0101               	movlb	1	; () banked
  2698  002B8C  51F8               	movf	??_DAC_Write& (0+255),w,b
  2699                           
  2700                           ;dac.c: 109: data_out_msb = 0x00;
  2701  002B8E  0101               	movlb	1	; () banked
  2702  002B90  6FF8               	movwf	??_DAC_Write& (0+255),b
  2703  002B92  0E00               	movlw	0
  2704  002B94  0101               	movlb	1	; () banked
  2705  002B96  0101               	movlb	1	; () banked
  2706  002B98  6FFE               	movwf	DAC_Write@data_out_msb& (0+255),b
  2707  002B9A  0101               	movlb	1	; () banked
  2708  002B9C  51F8               	movf	??_DAC_Write& (0+255),w,b
  2709                           
  2710                           ;dac.c: 110: data_out_lsb = 0x00;
  2711  002B9E  0101               	movlb	1	; () banked
  2712  002BA0  6FF8               	movwf	??_DAC_Write& (0+255),b
  2713  002BA2  0E00               	movlw	0
  2714  002BA4  0101               	movlb	1	; () banked
  2715  002BA6  0101               	movlb	1	; () banked
  2716  002BA8  6FFF               	movwf	DAC_Write@data_out_lsb& (0+255),b
  2717  002BAA  0101               	movlb	1	; () banked
  2718  002BAC  51F8               	movf	??_DAC_Write& (0+255),w,b
  2719                           
  2720                           ;dac.c: 111: config = 0b00000000 | 0b00000000 | 0b00100000 | 0b00010000;
  2721  002BAE  0101               	movlb	1	; () banked
  2722  002BB0  6FF8               	movwf	??_DAC_Write& (0+255),b
  2723  002BB2  0E30               	movlw	48
  2724  002BB4  0101               	movlb	1	; () banked
  2725  002BB6  0101               	movlb	1	; () banked
  2726  002BB8  6FFD               	movwf	DAC_Write@config& (0+255),b
  2727  002BBA  0101               	movlb	1	; () banked
  2728  002BBC  51F8               	movf	??_DAC_Write& (0+255),w,b
  2729                           
  2730                           ; BSR set to: 1
  2731                           ;dac.c: 112: data_out_msb = config | (pump_setpoint >> 6);
  2732  002BBE  0101               	movlb	1	; () banked
  2733  002BC0  C1FB  F1F8         	movff	DAC_Write@pump_setpoint,??_DAC_Write
  2734  002BC4  0101               	movlb	1	; () banked
  2735  002BC6  C1FC  F1F9         	movff	DAC_Write@pump_setpoint+1,??_DAC_Write+1
  2736  002BCA  0E06               	movlw	6
  2737  002BCC  0101               	movlb	1	; () banked
  2738  002BCE  6FFA               	movwf	(??_DAC_Write+2)& (0+255),b
  2739  002BD0                     u6895:
  2740  002BD0  0101               	movlb	1	; () banked
  2741  002BD2  90D8               	bcf	status,0,c
  2742  002BD4  33F9               	rrcf	(??_DAC_Write+1)& (0+255),f,b
  2743  002BD6  33F8               	rrcf	??_DAC_Write& (0+255),f,b
  2744  002BD8  0101               	movlb	1	; () banked
  2745  002BDA  2FFA               	decfsz	(??_DAC_Write+2)& (0+255),f,b
  2746  002BDC  D7F9               	goto	u6895
  2747  002BDE  0101               	movlb	1	; () banked
  2748  002BE0  51F8               	movf	??_DAC_Write& (0+255),w,b
  2749  002BE2  0101               	movlb	1	; () banked
  2750  002BE4  0101               	movlb	1	; () banked
  2751  002BE6  11FD               	iorwf	DAC_Write@config& (0+255),w,b
  2752  002BE8  0101               	movlb	1	; () banked
  2753  002BEA  0101               	movlb	1	; () banked
  2754  002BEC  6FFE               	movwf	DAC_Write@data_out_msb& (0+255),b
  2755                           
  2756                           ; BSR set to: 1
  2757                           ;dac.c: 113: data_out_lsb = (pump_setpoint << 2) & 0xFF;
  2758  002BEE  0101               	movlb	1	; () banked
  2759  002BF0  0101               	movlb	1	; () banked
  2760  002BF2  45FB               	rlncf	DAC_Write@pump_setpoint& (0+255),w,b
  2761  002BF4  46E8               	rlncf	wreg,f,c
  2762  002BF6  0BFC               	andlw	252
  2763  002BF8  0101               	movlb	1	; () banked
  2764  002BFA  0101               	movlb	1	; () banked
  2765  002BFC  6FFF               	movwf	DAC_Write@data_out_lsb& (0+255),b
  2766                           
  2767                           ; BSR set to: 1
  2768                           
  2769                           ; BSR set to: 1
  2770                           
  2771                           ;dac.c: 115: do {LATBbits.LATB4 = 0;} while(0);
  2772  002BFE  988A               	bcf	3978,4,c	;volatile
  2773                           
  2774                           ; BSR set to: 1
  2775                           ;dac.c: 116: WriteSPI1(data_out_msb);
  2776                           
  2777                           ; BSR set to: 1
  2778  002C00  C1FE  F1F6         	movff	DAC_Write@data_out_msb,?_WriteSPI1
  2779  002C04  EC06  F026         	call	_WriteSPI1	;wreg free
  2780                           
  2781                           ;dac.c: 117: WriteSPI1(data_out_lsb);
  2782  002C08  C1FF  F1F6         	movff	DAC_Write@data_out_lsb,?_WriteSPI1
  2783  002C0C  EC06  F026         	call	_WriteSPI1	;wreg free
  2784                           
  2785                           ;dac.c: 118: do {LATBbits.LATB4 = 1;} while(0);
  2786  002C10  888A               	bsf	3978,4,c	;volatile
  2787  002C12  0012               	return	
  2788  002C14                     __end_of_DAC_Write:
  2789                           	opt stack 0
  2790                           tosu	equ	0xFFF
  2791                           tosh	equ	0xFFE
  2792                           tosl	equ	0xFFD
  2793                           pclath	equ	0xFFA
  2794                           tblptru	equ	0xFF8
  2795                           tblptrh	equ	0xFF7
  2796                           tblptrl	equ	0xFF6
  2797                           tablat	equ	0xFF5
  2798                           prodh	equ	0xFF4
  2799                           prodl	equ	0xFF3
  2800                           postinc0	equ	0xFEE
  2801                           wreg	equ	0xFE8
  2802                           postdec1	equ	0xFE5
  2803                           fsr1h	equ	0xFE2
  2804                           fsr1l	equ	0xFE1
  2805                           indf2	equ	0xFDF
  2806                           postinc2	equ	0xFDE
  2807                           postdec2	equ	0xFDD
  2808                           fsr2h	equ	0xFDA
  2809                           fsr2l	equ	0xFD9
  2810                           status	equ	0xFD8
  2811                           
  2812 ;; *************** function _BatteryMonitor *****************
  2813 ;; Defined at:
  2814 ;;		line 43 in file "battery.c"
  2815 ;; Parameters:    Size  Location     Type
  2816 ;;		None
  2817 ;; Auto vars:     Size  Location     Type
  2818 ;;  chargeSwitch    1    9[BANK1 ] unsigned char 
  2819 ;; Return value:  Size  Location     Type
  2820 ;;		None               void
  2821 ;; Registers used:
  2822 ;;		wreg, status,2, status,0, cstack
  2823 ;; Tracked objects:
  2824 ;;		On entry : 0/0
  2825 ;;		On exit  : 0/0
  2826 ;;		Unchanged: 0/0
  2827 ;; Data sizes:     COMRAM   BANK0   BANK1   BANK2   BANK3   BANK4   BANK5
  2828 ;;      Params:         0       0       0       0       0       0       0
  2829 ;;      Locals:         0       0       1       0       0       0       0
  2830 ;;      Temps:          0       0       3       0       0       0       0
  2831 ;;      Totals:         0       0       4       0       0       0       0
  2832 ;;Total ram usage:        4 bytes
  2833 ;; Hardware stack levels used:    1
  2834 ;; Hardware stack levels required when called:    9
  2835 ;; This function calls:
  2836 ;;		_ADC_Convert
  2837 ;; This function is called by:
  2838 ;;		_InitApp
  2839 ;;		_SCH_DispatchTasks
  2840 ;; This function uses a non-reentrant model
  2841 ;;
  2842                           
  2843                           	psect	text3
  2844  0034F4                     __ptext3:
  2845                           	opt stack 0
  2846  0034F4                     _BatteryMonitor:
  2847                           	opt stack 20
  2848                           
  2849                           ;battery.c: 44: bool chargeSwitchState = (bool)(LATDbits.LATD6);
  2850                           
  2851                           ;incstack = 0
  2852                           ;incstack = 0
  2853  0034F4  0E00               	movlw	0
  2854  0034F6  BC8C               	btfsc	3980,6,c	;volatile
  2855  0034F8  0E01               	movlw	1
  2856  0034FA  0101               	movlb	1	; () banked
  2857  0034FC  0101               	movlb	1	; () banked
  2858  0034FE  6FFF               	movwf	BatteryMonitor@chargeSwitchState& (0+255),b
  2859                           
  2860                           ; BSR set to: 1
  2861                           
  2862                           ; BSR set to: 1
  2863                           
  2864                           ;battery.c: 45: do {LATDbits.LATD6 = 0;} while(0);
  2865  003500  9C8C               	bcf	3980,6,c	;volatile
  2866                           
  2867                           ; BSR set to: 1
  2868                           ;battery.c: 46: BattTempCompOffset=0;
  2869                           
  2870                           ; BSR set to: 1
  2871  003502  0E00               	movlw	0
  2872  003504  0100               	movlb	0	; () banked
  2873  003506  0100               	movlb	0	; () banked
  2874  003508  6F9B               	movwf	(_BattTempCompOffset+1)& (0+255),b
  2875  00350A  0E00               	movlw	0
  2876  00350C  0100               	movlb	0	; () banked
  2877  00350E  6F9A               	movwf	_BattTempCompOffset& (0+255),b
  2878                           
  2879                           ; BSR set to: 0
  2880                           ;battery.c: 53: VsenseBattADC = ADC_Convert(0b10010111);
  2881  003510  0101               	movlb	1	; () banked
  2882  003512  6FFC               	movwf	??_BatteryMonitor& (0+255),b
  2883  003514  0E97               	movlw	151
  2884  003516  0101               	movlb	1	; () banked
  2885  003518  0101               	movlb	1	; () banked
  2886  00351A  6FF8               	movwf	?_ADC_Convert& (0+255),b
  2887  00351C  0101               	movlb	1	; () banked
  2888  00351E  51FC               	movf	??_BatteryMonitor& (0+255),w,b
  2889  003520  ECDE  F024         	call	_ADC_Convert	;wreg free
  2890  003524  0101               	movlb	1	; () banked
  2891  003526  C1F8  F0AE         	movff	?_ADC_Convert,_VsenseBattADC
  2892  00352A  0101               	movlb	1	; () banked
  2893  00352C  C1F9  F0AF         	movff	?_ADC_Convert+1,_VsenseBattADC+1
  2894                           
  2895                           ; BSR set to: 1
  2896                           ;battery.c: 54: if(VsenseBattADC > (BattVolt25C_Hi + BattTempCompOffset)){
  2897  003530  0100               	movlb	0	; () banked
  2898  003532  C068  F1FC         	movff	_BattVolt25C_Hi,??_BatteryMonitor
  2899  003536  0100               	movlb	0	; () banked
  2900  003538  C069  F1FD         	movff	_BattVolt25C_Hi+1,??_BatteryMonitor+1
  2901  00353C  0100               	movlb	0	; () banked
  2902  00353E  0100               	movlb	0	; () banked
  2903  003540  519A               	movf	_BattTempCompOffset& (0+255),w,b
  2904  003542  0101               	movlb	1	; () banked
  2905  003544  27FC               	addwf	??_BatteryMonitor& (0+255),f,b
  2906  003546  0100               	movlb	0	; () banked
  2907  003548  0100               	movlb	0	; () banked
  2908  00354A  519B               	movf	(_BattTempCompOffset+1)& (0+255),w,b
  2909  00354C  0101               	movlb	1	; () banked
  2910  00354E  23FD               	addwfc	(??_BatteryMonitor+1)& (0+255),f,b
  2911  003550  0101               	movlb	1	; () banked
  2912  003552  51FD               	movf	(??_BatteryMonitor+1)& (0+255),w,b
  2913  003554  0A80               	xorlw	128
  2914  003556  0101               	movlb	1	; () banked
  2915  003558  6FFE               	movwf	(??_BatteryMonitor+2)& (0+255),b
  2916  00355A  0100               	movlb	0	; () banked
  2917  00355C  0100               	movlb	0	; () banked
  2918  00355E  51AE               	movf	_VsenseBattADC& (0+255),w,b
  2919  003560  0101               	movlb	1	; () banked
  2920  003562  5DFC               	subwf	??_BatteryMonitor& (0+255),w,b
  2921  003564  0100               	movlb	0	; () banked
  2922  003566  0100               	movlb	0	; () banked
  2923  003568  51AF               	movf	(_VsenseBattADC+1)& (0+255),w,b
  2924  00356A  0A80               	xorlw	128
  2925  00356C  0101               	movlb	1	; () banked
  2926  00356E  59FE               	subwfb	(??_BatteryMonitor+2)& (0+255),w,b
  2927  003570  A0D8               	btfss	status,0,c
  2928  003572  0012               	return	
  2929                           
  2930                           ; BSR set to: 1
  2931                           ;battery.c: 56: }
  2932                           ;battery.c: 57: if(ChargeEnabled){
  2933                           
  2934                           ; BSR set to: 1
  2935                           
  2936                           ; BSR set to: 1
  2937                           ;battery.c: 55: return;
  2938  003574  0100               	movlb	0	; () banked
  2939  003576  0100               	movlb	0	; () banked
  2940  003578  51B9               	movf	_ChargeEnabled& (0+255),w,b
  2941  00357A  B4D8               	btfsc	status,2,c
  2942  00357C  0012               	return	
  2943                           
  2944                           ; BSR set to: 0
  2945                           ;battery.c: 58: if((VsenseBattADC < (BattVolt25C_Lo + BattTempCompOffset)) || chargeSwit
      +                          chState){
  2946  00357E  0100               	movlb	0	; () banked
  2947  003580  C06A  F1FC         	movff	_BattVolt25C_Lo,??_BatteryMonitor
  2948  003584  0100               	movlb	0	; () banked
  2949  003586  C06B  F1FD         	movff	_BattVolt25C_Lo+1,??_BatteryMonitor+1
  2950  00358A  0100               	movlb	0	; () banked
  2951  00358C  0100               	movlb	0	; () banked
  2952  00358E  519A               	movf	_BattTempCompOffset& (0+255),w,b
  2953  003590  0101               	movlb	1	; () banked
  2954  003592  27FC               	addwf	??_BatteryMonitor& (0+255),f,b
  2955  003594  0100               	movlb	0	; () banked
  2956  003596  0100               	movlb	0	; () banked
  2957  003598  519B               	movf	(_BattTempCompOffset+1)& (0+255),w,b
  2958  00359A  0101               	movlb	1	; () banked
  2959  00359C  23FD               	addwfc	(??_BatteryMonitor+1)& (0+255),f,b
  2960  00359E  0100               	movlb	0	; () banked
  2961  0035A0  0100               	movlb	0	; () banked
  2962  0035A2  51AF               	movf	(_VsenseBattADC+1)& (0+255),w,b
  2963  0035A4  0A80               	xorlw	128
  2964  0035A6  0101               	movlb	1	; () banked
  2965  0035A8  6FFE               	movwf	(??_BatteryMonitor+2)& (0+255),b
  2966  0035AA  51FC               	movf	??_BatteryMonitor& (0+255),w,b
  2967  0035AC  0100               	movlb	0	; () banked
  2968  0035AE  0100               	movlb	0	; () banked
  2969  0035B0  5DAE               	subwf	_VsenseBattADC& (0+255),w,b
  2970  0035B2  0101               	movlb	1	; () banked
  2971  0035B4  51FD               	movf	(??_BatteryMonitor+1)& (0+255),w,b
  2972  0035B6  0A80               	xorlw	128
  2973  0035B8  0101               	movlb	1	; () banked
  2974  0035BA  59FE               	subwfb	(??_BatteryMonitor+2)& (0+255),w,b
  2975  0035BC  A0D8               	btfss	status,0,c
  2976  0035BE  D005               	goto	l896
  2977                           
  2978                           ; BSR set to: 1
  2979  0035C0  0101               	movlb	1	; () banked
  2980  0035C2  0101               	movlb	1	; () banked
  2981  0035C4  51FF               	movf	BatteryMonitor@chargeSwitchState& (0+255),w,b
  2982  0035C6  B4D8               	btfsc	status,2,c
  2983  0035C8  0012               	return	
  2984  0035CA                     l896:
  2985                           
  2986                           ; BSR set to: 1
  2987  0035CA  8C8C               	bsf	3980,6,c	;volatile
  2988  0035CC  0012               	return	
  2989  0035CE                     __end_of_BatteryMonitor:
  2990                           	opt stack 0
  2991                           tosu	equ	0xFFF
  2992                           tosh	equ	0xFFE
  2993                           tosl	equ	0xFFD
  2994                           pclath	equ	0xFFA
  2995                           tblptru	equ	0xFF8
  2996                           tblptrh	equ	0xFF7
  2997                           tblptrl	equ	0xFF6
  2998                           tablat	equ	0xFF5
  2999                           prodh	equ	0xFF4
  3000                           prodl	equ	0xFF3
  3001                           postinc0	equ	0xFEE
  3002                           wreg	equ	0xFE8
  3003                           postdec1	equ	0xFE5
  3004                           fsr1h	equ	0xFE2
  3005                           fsr1l	equ	0xFE1
  3006                           indf2	equ	0xFDF
  3007                           postinc2	equ	0xFDE
  3008                           postdec2	equ	0xFDD
  3009                           fsr2h	equ	0xFDA
  3010                           fsr2l	equ	0xFD9
  3011                           status	equ	0xFD8
  3012                           
  3013 ;; *************** function _GenControl *****************
  3014 ;; Defined at:
  3015 ;;		line 86 in file "control.c"
  3016 ;; Parameters:    Size  Location     Type
  3017 ;;		None
  3018 ;; Auto vars:     Size  Location     Type
  3019 ;;		None
  3020 ;; Return value:  Size  Location     Type
  3021 ;;		None               void
  3022 ;; Registers used:
  3023 ;;		wreg, fsr0l, fsr0h, fsr1l, fsr1h, fsr1l, fsr1h, fsr2l, fsr2h, status,2, status,0, pclat, btemp, btemp+1, btemp+2, bt
      +emp+3, btemp+4, btemp+5, btemp+6, btemp+7, tosl, structret, tblptrl, tblptrh, tblptru, prodl, prodh, bsr, cstack
  3024 ;; Tracked objects:
  3025 ;;		On entry : 0/0
  3026 ;;		On exit  : 0/0
  3027 ;;		Unchanged: 0/0
  3028 ;; Data sizes:     COMRAM   BANK0   BANK1   BANK2   BANK3   BANK4   BANK5
  3029 ;;      Params:         0       0       0       0       0       0       0
  3030 ;;      Locals:         0       0       0       0       0       0       0
  3031 ;;      Temps:          0       0       0       0       0       0       0
  3032 ;;      Totals:         0       0       0       0       0       0       0
  3033 ;;Total ram usage:        0 bytes
  3034 ;; Hardware stack levels used:    1
  3035 ;; Hardware stack levels required when called:   14
  3036 ;; This function calls:
  3037 ;;		_AirTempMonitor
  3038 ;;		_EngTempMonitor
  3039 ;;		_GenCtrlFSM
  3040 ;; This function is called by:
  3041 ;;		_InitApp
  3042 ;;		_SCH_DispatchTasks
  3043 ;; This function uses a non-reentrant model
  3044 ;;
  3045                           
  3046                           	psect	text4
  3047  004B96                     __ptext4:
  3048                           	opt stack 0
  3049  004B96                     _GenControl:
  3050                           	opt stack 15
  3051                           
  3052                           ;control.c: 87: AirTempMonitor();
  3053                           
  3054                           ;incstack = 0
  3055                           ;incstack = 0
  3056  004B96  EC0A  F022         	call	_AirTempMonitor	;wreg free
  3057                           
  3058                           ;control.c: 88: EngTempMonitor();
  3059  004B9A  ECDA  F021         	call	_EngTempMonitor	;wreg free
  3060                           
  3061                           ;control.c: 89: GenCtrlFSM();
  3062  004B9E  ECB4  F020         	call	_GenCtrlFSM	;wreg free
  3063                           
  3064                           ;control.c: 94: if(IGN_PulseTimeoutCntr){IGN_PulseTimeoutCntr--;}
  3065  004BA2  0100               	movlb	0	; () banked
  3066  004BA4  0100               	movlb	0	; () banked
  3067  004BA6  51BF               	movf	_IGN_PulseTimeoutCntr& (0+255),w,b
  3068  004BA8  B4D8               	btfsc	status,2,c
  3069  004BAA  0012               	return	
  3070                           
  3071                           ; BSR set to: 0
  3072  004BAC  0100               	movlb	0	; () banked
  3073  004BAE  0100               	movlb	0	; () banked
  3074  004BB0  07BF               	decf	_IGN_PulseTimeoutCntr& (0+255),f,b
  3075  004BB2  0012               	return	
  3076  004BB4                     __end_of_GenControl:
  3077                           	opt stack 0
  3078                           tosu	equ	0xFFF
  3079                           tosh	equ	0xFFE
  3080                           tosl	equ	0xFFD
  3081                           pclath	equ	0xFFA
  3082                           tblptru	equ	0xFF8
  3083                           tblptrh	equ	0xFF7
  3084                           tblptrl	equ	0xFF6
  3085                           tablat	equ	0xFF5
  3086                           prodh	equ	0xFF4
  3087                           prodl	equ	0xFF3
  3088                           postinc0	equ	0xFEE
  3089                           wreg	equ	0xFE8
  3090                           postdec1	equ	0xFE5
  3091                           fsr1h	equ	0xFE2
  3092                           fsr1l	equ	0xFE1
  3093                           indf2	equ	0xFDF
  3094                           postinc2	equ	0xFDE
  3095                           postdec2	equ	0xFDD
  3096                           fsr2h	equ	0xFDA
  3097                           fsr2l	equ	0xFD9
  3098                           status	equ	0xFD8
  3099                           
  3100 ;; *************** function _EngTempControl *****************
  3101 ;; Defined at:
  3102 ;;		line 65 in file "etemp.c"
  3103 ;; Parameters:    Size  Location     Type
  3104 ;;		None
  3105 ;; Auto vars:     Size  Location     Type
  3106 ;;		None
  3107 ;; Return value:  Size  Location     Type
  3108 ;;		None               void
  3109 ;; Registers used:
  3110 ;;		wreg, status,2, status,0
  3111 ;; Tracked objects:
  3112 ;;		On entry : 0/0
  3113 ;;		On exit  : 0/0
  3114 ;;		Unchanged: 0/0
  3115 ;; Data sizes:     COMRAM   BANK0   BANK1   BANK2   BANK3   BANK4   BANK5
  3116 ;;      Params:         0       0       0       0       0       0       0
  3117 ;;      Locals:         0       0       0       0       0       0       0
  3118 ;;      Temps:          0       0       0       0       0       0       0
  3119 ;;      Totals:         0       0       0       0       0       0       0
  3120 ;;Total ram usage:        0 bytes
  3121 ;; Hardware stack levels used:    1
  3122 ;; Hardware stack levels required when called:    7
  3123 ;; This function calls:
  3124 ;;		Nothing
  3125 ;; This function is called by:
  3126 ;;		_InitApp
  3127 ;;		_SCH_DispatchTasks
  3128 ;; This function uses a non-reentrant model
  3129 ;;
  3130                           
  3131                           	psect	text5
  3132  004AD6                     __ptext5:
  3133                           	opt stack 0
  3134  004AD6                     _EngTempControl:
  3135                           	opt stack 22
  3136                           
  3137                           ;etemp.c: 67: EngTemp=EngTempADC_Filtered.Value;
  3138                           
  3139                           ; BSR set to: 0
  3140                           ;incstack = 0
  3141                           ;incstack = 0
  3142  004AD6  C039  F09C         	movff	_EngTempADC_Filtered+1,_EngTemp
  3143  004ADA  C03A  F09D         	movff	_EngTempADC_Filtered+2,_EngTemp+1
  3144                           
  3145                           ;etemp.c: 69: if (EngTemp > 290) {
  3146  004ADE  0100               	movlb	0	; () banked
  3147  004AE0  0100               	movlb	0	; () banked
  3148  004AE2  519D               	movf	(_EngTemp+1)& (0+255),w,b
  3149  004AE4  0A80               	xorlw	128
  3150  004AE6  0F7F               	addlw	-129
  3151  004AE8  0E23               	movlw	35
  3152  004AEA  B4D8               	btfsc	status,2,c
  3153  004AEC  5D9C               	subwf	_EngTemp& (0+255),w,b
  3154  004AEE  A0D8               	btfss	status,0,c
  3155  004AF0  D003               	goto	l994
  3156                           
  3157                           ; BSR set to: 0
  3158                           
  3159                           ;etemp.c: 70: do {LATDbits.LATD0 = 1;} while(0);
  3160  004AF2  808C               	bsf	3980,0,c	;volatile
  3161                           
  3162                           ; BSR set to: 0
  3163                           
  3164                           ; BSR set to: 0
  3165                           ;etemp.c: 71: do {LATDbits.LATD3 = 1;} while(0);
  3166  004AF4  868C               	bsf	3980,3,c	;volatile
  3167  004AF6  0012               	return	
  3168  004AF8                     l994:
  3169                           
  3170                           ; BSR set to: 0
  3171  004AF8  908C               	bcf	3980,0,c	;volatile
  3172                           
  3173                           ; BSR set to: 0
  3174                           
  3175                           ; BSR set to: 0
  3176                           ;etemp.c: 75: do {LATDbits.LATD3 = 0;} while(0);
  3177  004AFA  968C               	bcf	3980,3,c	;volatile
  3178  004AFC  0012               	return	
  3179  004AFE                     __end_of_EngTempControl:
  3180                           	opt stack 0
  3181                           tosu	equ	0xFFF
  3182                           tosh	equ	0xFFE
  3183                           tosl	equ	0xFFD
  3184                           pclath	equ	0xFFA
  3185                           tblptru	equ	0xFF8
  3186                           tblptrh	equ	0xFF7
  3187                           tblptrl	equ	0xFF6
  3188                           tablat	equ	0xFF5
  3189                           prodh	equ	0xFF4
  3190                           prodl	equ	0xFF3
  3191                           postinc0	equ	0xFEE
  3192                           wreg	equ	0xFE8
  3193                           postdec1	equ	0xFE5
  3194                           fsr1h	equ	0xFE2
  3195                           fsr1l	equ	0xFE1
  3196                           indf2	equ	0xFDF
  3197                           postinc2	equ	0xFDE
  3198                           postdec2	equ	0xFDD
  3199                           fsr2h	equ	0xFDA
  3200                           fsr2l	equ	0xFD9
  3201                           status	equ	0xFD8
  3202                           
  3203 ;; *************** function _GenCtrlFSM *****************
  3204 ;; Defined at:
  3205 ;;		line 276 in file "control.c"
  3206 ;; Parameters:    Size  Location     Type
  3207 ;;		None
  3208 ;; Auto vars:     Size  Location     Type
  3209 ;;		None
  3210 ;; Return value:  Size  Location     Type
  3211 ;;		None               void
  3212 ;; Registers used:
  3213 ;;		wreg, fsr0l, fsr0h, fsr1l, fsr1h, fsr1l, fsr1h, fsr2l, fsr2h, status,2, status,0, pclat, btemp, btemp+1, btemp+2, bt
      +emp+3, btemp+4, btemp+5, btemp+6, btemp+7, tosl, structret, tblptrl, tblptrh, tblptru, prodl, prodh, bsr, cstack
  3214 ;; Tracked objects:
  3215 ;;		On entry : 0/0
  3216 ;;		On exit  : 0/0
  3217 ;;		Unchanged: 0/0
  3218 ;; Data sizes:     COMRAM   BANK0   BANK1   BANK2   BANK3   BANK4   BANK5
  3219 ;;      Params:         0       0       0       0       0       0       0
  3220 ;;      Locals:         0       0       0       0       0       0       0
  3221 ;;      Temps:          0       0       0       0       0       0       0
  3222 ;;      Totals:         0       0       0       0       0       0       0
  3223 ;;Total ram usage:        0 bytes
  3224 ;; Hardware stack levels used:    1
  3225 ;; Hardware stack levels required when called:   13
  3226 ;; This function calls:
  3227 ;;		_ExecuteGenStateInit
  3228 ;;		_ExecuteGenStateDrain
  3229 ;;		_ExecuteGenStateWait
  3230 ;;		_ExecuteGenStateStart
  3231 ;;		_ExecuteGenStateRun
  3232 ;;		_ExecuteGenStateOff
  3233 ;;		_ExecuteGenStateCal
  3234 ;; This function is called by:
  3235 ;;		_GenControl
  3236 ;; This function uses a non-reentrant model
  3237 ;;
  3238                           
  3239                           	psect	text6
  3240  004168                     __ptext6:
  3241                           	opt stack 0
  3242  004168                     _GenCtrlFSM:
  3243                           	opt stack 15
  3244                           
  3245                           ;control.c: 277: switch (GenCtrlState) {
  3246                           
  3247                           ; BSR set to: 0
  3248                           ;incstack = 0
  3249                           ;incstack = 0
  3250  004168  D018               	goto	l8602
  3251  00416A                     l8584:
  3252                           
  3253                           ;control.c: 279: ExecuteGenStateInit();
  3254  00416A  EC63  F023         	call	_ExecuteGenStateInit	;wreg free
  3255                           
  3256                           ;control.c: 280: break;
  3257  00416E  0012               	return	
  3258  004170                     l8586:
  3259                           
  3260                           ;control.c: 282: ExecuteGenStateDrain();
  3261  004170  EC40  F025         	call	_ExecuteGenStateDrain	;wreg free
  3262                           
  3263                           ;control.c: 283: break;
  3264  004174  0012               	return	
  3265  004176                     l8588:
  3266                           
  3267                           ;control.c: 288: ExecuteGenStateWait();
  3268  004176  EC6A  F022         	call	_ExecuteGenStateWait	;wreg free
  3269                           
  3270                           ;control.c: 290: break;
  3271  00417A  0012               	return	
  3272  00417C                     l8590:
  3273                           
  3274                           ;control.c: 295: ExecuteGenStateStart();
  3275  00417C  EC93  F01F         	call	_ExecuteGenStateStart	;wreg free
  3276                           
  3277                           ;control.c: 296: break;
  3278  004180  0012               	return	
  3279  004182                     l8592:
  3280                           
  3281                           ;control.c: 298: ExecuteGenStateRun();
  3282  004182  ECDA  F025         	call	_ExecuteGenStateRun	;wreg free
  3283                           
  3284                           ;control.c: 299: break;
  3285  004186  0012               	return	
  3286  004188                     l8594:
  3287                           
  3288                           ;control.c: 301: ExecuteGenStateCal();
  3289  004188  EC45  F026         	call	_ExecuteGenStateCal	;wreg free
  3290                           
  3291                           ;control.c: 302: break;
  3292  00418C  0012               	return	
  3293  00418E                     l8596:
  3294                           
  3295                           ;control.c: 304: ExecuteGenStateOff();
  3296  00418E  EC85  F026         	call	_ExecuteGenStateOff	;wreg free
  3297                           
  3298                           ;control.c: 305: break;
  3299  004192  0012               	return	
  3300  004194                     l8598:
  3301                           
  3302                           ;control.c: 307: ExecuteGenStateOff();
  3303  004194  EC85  F026         	call	_ExecuteGenStateOff	;wreg free
  3304                           
  3305                           ;control.c: 308: break;
  3306  004198  0012               	return	
  3307  00419A                     l8602:
  3308  00419A  0100               	movlb	0	; () banked
  3309  00419C  0100               	movlb	0	; () banked
  3310  00419E  51BE               	movf	_GenCtrlState& (0+255),w,b
  3311                           
  3312                           ; Switch size 1, requested type "space"
  3313                           ; Number of cases is 7, Range of values is 0 to 255
  3314                           ; switch strategies available:
  3315                           ; Name         Instructions Cycles
  3316                           ; simple_byte           22    12 (average)
  3317                           ;	Chosen strategy is simple_byte
  3318  0041A0  0A00               	xorlw	0	; case 0
  3319  0041A2  B4D8               	btfsc	status,2,c
  3320  0041A4  D7E2               	goto	l8584
  3321  0041A6  0A01               	xorlw	1	; case 1
  3322  0041A8  B4D8               	btfsc	status,2,c
  3323  0041AA  D7E2               	goto	l8586
  3324  0041AC  0A03               	xorlw	3	; case 2
  3325  0041AE  B4D8               	btfsc	status,2,c
  3326  0041B0  D7E2               	goto	l8588
  3327  0041B2  0A01               	xorlw	1	; case 3
  3328  0041B4  B4D8               	btfsc	status,2,c
  3329  0041B6  D7E2               	goto	l8590
  3330  0041B8  0A07               	xorlw	7	; case 4
  3331  0041BA  B4D8               	btfsc	status,2,c
  3332  0041BC  D7E2               	goto	l8592
  3333  0041BE  0A01               	xorlw	1	; case 5
  3334  0041C0  B4D8               	btfsc	status,2,c
  3335  0041C2  D7E2               	goto	l8594
  3336  0041C4  0AFA               	xorlw	250	; case 255
  3337  0041C6  B4D8               	btfsc	status,2,c
  3338  0041C8  D7E2               	goto	l8596
  3339  0041CA  D7E4               	goto	l8598
  3340  0041CC                     __end_of_GenCtrlFSM:
  3341                           	opt stack 0
  3342                           tosu	equ	0xFFF
  3343                           tosh	equ	0xFFE
  3344                           tosl	equ	0xFFD
  3345                           pclath	equ	0xFFA
  3346                           tblptru	equ	0xFF8
  3347                           tblptrh	equ	0xFF7
  3348                           tblptrl	equ	0xFF6
  3349                           tablat	equ	0xFF5
  3350                           prodh	equ	0xFF4
  3351                           prodl	equ	0xFF3
  3352                           postinc0	equ	0xFEE
  3353                           wreg	equ	0xFE8
  3354                           postdec1	equ	0xFE5
  3355                           fsr1h	equ	0xFE2
  3356                           fsr1l	equ	0xFE1
  3357                           indf2	equ	0xFDF
  3358                           postinc2	equ	0xFDE
  3359                           postdec2	equ	0xFDD
  3360                           fsr2h	equ	0xFDA
  3361                           fsr2l	equ	0xFD9
  3362                           status	equ	0xFD8
  3363                           
  3364 ;; *************** function _ExecuteGenStateCal *****************
  3365 ;; Defined at:
  3366 ;;		line 269 in file "control.c"
  3367 ;; Parameters:    Size  Location     Type
  3368 ;;		None
  3369 ;; Auto vars:     Size  Location     Type
  3370 ;;		None
  3371 ;; Return value:  Size  Location     Type
  3372 ;;		None               void
  3373 ;; Registers used:
  3374 ;;		wreg, status,2, cstack
  3375 ;; Tracked objects:
  3376 ;;		On entry : 0/0
  3377 ;;		On exit  : 0/0
  3378 ;;		Unchanged: 0/0
  3379 ;; Data sizes:     COMRAM   BANK0   BANK1   BANK2   BANK3   BANK4   BANK5
  3380 ;;      Params:         0       0       0       0       0       0       0
  3381 ;;      Locals:         0       0       0       0       0       0       0
  3382 ;;      Temps:          0       0       0       0       0       0       0
  3383 ;;      Totals:         0       0       0       0       0       0       0
  3384 ;;Total ram usage:        0 bytes
  3385 ;; Hardware stack levels used:    1
  3386 ;; Hardware stack levels required when called:    8
  3387 ;; This function calls:
  3388 ;;		_EnterGenStateOff
  3389 ;; This function is called by:
  3390 ;;		_GenCtrlFSM
  3391 ;; This function uses a non-reentrant model
  3392 ;;
  3393                           
  3394                           	psect	text7
  3395  004C8A                     __ptext7:
  3396                           	opt stack 0
  3397  004C8A                     _ExecuteGenStateCal:
  3398                           	opt stack 19
  3399                           
  3400                           ;control.c: 270: if(GenCtrlFaultCode){
  3401                           
  3402                           ;incstack = 0
  3403                           ;incstack = 0
  3404  004C8A  0100               	movlb	0	; () banked
  3405  004C8C  0100               	movlb	0	; () banked
  3406  004C8E  51BD               	movf	_GenCtrlFaultCode& (0+255),w,b
  3407  004C90  B4D8               	btfsc	status,2,c
  3408  004C92  0012               	return	
  3409                           
  3410                           ; BSR set to: 0
  3411                           ;control.c: 271: EnterGenStateOff();
  3412  004C94  EC10  F025         	call	_EnterGenStateOff	;wreg free
  3413  004C98  0012               	return	
  3414  004C9A                     __end_of_ExecuteGenStateCal:
  3415                           	opt stack 0
  3416                           tosu	equ	0xFFF
  3417                           tosh	equ	0xFFE
  3418                           tosl	equ	0xFFD
  3419                           pclath	equ	0xFFA
  3420                           tblptru	equ	0xFF8
  3421                           tblptrh	equ	0xFF7
  3422                           tblptrl	equ	0xFF6
  3423                           tablat	equ	0xFF5
  3424                           prodh	equ	0xFF4
  3425                           prodl	equ	0xFF3
  3426                           postinc0	equ	0xFEE
  3427                           wreg	equ	0xFE8
  3428                           postdec1	equ	0xFE5
  3429                           fsr1h	equ	0xFE2
  3430                           fsr1l	equ	0xFE1
  3431                           indf2	equ	0xFDF
  3432                           postinc2	equ	0xFDE
  3433                           postdec2	equ	0xFDD
  3434                           fsr2h	equ	0xFDA
  3435                           fsr2l	equ	0xFD9
  3436                           status	equ	0xFD8
  3437                           
  3438 ;; *************** function _ExecuteGenStateOff *****************
  3439 ;; Defined at:
  3440 ;;		line 252 in file "control.c"
  3441 ;; Parameters:    Size  Location     Type
  3442 ;;		None
  3443 ;; Auto vars:     Size  Location     Type
  3444 ;;		None
  3445 ;; Return value:  Size  Location     Type
  3446 ;;		None               void
  3447 ;; Registers used:
  3448 ;;		None
  3449 ;; Tracked objects:
  3450 ;;		On entry : 0/0
  3451 ;;		On exit  : 0/0
  3452 ;;		Unchanged: 0/0
  3453 ;; Data sizes:     COMRAM   BANK0   BANK1   BANK2   BANK3   BANK4   BANK5
  3454 ;;      Params:         0       0       0       0       0       0       0
  3455 ;;      Locals:         0       0       0       0       0       0       0
  3456 ;;      Temps:          0       0       0       0       0       0       0
  3457 ;;      Totals:         0       0       0       0       0       0       0
  3458 ;;Total ram usage:        0 bytes
  3459 ;; Hardware stack levels used:    1
  3460 ;; Hardware stack levels required when called:    7
  3461 ;; This function calls:
  3462 ;;		Nothing
  3463 ;; This function is called by:
  3464 ;;		_GenCtrlFSM
  3465 ;; This function uses a non-reentrant model
  3466 ;;
  3467                           
  3468                           	psect	text8
  3469  004D0A                     __ptext8:
  3470                           	opt stack 0
  3471  004D0A                     _ExecuteGenStateOff:
  3472                           	opt stack 20
  3473                           
  3474                           ;incstack = 0
  3475                           ;incstack = 0
  3476  004D0A  0012               	return	
  3477  004D0C                     __end_of_ExecuteGenStateOff:
  3478                           	opt stack 0
  3479                           tosu	equ	0xFFF
  3480                           tosh	equ	0xFFE
  3481                           tosl	equ	0xFFD
  3482                           pclath	equ	0xFFA
  3483                           tblptru	equ	0xFF8
  3484                           tblptrh	equ	0xFF7
  3485                           tblptrl	equ	0xFF6
  3486                           tablat	equ	0xFF5
  3487                           prodh	equ	0xFF4
  3488                           prodl	equ	0xFF3
  3489                           postinc0	equ	0xFEE
  3490                           wreg	equ	0xFE8
  3491                           postdec1	equ	0xFE5
  3492                           fsr1h	equ	0xFE2
  3493                           fsr1l	equ	0xFE1
  3494                           indf2	equ	0xFDF
  3495                           postinc2	equ	0xFDE
  3496                           postdec2	equ	0xFDD
  3497                           fsr2h	equ	0xFDA
  3498                           fsr2l	equ	0xFD9
  3499                           status	equ	0xFD8
  3500                           
  3501 ;; *************** function _ExecuteGenStateRun *****************
  3502 ;; Defined at:
  3503 ;;		line 226 in file "control.c"
  3504 ;; Parameters:    Size  Location     Type
  3505 ;;		None
  3506 ;; Auto vars:     Size  Location     Type
  3507 ;;		None
  3508 ;; Return value:  Size  Location     Type
  3509 ;;		None               void
  3510 ;; Registers used:
  3511 ;;		wreg, status,2, cstack
  3512 ;; Tracked objects:
  3513 ;;		On entry : 0/0
  3514 ;;		On exit  : 0/0
  3515 ;;		Unchanged: 0/0
  3516 ;; Data sizes:     COMRAM   BANK0   BANK1   BANK2   BANK3   BANK4   BANK5
  3517 ;;      Params:         0       0       0       0       0       0       0
  3518 ;;      Locals:         0       0       0       0       0       0       0
  3519 ;;      Temps:          0       0       0       0       0       0       0
  3520 ;;      Totals:         0       0       0       0       0       0       0
  3521 ;;Total ram usage:        0 bytes
  3522 ;; Hardware stack levels used:    1
  3523 ;; Hardware stack levels required when called:    8
  3524 ;; This function calls:
  3525 ;;		_EnterGenStateOff
  3526 ;; This function is called by:
  3527 ;;		_GenCtrlFSM
  3528 ;; This function uses a non-reentrant model
  3529 ;;
  3530                           
  3531                           	psect	text9
  3532  004BB4                     __ptext9:
  3533                           	opt stack 0
  3534  004BB4                     _ExecuteGenStateRun:
  3535                           	opt stack 19
  3536                           
  3537                           ;control.c: 228: if(GenCtrlFaultCode){
  3538                           
  3539                           ;incstack = 0
  3540                           ;incstack = 0
  3541  004BB4  0100               	movlb	0	; () banked
  3542  004BB6  0100               	movlb	0	; () banked
  3543  004BB8  51BD               	movf	_GenCtrlFaultCode& (0+255),w,b
  3544  004BBA  B4D8               	btfsc	status,2,c
  3545  004BBC  D003               	goto	l749
  3546                           
  3547                           ; BSR set to: 0
  3548                           ;control.c: 229: EnterGenStateOff();
  3549  004BBE  EC10  F025         	call	_EnterGenStateOff	;wreg free
  3550  004BC2  0012               	return	
  3551  004BC4                     l749:
  3552                           
  3553                           ; BSR set to: 0
  3554                           ;control.c: 231: }
  3555                           ;control.c: 234: if(!IGN_PulseTimeoutCntr){
  3556  004BC4  0100               	movlb	0	; () banked
  3557  004BC6  0100               	movlb	0	; () banked
  3558  004BC8  67BF               	tstfsz	_IGN_PulseTimeoutCntr& (0+255),b
  3559  004BCA  0012               	return	
  3560                           
  3561                           ; BSR set to: 0
  3562                           ;control.c: 235: EnterGenStateOff();
  3563  004BCC  EC10  F025         	call	_EnterGenStateOff	;wreg free
  3564  004BD0  0012               	return	
  3565  004BD2                     __end_of_ExecuteGenStateRun:
  3566                           	opt stack 0
  3567                           tosu	equ	0xFFF
  3568                           tosh	equ	0xFFE
  3569                           tosl	equ	0xFFD
  3570                           pclath	equ	0xFFA
  3571                           tblptru	equ	0xFF8
  3572                           tblptrh	equ	0xFF7
  3573                           tblptrl	equ	0xFF6
  3574                           tablat	equ	0xFF5
  3575                           prodh	equ	0xFF4
  3576                           prodl	equ	0xFF3
  3577                           postinc0	equ	0xFEE
  3578                           wreg	equ	0xFE8
  3579                           postdec1	equ	0xFE5
  3580                           fsr1h	equ	0xFE2
  3581                           fsr1l	equ	0xFE1
  3582                           indf2	equ	0xFDF
  3583                           postinc2	equ	0xFDE
  3584                           postdec2	equ	0xFDD
  3585                           fsr2h	equ	0xFDA
  3586                           fsr2l	equ	0xFD9
  3587                           status	equ	0xFD8
  3588                           
  3589 ;; *************** function _ExecuteGenStateStart *****************
  3590 ;; Defined at:
  3591 ;;		line 194 in file "control.c"
  3592 ;; Parameters:    Size  Location     Type
  3593 ;;		None
  3594 ;; Auto vars:     Size  Location     Type
  3595 ;;		None
  3596 ;; Return value:  Size  Location     Type
  3597 ;;		None               void
  3598 ;; Registers used:
  3599 ;;		wreg, status,2, status,0, cstack
  3600 ;; Tracked objects:
  3601 ;;		On entry : 0/0
  3602 ;;		On exit  : 0/0
  3603 ;;		Unchanged: 0/0
  3604 ;; Data sizes:     COMRAM   BANK0   BANK1   BANK2   BANK3   BANK4   BANK5
  3605 ;;      Params:         0       0       0       0       0       0       0
  3606 ;;      Locals:         0       0       0       0       0       0       0
  3607 ;;      Temps:          0       0       1       0       0       0       0
  3608 ;;      Totals:         0       0       1       0       0       0       0
  3609 ;;Total ram usage:        1 bytes
  3610 ;; Hardware stack levels used:    1
  3611 ;; Hardware stack levels required when called:    8
  3612 ;; This function calls:
  3613 ;;		_EnterGenStateOff
  3614 ;;		_EnterGenStateRun
  3615 ;; This function is called by:
  3616 ;;		_GenCtrlFSM
  3617 ;; This function uses a non-reentrant model
  3618 ;;
  3619                           
  3620                           	psect	text10
  3621  003F26                     __ptext10:
  3622                           	opt stack 0
  3623  003F26                     _ExecuteGenStateStart:
  3624                           	opt stack 19
  3625                           
  3626                           ;control.c: 196: if(GenCtrlFaultCode){
  3627                           
  3628                           ;incstack = 0
  3629                           ;incstack = 0
  3630  003F26  0100               	movlb	0	; () banked
  3631  003F28  0100               	movlb	0	; () banked
  3632  003F2A  51BD               	movf	_GenCtrlFaultCode& (0+255),w,b
  3633  003F2C  B4D8               	btfsc	status,2,c
  3634  003F2E  D003               	goto	l8842
  3635                           
  3636                           ; BSR set to: 0
  3637                           ;control.c: 197: EnterGenStateOff();
  3638  003F30  EC10  F025         	call	_EnterGenStateOff	;wreg free
  3639  003F34  0012               	return	
  3640  003F36                     l8842:
  3641                           
  3642                           ;control.c: 199: }
  3643                           ;control.c: 201: if(IGN_PulseTimeoutCntr){
  3644  003F36  0100               	movlb	0	; () banked
  3645  003F38  0100               	movlb	0	; () banked
  3646  003F3A  51BF               	movf	_IGN_PulseTimeoutCntr& (0+255),w,b
  3647  003F3C  B4D8               	btfsc	status,2,c
  3648  003F3E  D00E               	goto	l8848
  3649                           
  3650                           ; BSR set to: 0
  3651                           ;control.c: 202: InjectorEnabled = 1;
  3652  003F40  0101               	movlb	1	; () banked
  3653  003F42  6FF7               	movwf	??_ExecuteGenStateStart& (0+255),b
  3654  003F44  0E01               	movlw	1
  3655  003F46  6E41               	movwf	_InjectorEnabled,c
  3656  003F48  0101               	movlb	1	; () banked
  3657  003F4A  51F7               	movf	??_ExecuteGenStateStart& (0+255),w,b
  3658                           
  3659                           ; BSR set to: 1
  3660                           ;control.c: 204: TimerInState = 1000U;
  3661  003F4C  0E03               	movlw	3
  3662  003F4E  0100               	movlb	0	; () banked
  3663  003F50  0100               	movlb	0	; () banked
  3664  003F52  6FAD               	movwf	(_TimerInState+1)& (0+255),b
  3665  003F54  0EE8               	movlw	232
  3666  003F56  0100               	movlb	0	; () banked
  3667  003F58  6FAC               	movwf	_TimerInState& (0+255),b
  3668                           
  3669                           ;control.c: 205: }else{
  3670  003F5A  D006               	goto	l8850
  3671  003F5C                     l8848:
  3672                           
  3673                           ; BSR set to: 0
  3674                           ;control.c: 206: InjectorEnabled = 0;
  3675  003F5C  0101               	movlb	1	; () banked
  3676  003F5E  6FF7               	movwf	??_ExecuteGenStateStart& (0+255),b
  3677  003F60  0E00               	movlw	0
  3678  003F62  6E41               	movwf	_InjectorEnabled,c
  3679  003F64  0101               	movlb	1	; () banked
  3680  003F66  51F7               	movf	??_ExecuteGenStateStart& (0+255),w,b
  3681  003F68                     l8850:
  3682                           
  3683                           ;control.c: 207: }
  3684                           ;control.c: 209: if((IGN_PulsePeriod > 1U) && (IGN_PulsePeriod < 640U)){
  3685  003F68  0E02               	movlw	2
  3686  003F6A  5C3B               	subwf	_IGN_PulsePeriod,w,c
  3687  003F6C  0E00               	movlw	0
  3688  003F6E  583C               	subwfb	_IGN_PulsePeriod+1,w,c
  3689  003F70  A0D8               	btfss	status,0,c
  3690  003F72  D009               	goto	l8858
  3691  003F74  0E80               	movlw	128
  3692  003F76  5C3B               	subwf	_IGN_PulsePeriod,w,c
  3693  003F78  0E02               	movlw	2
  3694  003F7A  583C               	subwfb	_IGN_PulsePeriod+1,w,c
  3695  003F7C  B0D8               	btfsc	status,0,c
  3696  003F7E  D003               	goto	l8858
  3697                           
  3698                           ;control.c: 210: EnterGenStateRun();
  3699  003F80  ECE9  F025         	call	_EnterGenStateRun	;wreg free
  3700  003F84  0012               	return	
  3701  003F86                     l8858:
  3702                           
  3703                           ;control.c: 212: }
  3704                           ;control.c: 214: if(!TimerInState--){
  3705  003F86  0100               	movlb	0	; () banked
  3706  003F88  0100               	movlb	0	; () banked
  3707  003F8A  07AC               	decf	_TimerInState& (0+255),f,b
  3708  003F8C  A0D8               	btfss	status,0,c
  3709  003F8E  07AD               	decf	(_TimerInState+1)& (0+255),f,b
  3710  003F90  0100               	movlb	0	; () banked
  3711  003F92  29AC               	incf	_TimerInState& (0+255),w,b
  3712  003F94  B4D8               	btfsc	status,2,c
  3713  003F96  29AD               	incf	(_TimerInState+1)& (0+255),w,b
  3714  003F98  A4D8               	btfss	status,2,c
  3715  003F9A  0012               	return	
  3716                           
  3717                           ; BSR set to: 0
  3718                           ;control.c: 215: EnterGenStateOff();
  3719  003F9C  EC10  F025         	call	_EnterGenStateOff	;wreg free
  3720  003FA0  0012               	return	
  3721  003FA2                     __end_of_ExecuteGenStateStart:
  3722                           	opt stack 0
  3723                           tosu	equ	0xFFF
  3724                           tosh	equ	0xFFE
  3725                           tosl	equ	0xFFD
  3726                           pclath	equ	0xFFA
  3727                           tblptru	equ	0xFF8
  3728                           tblptrh	equ	0xFF7
  3729                           tblptrl	equ	0xFF6
  3730                           tablat	equ	0xFF5
  3731                           prodh	equ	0xFF4
  3732                           prodl	equ	0xFF3
  3733                           postinc0	equ	0xFEE
  3734                           wreg	equ	0xFE8
  3735                           postdec1	equ	0xFE5
  3736                           fsr1h	equ	0xFE2
  3737                           fsr1l	equ	0xFE1
  3738                           indf2	equ	0xFDF
  3739                           postinc2	equ	0xFDE
  3740                           postdec2	equ	0xFDD
  3741                           fsr2h	equ	0xFDA
  3742                           fsr2l	equ	0xFD9
  3743                           status	equ	0xFD8
  3744                           
  3745 ;; *************** function _EnterGenStateRun *****************
  3746 ;; Defined at:
  3747 ;;		line 220 in file "control.c"
  3748 ;; Parameters:    Size  Location     Type
  3749 ;;		None
  3750 ;; Auto vars:     Size  Location     Type
  3751 ;;		None
  3752 ;; Return value:  Size  Location     Type
  3753 ;;		None               void
  3754 ;; Registers used:
  3755 ;;		status,2
  3756 ;; Tracked objects:
  3757 ;;		On entry : 0/0
  3758 ;;		On exit  : 0/0
  3759 ;;		Unchanged: 0/0
  3760 ;; Data sizes:     COMRAM   BANK0   BANK1   BANK2   BANK3   BANK4   BANK5
  3761 ;;      Params:         0       0       0       0       0       0       0
  3762 ;;      Locals:         0       0       0       0       0       0       0
  3763 ;;      Temps:          0       0       1       0       0       0       0
  3764 ;;      Totals:         0       0       1       0       0       0       0
  3765 ;;Total ram usage:        1 bytes
  3766 ;; Hardware stack levels used:    1
  3767 ;; Hardware stack levels required when called:    7
  3768 ;; This function calls:
  3769 ;;		Nothing
  3770 ;; This function is called by:
  3771 ;;		_ExecuteGenStateStart
  3772 ;; This function uses a non-reentrant model
  3773 ;;
  3774                           
  3775                           	psect	text11
  3776  004BD2                     __ptext11:
  3777                           	opt stack 0
  3778  004BD2                     _EnterGenStateRun:
  3779                           	opt stack 19
  3780                           
  3781                           ;control.c: 221: InjectorEnabled = 1;
  3782                           
  3783                           ;incstack = 0
  3784                           ;incstack = 0
  3785  004BD2  0101               	movlb	1	; () banked
  3786  004BD4  6FF6               	movwf	??_EnterGenStateRun& (0+255),b
  3787  004BD6  0E01               	movlw	1
  3788  004BD8  6E41               	movwf	_InjectorEnabled,c
  3789  004BDA  0101               	movlb	1	; () banked
  3790  004BDC  51F6               	movf	??_EnterGenStateRun& (0+255),w,b
  3791                           
  3792                           ;control.c: 222: GenCtrlState = GEN_STATE_RUN;
  3793  004BDE  0101               	movlb	1	; () banked
  3794  004BE0  6FF6               	movwf	??_EnterGenStateRun& (0+255),b
  3795  004BE2  0E04               	movlw	4
  3796  004BE4  0100               	movlb	0	; () banked
  3797  004BE6  0100               	movlb	0	; () banked
  3798  004BE8  6FBE               	movwf	_GenCtrlState& (0+255),b
  3799  004BEA  0101               	movlb	1	; () banked
  3800  004BEC  51F6               	movf	??_EnterGenStateRun& (0+255),w,b
  3801                           
  3802                           ; BSR set to: 1
  3803  004BEE  0012               	return	
  3804  004BF0                     __end_of_EnterGenStateRun:
  3805                           	opt stack 0
  3806                           tosu	equ	0xFFF
  3807                           tosh	equ	0xFFE
  3808                           tosl	equ	0xFFD
  3809                           pclath	equ	0xFFA
  3810                           tblptru	equ	0xFF8
  3811                           tblptrh	equ	0xFF7
  3812                           tblptrl	equ	0xFF6
  3813                           tablat	equ	0xFF5
  3814                           prodh	equ	0xFF4
  3815                           prodl	equ	0xFF3
  3816                           postinc0	equ	0xFEE
  3817                           wreg	equ	0xFE8
  3818                           postdec1	equ	0xFE5
  3819                           fsr1h	equ	0xFE2
  3820                           fsr1l	equ	0xFE1
  3821                           indf2	equ	0xFDF
  3822                           postinc2	equ	0xFDE
