:100000005DEF00F0FFFFFFFFFACFD9F0FBCFDAF092
:10001000CFEF1EF0FFFFFFFFD8CF06F0E8CF07F0CD
:10002000E0CF08F0FACF09F0FBCF0AF0E9CF0BF0F0
:10003000EACF0CF0E1CF0DF0E2CF0EF0D9CF0FF008
:10004000DACF10F0F3CF11F0F4CF12F0F6CF13F0B7
:10005000F7CF14F0F8CF15F0F5CF16F0F2A401D0D9
:1000600001D008D0F294C10ED76E800ED66EA0ECEF
:1000700016F000D016C0F5FF15C0F8FF14C0F7FF4A
:1000800013C0F6FF12C0F4FF11C0F3FF10C0DAFF77
:100090000FC0D9FF0EC0E2FF0DC0E1FF0CC0EAFFA8
:1000A0000BC0E9FF0AC0FBFF09C0FAFF08C0E0FF70
:1000B00007C0E8FF06C0D8FF10009CEF19F0FFFF53
:1006000001000A006400E8031027414E303A253407
:10061000752000414E313A2534752000414E323A62
:100620002534752000414E333A25347520000000F2
:1006300000010001984B992B3E0E00010001985DCE
:10064000000E00019959D8A065D03F4A402A010107
:10065000010E276E01017E0E266E000E296E000E21
:10066000286E000E2B6E4B0E2A6E030E2D6EFF0EA3
:100670002C6E000E2F6E7D0E2E6E000E316E0A0E49
:10068000306EC6EC0AF00001D36F9F0E196E0001A8
:10069000D35193EC25F019C0A2F01AC0A3F0A2C068
:1006A00025F0A3C026F00101010E246E01017E0E8B
:1006B000236E2AEC17F023C02EF024C02FF0D2ECCA
:1006C00023F031C049F030C048F02FC047F02EC0B1
:1006D00046F046C021F047C022F048C023F049C090
:1006E00024F0000E256E000E266EC80E276E420EF8
:1006F000286E2BEC19F024C049F023C048F022C02A
:1007000047F021C046F0000E00010001996F000E75
:100710000001986F0001000192513F5C000100014F
:1007200093514058D8B01ED140503F10D8B41AD180
:10073000000E00010001816F0C0E0001806F000EA1
:1007400000010001AB6F000E0001AA6F000E176ED2
:10075000000E186E700E196E420E1A6E34C01BF029
:1007600035C01CF036C01DF037C01EF0FAEC1CF08E
:10077000D8B009D0660E01010101DE6F660E0101DD
:10078000DF6F260E1CD0000E176E000E186EF00ED6
:10079000196E410E1A6E34C01BF035C01CF036C005
:1007A0001DF037C01EF0FAEC1CF0D8B00CD0660E6D
:1007B00001010101DE6F660E0101DF6F660E0101AE
:1007C000E06F3F0E28D0000E176E000E186E200E40
:1007D000196E410E1A6E34C01BF035C01CF036C0C5
:1007E0001DF037C01EF0FAEC1CF0D8B009D0000E96
:1007F00001010101DE6F000E0101DF6F400E08D024
:10080000000E01010101DE6F000E0101DF6F800E9D
:100810000101E06F400E0101E16F020E3F5C000E2E
:100820004058D8B022D0000E00010001C76F000E62
:100830000001C86F480E0001C96F420E0001CA6F67
:1008400046C0C3F047C0C4F048C0C5F049C0C6F0B8
:100850007CEC0FF0C6C024F0C5C023F0C4C022F069
:10086000C3C021F054EC1BF071D0050E3F5C000EAC
:100870004058D8B022D0000E00010001C76F000E12
:100880000001C86F480E0001C96F420E0001CA6F17
:1008900046C0C3F047C0C4F048C0C5F049C0C6F068
:1008A0007CEC0FF0C6C024F0C5C023F0C4C022F019
:1008B000C3C021F054EC1BF049D00A0E3F5C000E7F
:1008C0004058D8B022D0000E00010001C76F000EC2
:1008D0000001C86F480E0001C96F420E0001CA6FC7
:1008E00046C0C3F047C0C4F048C0C5F049C0C6F018
:1008F0007CEC0FF0C6C024F0C5C023F0C4C022F0C9
:10090000C3C021F054EC1BF021D0000E0001000107
:10091000C76F000E0001C86F480E0001C96F420E7C
:100920000001CA6F46C0C3F047C0C4F048C0C5F05C
:1009300049C0C6F07CEC0FF0C6C024F0C5C023F05F
:10094000C4C022F0C3C021F054EC1BF021C072F0EF
:1009500022C073F0020E000100016D6F080E00014D
:100960006C6F6CD03E50800A800F9C0ED8B43D5CFA
:10097000D8B010D0C5C2D3F0C6C2D4F0FF0E00016B
:10098000D32500010001726FFF0E0001D421000188
:10099000736F54D03E50800A7F0F7D0ED8B43D5CFB
:1009A000D8B020D0D8903D340001D36F3E34000140
:1009B000D46FC80E0001D3250001D56FFE0E0001D3
:1009C000D4210001D66FC50E0001D525D96E020EC7
:1009D0000001D621DA6E0001DECF72F00001DDCF1A
:1009E00073F02CD00101010E276E01018A0E266ED4
:1009F000DAC128F0DBC129F076C02AF077C02BF0ED
:100A0000DCC12CF0DDC12DF074C02EF075C02FF0CC
:100A1000000E316E0A0E306EC6EC0AF00101010EB6
:100A2000246E01018A0E236E3DC025F03EC026F0E3
:100A30002AEC17F023C072F024C073F0000100010B
:100A400080510C0A8111D8A41200FF0E0001000190
:100A500092250001D36FFF0E0001000193210001D8
:100A6000D46F3F500001D35D40500001D459D8B03D
:100A70001200000E00010001AB6F010E0001AA6F11
:100A800046C0C7F047C0C8F048C0C9F049C0CAF066
:100A900072C02EF073C02FF0D2EC23F031C0C6F03C
:100AA00030C0C5F02FC0C4F02EC0C3F07CEC0FF0F6
:100AB000C6C024F0C5C023F0C4C022F0C3C021F0DA
:100AC00054EC1BF021C072F022C073F0010E000143
:100AD00000016D6FFA0E00016C6F1200620E0201D0
:100AE00002018A6FA10E02018B6FF60E02018C6F5C
:100AF0003E0E02018D6F39C080F23AC081F249EC9E
:100B000020F083C289F282C288F281C287F280C259
:100B100086F28BEC0EF089C299F288C298F287C2F5
:100B200097F286C296F2CD0E020102019A6FCC0EA8
:100B300002019B6F420E02019C6FC20E02019D6F6B
:100B400030EC09F099C245F098C244F097C243F0E6
:100B500096C242F042C0F6F143C0F7F144C0F8F14A
:100B600045C0F9F1000E01010101FA6F000E01010B
:100B7000FB6F700E0101FC6FC10E0101FD6F0AECED
:100B800016F0D8A019D042C0F6F143C0F7F144C026
:100B9000F8F145C0F9F1000E01010101FA6F000EF4
:100BA0000101FB6F200E0101FC6FC10E0101FD6F01
:100BB0000AEC16F0D8B006D0000E00010001896FD3
:100BC0003C0E1ED042C0F6F143C0F7F144C0F8F12C
:100BD00045C0F9F1000E01010101FA6F000E01019B
:100BE000FB6FA00E0101FC6FC00E0101FD6F0AEC4E
:100BF00016F0D8B00DD0000E00010001896F370E3D
:100C00000001886F020E000100018D6F580E2FD178
:100C100045AE06D0000E00010001896F320E5CD097
:100C200042C0F6F143C0F7F144C0F8F145C0F9F114
:100C3000000E01010101FA6F000E0101FB6FA00E11
:100C40000101FC6F400E0101FD6F0AEC16F0D8B0F7
:100C500006D0000E00010001896F2D0E3DD042C06C
:100C6000F6F143C0F7F144C0F8F145C0F9F1000EC8
:100C700001010101FA6F000E0101FB6F700E01010D
:100C8000FC6F410E0101FD6F0AEC16F0D8B006D0E2
:100C9000000E00010001896F1E0E1ED042C0F6F149
:100CA00043C0F7F144C0F8F145C0F9F1000E01016D
:100CB0000101FA6F000E0101FB6FA00E0101FC6F34
:100CC000410E0101FD6F0AEC16F0D8B00DD0000EF8
:100CD00000010001896F190E0001886F010E0001EB
:100CE00000018D6FF40EC3D042C0F6F143C0F7F19E
:100CF00044C0F8F145C0F9F1000E01010101FA6F9D
:100D0000000E0101FB6FF00E0101FC6F410E0101AD
:100D1000FD6F0AEC16F0D8B00DD0000E00010001F6
:100D2000896F0F0E0001886F010E000100018D6FA9
:100D3000900E9DD042C0F6F143C0F7F144C0F8F1E7
:100D400045C0F9F1000E01010101FA6F000E010129
:100D5000FB6F200E0101FC6F420E0101FD6F0AECDA
:100D600016F0D8B00DD0000E00010001896F090EF9
:100D70000001886F010E000100018D6F2C0E77D0ED
:100D800042C0F6F143C0F7F144C0F8F145C0F9F1B3
:100D9000000E01010101FA6F000E0101FB6F480E08
:100DA0000101FC6F420E0101FD6F0AEC16F0D8B094
:100DB0000DD0000E00010001896F080E0001886F40
:100DC000000E000100018D6FC80E51D042C0F6F137
:100DD00043C0F7F144C0F8F145C0F9F1000E01013C
:100DE0000101FA6F000E0101FB6F820E0101FC6F21
:100DF000420E0101FD6F0AEC16F0D8B00DD0000EC6
:100E000000010001896F060E0001886F000E0001CD
:100E100000018D6F640E2BD042C0F6F143C0F7F194
:100E200044C0F8F145C0F9F1000E01010101FA6F6B
:100E3000000E0101FB6FA00E0101FC6F420E0101CB
:100E4000FD6F0AEC16F0D8B006D0000E00010001CC
:100E5000896F020E05D0000E00010001896F010E9E
:100E60000001886F000E000100018D6F0A0E000165
:100E70008C6F000E00010001896F0A0E0001886F5F
:100E800000010001BC05D8A40ED0000E0001000135
:100E9000896F010E0001886F000E000100018D6F47
:100EA000320E00018C6F00010001BC51030AD8A46E
:100EB0001200030E000100018D6F200E00018C6FE7
:100EC00012000201926F000E02010201966F0201F0
:100ED0009251020120EE0AF002018651D926020148
:100EE0008751DA22020190C2DEFF020191C2DDFFCA
:100EF000020102018D51800A0201926F02018851A4
:100F0000020102018C5D020102018951800A020185
:100F10009259D8A038D086C2D9FF87C2DAFF020121
:100F200088C2DEFF020189C2DDFF020120EE04F06B
:100F300002018651D92602018751DA2202018CC2B0
:100F4000DEFF02018DC2DDFF020120EE02F0020190
:100F50008651D92602018751DA2202018AC2DEFFB8
:100F600002018BC2DDFF020120EE06F00201865174
:100F7000D92602018751DA2202018EC2DEFF020168
:100F80008FC2DDFF3FD086C2D9FF87C2DAFF0201E0
:100F90008CC2DEFF02018DC2DDFF020120EE04F0F3
:100FA00002018651D92602018751DA22020188C244
:100FB000DEFF020189C2DDFF020120EE02F0020124
:100FC0008651D92602018751DA2202018EC2DEFF44
:100FD00002018FC2DDFF020120EE06F00201865100
:100FE000D92602018751DA2202018AC2DEFF0201FC
:100FF0008BC2DDFF0201926F010E02010201966FAA
:1010000002019251020102018D510201020189196E
:1010100006E1020102018C51020102018819D8A4E3
:101020000ED0020120EE08F002018651D9260201FD
:101030008751DA22FF0EDE6E7F0EDD6E1200020196
:101040008AC292F202018BC293F20201921F931F95
:10105000924B932B020102018E5102019225020153
:1010600002019F6F020102018F51020193210201CF
:10107000A06F020188C292F2020189C293F20201BA
:10108000921F931F924B932B020102018C5102017C
:101090009225020102019B6F020102018D510201A2
:1010A000932102019C6F7F0E020102019E6FFF0ED1
:1010B00002019D6F9BC2F6F19CC2F7F1F7EC24F0A0
:1010C0000101F6C197F20101F7C198F29FC2F6F152
:1010D000A0C2F7F1F7EC24F00101F6C199F2010189
:1010E000F7C19AF202010201905100080201926FC9
:1010F0000F0E02019227020199C293F202019AC2D5
:1011000094F20201922B04D002019435943393336C
:101110000201922FF9D702019451800A0201956FC2
:101120000201020197510201935D020102019851EF
:10113000800A02019559D8B044D002019FC292F2B0
:101140000201A0C293F2000E020193BFFF0E946F42
:10115000956F0201020190510201E82A05D0D89052
:101160009237933794379537E82EF9D795C2F9F12E
:1011700094C2F8F193C2F7F192C2F6F102010101B3
:101180009BC2FAF1020101019CC2FBF10101000EB8
:101190000101FBBFFF0E0101FC6F0101FD6F15ECAA
:1011A00013F0020120EE08F002018651D926020157
:1011B0008751DA220101F6C1DEFF0101F7C1DDFF2F
:1011C00012000201926F010E02010201966F0201EC
:1011D000925102010201A0519F11D8A40ED0020128
:1011E00020EE08F002018651D92602018751DA2249
:1011F000000EDE6E000EDD6E120002010201A05133
:10120000800A800F010ED8B49F5DD8A010D00201D3
:1012100020EE08F002018651D92602018751DA2218
:1012200002019DC2DEFF02019EC2DDFF120002012B
:101230009DC292F202019EC293F20201921F931F7D
:10124000924B932B020120EE08F002018651D92621
:1012500002018751DA2292C2DEFF93C2DDFF120043
:10126000020198350201993502010201A16F0201C4
:101270009C3502019D3502010201A06F02010201AD
:10128000A151D8B415D002010201A05102010201FE
:10129000A16117D002010201A1510008020102015F
:1012A000A02502019E6F210E02019E5DD8A009D0EB
:1012B0009AC296F29BC297F29CC298F29DC299F292
:1012C000120002010201A051D8B415D0020102019E
:1012D000A15102010201A06117D002010201A05137
:1012E000000802010201A12502019E6F210E0201E8
:1012F0009E5DD8A009D096C296F297C297F298C286
:1013000098F299C299F2120002019E6F060E020134
:1013100002019F6F02019E510201020199AF03D0A9
:10132000020102019F8F020102019DAF03D0020161
:1013300002019F8D02010201988FFF0E020102013E
:101340009617FF0E02019717FF0E02019817000E65
:1013500002019917020102019C8FFF0E0201020196
:101360009A17FF0E02019B17FF0E02019C17000E39
:1013700002019D1702010201A05102010201A161B7
:1013800033D00201D89002019A3702019B37020143
:101390009C3702019D3702010201A00702010201F0
:1013A000A05102010201A119D8B416D00201020114
:1013B0009F0702019F51070BD8B40ED0E2D702015C
:1013C000D890020199330201983302019733020148
:1013D000963302010201A12B02010201A051020178
:1013E0000201A163ECD739D002010201A15102012F
:1013F0000201A06132D00201D890020196370201A9
:101400009737020198370201993702010201A107BB
:1014100002010201A05102010201A119D8B416D0A3
:10142000020102019F0702019F51070BD8B40ED0A1
:10143000E2D70201D89002019D3302019C330201E0
:101440009B3302019A3302010201A02B0201020127
:10145000A05102010201A163ECD7020102019FAF7A
:101460001AD0FF0E02010201961BFF0E0201971B0C
:10147000FF0E0201981BFF0E0201991B010E0201D3
:1014800002019627000E02019723000E0201982305
:10149000000E02019923020102019FAD1AD0FF0E36
:1014A000020102019A1BFF0E02019B1BFF0E0201AB
:1014B0009C1BFF0E02019D1B010E020102019A27D7
:1014C000000E02019B23000E02019C23000E02016C
:1014D0009D2302019E6F000E020102019F6F020117
:1014E0009E51020102019651020102019A27020156
:1014F00002019751020102019B230201020198514E
:10150000020102019C230201020199510201020120
:101510009D23020102019DAF22D0FF0E02010201B4
:101520009A1BFF0E02019B1BFF0E02019C1BFF0E6C
:1015300002019D1B010E020102019A27000E020109
:101540009B23000E02019C23000E02019D23020139
:101550009E6F010E020102019F6F02019E519AC20D
:10156000F6F19BC2F7F19CC2F8F19DC2F9F1A1C25C
:10157000FAF19FC2FBF13CEC12F0F9C199F2F8C10B
:1015800098F2F7C197F2F6C196F212000001C36F0C
:10159000000E00010001C76F0001C35120EE0AF0E8
:1015A0002650D9262750DA2230C0DEFF31C0DDFFB9
:1015B0002D50800A0001C36F28502C5C2950800AEE
:1015C0000001C359D8A027D026C0D9FF27C0DAFF11
:1015D00028C0DEFF29C0DDFF20EE04F02650D9260A
:1015E0002750DA222CC0DEFF2DC0DDFF20EE02F0F6
:1015F0002650D9262750DA222AC0DEFF2BC0DDFF75
:1016000020EE06F02650D9262750DA222EC0DEFF23
:101610002FC0DDFF2ED026C0D9FF27C0DAFF2CC097
:10162000DEFF2DC0DDFF20EE04F02650D926275026
:10163000DA2228C0DEFF29C0DDFF20EE02F02650AE
:10164000D9262750DA222EC0DEFF2FC0DDFF20EE84
:1016500006F02650D9262750DA222AC0DEFF2BC0FA
:10166000DDFF0001C36F010E00010001C76F000123
:10167000C3512D50291802E12C502818D8A40BD0A2
:1016800020EE08F02650D9262750DA22FF0EDE6E13
:101690007F0EDD6E12002AC0C3F02BC0C4F0000123
:1016A000C31FC41FC34BC42B2E500001C325000110
:1016B0000001D06F2F500001C4210001D16F28C05C
:1016C000C3F029C0C4F00001C31FC41FC34BC42B07
:1016D0002C500001C32500010001CC6F2D500001EA
:1016E000C4210001CD6F7F0E00010001CF6FFF0EFE
:1016F0000001CE6FCCC017F0CDC018F07FEC25F004
:1017000017C0C8F018C0C9F0D0C017F0D1C018F089
:101710007FEC25F017C0CAF018C0CBF0305000089D
:101720000001C36F0F0E0001C3270001CAC0C4F03F
:101730000001CBC0C5F00001C32B04D00001C535AA
:10174000C533C4330001C32FF9D70001C551800A46
:101750000001C66F00010001C8510001C45D000115
:101760000001C951800A0001C659D8B037D0000124
:10177000D0C0C3F00001D1C0C4F0000E0001C4BF4E
:10178000FF0EC56FC66F30500001E82A05D0D89013
:10179000C337C437C537C637E82EF9D7C6C01AF0E5
:1017A000C5C019F0C4C018F0C3C017F00001CCC008
:1017B0001BF00001CDC01CF0000E1CBEFF0E1D6E04
:1017C0001E6EC0EC1BF020EE08F02650D9262750E4
:1017D000DA2217C0DEFF18C0DDFF12000001C36F60
:1017E000010E00010001C76F0001C351000100019B
:1017F000D151D011D8A40BD020EE08F02650D92614
:101800002750DA22000EDE6E000EDD6E120000019F
:101810000001D151800A800F010ED8B4D05DD8A04C
:101820000DD020EE08F02650D9262750DA220001EC
:10183000CEC0DEFF0001CFC0DDFF12000001CEC030
:10184000C3F00001CFC0C4F00001C31FC41FC34BCD
:10185000C42B20EE08F02650D9262750DA22C3C028
:10186000DEFFC4C0DDFF120000010001BC51030A0D
:10187000D8A486D0020E01010101B56F260E010128
:10188000B46F010E01010101B76FFE0E0101B66FC9
:10189000010E01010101B96FFE0E0101B86F010EC9
:1018A00001010101BB6FFE0E0101BA6F010E0101C2
:1018B0000101BD6FFF0E0101BC6F010E01010101AD
:1018C000BF6FFF0E0101BE6F010E01010101C16F6B
:1018D000FF0E0101C06F010E01010101C36FFF0E78
:1018E0000101C26F010E01010101C56FB90E0101B5
:1018F000C46F010E01010101C76F910E0101C66F96
:10190000020E010101019D6F120E01019C6F020E7A
:10191000010101019F6F090E01019E6F010E01017E
:101920000101A16FFF0E0101A06F010E0101010174
:10193000A36FFF0E0101A26F010E01010101A56F4E
:10194000FF0E0101A46F010E01010101A76FFF0E3F
:101950000101A66F010E01010101A96FFF0E010136
:10196000A86F010E01010101AB6FB90E0101AA6F51
:10197000010E01010101AD6F910E0101AC6F12006A
:1019800000010001BC05D8A41200000E01010101F4
:10199000B16FC80E0101B06F000E01010101B36FFC
:1019A000C80E0101B26F000E01010101B56FC80E32
:1019B0000101B46F000E01010101B76FC80E0101F2
:1019C000B66F000E01010101B96FC80E0101B86FB9
:1019D000000E01010101BB6FC80E0101BA6F000EBC
:1019E00001010101BD6FC80E0101BC6F000E0101B4
:1019F0000101BF6FC80E0101BE6F000E01010101A0
:101A0000C16FC80E0101C06F000E01010101C36F5B
:101A1000C80E0101C26F000E01010101C56FC80EA1
:101A20000101C46F000E01010101C76FC80E010161
:101A3000C66F010E01010101976F5E0E0101966FE5
:101A4000010E01010101996F5E0E0101986F010EF7
:101A5000010101019B6F5E0E01019A6F000E0101F1
:101A600001019D6FC80E01019C6F000E0101010173
:101A70009F6FC80E01019E6F000E01010101A16F51
:101A8000C80E0101A06F000E01010101A36FC80E75
:101A90000101A26F000E01010101A56FC80E010135
:101AA000A46F000E01010101A76FC80E0101A66F0E
:101AB000000E01010101A96FC80E0101A86F000EFF
:101AC00001010101AB6FC80E0101AA6F000E0101F7
:101AD0000101AD6FC80E0101AC6F12001E0E0001B6
:101AE000000186250001D76F000E0001000187214B
:101AF0000001D86F39500001D75D3A500001D85924
:101B0000D8A012D00F0E0001000186250001D76F6A
:101B1000000E0001000187210001D86F395000013B
:101B2000D75D3A500001D859000E00010001B16F95
:101B3000000E0001B06F3DC0A4F03EC0A5F0000152
:101B4000D76F870E196E0001D75193EC25F019C09D
:101B50003DF01AC03EF040503F10D8A4AAD042C079
:101B600034F043C035F044C036F045C037F0000EC5
:101B7000176E000E186E700E196E420E1A6E34C07B
:101B80001BF035C01CF036C01DF037C01EF0FAEC5B
:101B90001CF0D8B00AD0C5C272F0C6C273F0010EF4
:101BA000000100016D6FFA0E1AD0000E176E000EC4
:101BB000186E480E196E420E1A6E34C01BF035C0F6
:101BC0001CF036C01DF037C01EF0FAEC1CF0D8B087
:101BD00009D0000E00010001736F5A0E1CD00001E5
:101BE0006C6F67D0000E176E000E186E200E196E07
:101BF000420E1A6E34C01BF035C01CF036C01DF00A
:101C000037C01EF0FAEC1CF0D8B00DD0000E000169
:101C10000001736F640E0001726F020E000100017B
:101C20006D6F080EDCD7000E176E000E186E200EBA
:101C3000196E410E1A6E34C01BF035C01CF036C050
:101C40001DF037C01EF0FAEC1CF0D8B017D0020E11
:101C500000010001736F260E0001726F020E000179
:101C600000016D6F300E00016C6F000E010101016B
:101C7000DE6F000E0101DF6F800E16D0020E000134
:101C80000001736FEE0E0001726F020E0001000181
:101C90006D6F3A0E00016C6F000E01010101DE6FE5
:101CA000000E0101DF6FC00E0101E06F400E010167
:101CB000E16F000E0F010F01576F0001000172412B
:101CC000E842C00B0F010F01586F000172C0D7F03E
:101CD000000173C0D8F00001D835D833D7330001E4
:101CE000D835D833D7330001D7510F010F01596FC1
:101CF0004150D8B40BD0090E0F010F01576F0001EE
:101D00000001B767120018EC03F01200000E406EDD
:101D1000000E3F6E12000201883502018935020172
:101D200002018F6F02018F670ED0000E02010201C7
:101D3000866F000E0201876F000E0201886F000E91
:101D40000201896F120002018C3502018D350201FA
:101D50000201956F020195670ED0000E020102018B
:101D6000866F000E0201876F000E0201886F000E61
:101D70000201896F12000201020195517B0F0201DD
:101D800002018F2789C295F202018D5102010201E1
:101D9000951B800E02010201951702010201888F36
:101DA000020102018C8FFF0E020102018A17FF0E51
:101DB00002018B17FF0E02018C17000E02018D1716
:101DC000000E02010201906F000E0201916F000EE1
:101DD0000201926F000E0201936F02018E6F070ED7
:101DE00002010201946F02018E510201020186A1DB
:101DF00018D0020102018A5102010201902702015A
:101E000002018B51020102019123020102018C5156
:101E1000020102019223020102018D51020102011D
:101E200093230201D8900201893302018833020111
:101E30008733020186330201D89002018A370201FA
:101E40008B3702018C3702018D3702010201942F7A
:101E5000CCD702018E6F110E02010201946F0201B4
:101E60008E510201020186A118D0020102018A519D
:101E7000020102019027020102018B5102010201BD
:101E80009123020102018C510201020192230201FD
:101E900002018D510201020193230201D890020137
:101EA000893302018833020187330201863302013C
:101EB000D89002019333020192330201913302015F
:101EC000903302010201942FCCD790C2F6F191C257
:101ED000F7F192C2F8F193C2F9F18FC2FAF195C20B
:101EE000FBF13CEC12F0F9C189F2F8C188F2F7C1BC
:101EF00087F2F6C186F212000001C5350001C63531
:101F000000010001CC6F0001CC670ED0000E000173
:101F10000001C36F000E0001C46F000E0001C56F09
:101F2000000E0001C66F12000001C9350001CA355C
:101F300000010001D26F0001D2670ED0000E000137
:101F40000001C36F000E0001C46F000E0001C56FD9
:101F5000000E0001C66F120000010001D2517B0F7C
:101F600000010001CC27C6C0D2F00001CA51000117
:101F70000001D21B800E00010001D21700010001F8
:101F8000C58F00010001C98FFF0E00010001C717B6
:101F9000FF0E0001C817FF0E0001C917000E000157
:101FA000CA17000E00010001CD6F000E0001CE6FB8
:101FB000000E0001CF6F000E0001D06F0001CB6F4B
:101FC000070E00010001D16F0001CB51000100019B
:101FD000C3A118D000010001C75100010001CD27A5
:101FE00000010001C85100010001CE2300010001E1
:101FF000C95100010001CF2300010001CA510001B5
:102000000001D0230001D8900001C6330001C53380
:102010000001C4330001C3330001D8900001C73769
:102020000001C8370001C9370001CA3700010001AB
:10203000D12FCCD70001CB6F110E00010001D16F61
:102040000001CB5100010001C3A118D00001000123
:10205000C75100010001CD2700010001C851000156
:102060000001CE2300010001C95100010001CF236E
:1020700000010001CA5100010001D0230001D890E5
:102080000001C6330001C5330001C4330001C3336E
:102090000001D8900001D0330001CF330001CE33CE
:1020A0000001CD3300010001D12FCCD7CDC017F0F6
:1020B000CEC018F0CFC019F0D0C01AF0CCC01BF0C1
:1020C000D2C01CF030EC18F01AC0C6F019C0C5F030
:1020D00018C0C4F017C0C3F012009A0E020102012A
:1020E0008A6F990E02018B6F990E02018C6F3F0E61
:1020F00002018D6FC5C280F2C6C281F2EFEC22F000
:1021000083C289F282C288F281C287F280C286F2DB
:102110008BEC0EF089C299F288C298F287C297F2CE
:1021200086C296F2BFEC14F096C2CAF197C2CBF108
:10213000000E020102018A6F000E02018B6F200E59
:1021400002018C6F400E02018D6FC5C280F2C6C2C3
:1021500081F2EFEC22F083C289F282C288F281C25E
:1021600087F280C286F28BEC0EF089C299F288C2A7
:1021700098F287C297F286C296F2BFEC14F096C22C
:10218000CCF197C2CDF19A0E020102018A6F990E2D
:1021900002018B6F990E02018C6F3F0E02018D6F51
:1021A000C5C280F2C6C281F2EFEC22F083C289F28E
:1021B00082C288F281C287F280C286F28BEC0EF076
:1021C00089C299F288C298F287C297F286C296F2C3
:1021D000BFEC14F096C2CEF197C2CFF19A0E020175
:1021E00002018A6F990E02018B6F390E02018C6F0A
:1021F000400E02018D6FC5C280F2C6C281F2EFECC3
:1022000022F083C289F282C288F281C287F280C240
:1022100086F28BEC0EF089C299F288C298F287C2DE
:1022200097F286C296F2BFEC14F096C2D0F197C234
:10223000D1F185C476F086C477F0000E0201020168
:102240008A6F000E02018B6FC00E02018C6F3F0E71
:1022500002018D6F85C480F286C481F2EFEC22F01A
:1022600083C289F282C288F281C287F280C286F27A
:102270008BEC0EF089C299F288C298F287C297F26D
:1022800086C296F2BFEC14F096C274F097C275F055
:1022900024EE85F0DECFA0F2DDCFA1F2D8900201CE
:1022A000A03500010001906F0201A1350001916F7E
:1022B00017EC23F012002C002C002C002E002E0016
:1022C0002E002F002F002F0031003100310031008F
:1022D0003300330033003300340034003400340062
:1022E00035003500350035003800370037003A003A
:1022F0003A003A003A003B003C003D003E003D0001
:102300003D003F003F0040004000400041004200CF
:102310004200440044004500450046004600460097
:1023200047004700480048004900490049004A006A
:102330004A004A004A004C004C004B004B004D0044
:102340004D004D004E00500051005300520054000B
:1023500053005500580058005800580058005900C4
:1023600059005A005B005B005C005D005D005E0090
:102370005E005D005D0060005F005F006000600067
:102380006100620063006300630063006400640036
:10239000670067006800680068006A006A006900FA
:1023A0006B006B006C006D006C006C006D006E00CB
:1023B0006E006E007000700070007100710071009E
:1023C0007400750075007400770076007600770061
:1023D000770078007800790079007A007B007B0034
:1023E0007B008000800082008100810083008300E8
:1023F00083008500850084008400850086008600B7
:102400008700870087008800880088008A008B008A
:102410008A008A008A008B008E008E008E008F005A
:102420008F00910092009100920092009600960019
:1024300095009300940094009400950095009500F9
:10244000970099009B009A009A009B009B009A00BD
:102450009C009C009C009D009E009D009E009E0094
:102460009E009F009F009F00A0009F00A000A10071
:10247000A200A100A200A20001010101FA51D8B4FA
:1024800008D001010101F951F611F711F811D8A492
:102490001BD0000E01010101F66F000E0101F76F64
:1024A000000E0101F86F000E0101F96F1200010129
:1024B0000101FA2B0101D8900101F9330101F83330
:1024C0000101F7330101F633000E01010101F61598
:1024D0000101FC6F000E01010101F7150101FD6F03
:1024E000000E01010101F8150101FE6FFE0E010150
:1024F0000101F9150101FF6F0101FF51FC11FD11EF
:10250000FE11D8B41BD0D3D701010101FA2B010E63
:1025100001010101F627000E0101F723000E010160
:10252000F823000E0101F9230101D8900101F933CC
:102530000101F8330101F7330101F633000E010107
:102540000101F6150101FC6F000E01010101F715F3
:102550000101FD6F000E01010101F8150101FE6F7F
:10256000FF0E01010101F9150101FF6F0101FF518A
:10257000FC11FD11FE11D8B40ED0C6D70101010126
:10258000FA070101D8900101F6370101F73701017F
:10259000F8370101F93701010101F8AFEFD7010167
:1025A0000101FAB10DD0FF0E01010101F617FF0E76
:1025B0000101F7177F0E0101F817FF0E0101F9174E
:1025C0000101D890FA330101FAC1FCF10101FD6B60
:1025D000FE6BFF6BFCC1FFF10101FE6BFD6BFC6B41
:1025E0000101FC5101010101F6130101FD5101013D
:1025F0000101F7130101FE5101010101F81301016D
:10260000FF5101010101F91301010101FB51D8B48E
:1026100003D001010101F98FF6C1F6F1F7C1F7F11D
:10262000F8C1F8F1F9C1F9F112000101FE6F000ED5
:1026300002010201816F0101FE5101010101FDAFA3
:1026400018D001010101FD1F0101FC1F0101FB1F49
:102650000101FA6D000E0101FB230101FC230101C0
:10266000FD230101FE6F010E02010201816F0101D4
:10267000FE5101010101F9AF14D001010101F91F5F
:102680000101F81F0101F71F0101F66D000E0101A4
:10269000F7230101F8230101F923010E02010201D0
:1026A000811B000E02010201826F000E0201836F86
:1026B000000E0201846F000E0201856F010101010D
:1026C000FD51FA11FB11FC11D8B467D00101FE6F66
:1026D000010E02010201806F0101FE510DD00101C6
:1026E000D8900101FA370101FB370101FC370101E4
:1026F000FD3702010201802B01010101FDAFEFD77F
:102700000201D89002018237020183370201843727
:102710000201853701010101FA5101010101F65D54
:1027200001010101FB5101010101F7590101010101
:10273000FC5101010101F85901010101FD510101A3
:102740000101F959D8A01BD001010101FA51010181
:102750000101F65F01010101FB5101010101F75B7C
:1027600001010101FC5101010101F85B01010101BD
:10277000FD5101010101F95B0201020182810101A8
:10278000D8900101FD330101FC330101FB3301014C
:10279000FA3302010201802FB3D7020102018151F5
:1027A000D8B410D002010201851F0201841F02016A
:1027B000831F0201826D000E020183230201842324
:1027C0000201852382C2F6F183C2F7F184C2F8F1D7
:1027D00085C2F9F1120000010001BC51030AD8A41E
:1027E0006FD0000E00010001B36F000E0001B26F48
:1027F00000010001B351800A800F0C0ED8B4B25D05
:10280000D8B05ED00001B2C096F20001B3C097F21A
:102810000201D890963797370201D89096379737AC
:102820000201300E02019625D96E0201020E02014C
:102830009721DA6E0201DECF86F20201DECF87F247
:102840000201DECF88F20201DECF89F2660E0201BC
:1028500002018A6F660E02018B6F660E02018C6F99
:102860003F0E02018D6F8BEC0EF00001B2C098F2AA
:102870000001B3C099F20201D8909837993702014C
:10288000D890983799370201300E02019825D96EF9
:102890000201020E02019921DA6E020186C2DEFFF8
:1028A000020187C2DEFF020188C2DEFF020189C287
:1028B000DDFFD906D90600010001B24BB32B98D732
:1028C00000010001BC05D8A41200000E00010001A7
:1028D000B36F030E0001B26F00010001B351800A13
:1028E000800F0C0ED8B4B25DD8B012000001B2C097
:1028F00096F20001B3C097F20201D890963797374D
:102900000201D890963797370201000E02019625F2
:10291000D96E0201020E02019721DA6E000EDE6E00
:10292000000EDE6E800EDE6E3F0EDD6EDD52DD527D
:102930000001B2C096F20001B3C097F20201D89034
:10294000963797370201D890963797370201300EA5
:1029500002019625D96E0201020E02019721DA6E5C
:10296000000EDE6E000EDE6E800EDE6E3F0EDD6E41
:10297000DD52DD5200010001B24BB32BADD7020195
:10298000983502019935020102019F6F02019F678C
:102990000ED0000E02010201966F000E0201976F29
:1029A000000E0201986F000E0201996F12000201E1
:1029B00096C29AF2020197C29BF2020198C29CF25F
:1029C000020199C29DF2200E06D00201D8909D33DB
:1029D0009C339B339A33E82EF8D702019A510201B7
:1029E00002019E6F02010201988FFF0E0201020197
:1029F0009617FF0E02019717FF0E02019817000E9F
:102A000002019917960E020102019F5F0201020165
:102A10009FAF24D0020102019F51800A970FD8B0C6
:102A20000ED0000E02010201966F000E0201976F98
:102A3000000E0201986F000E0201996F1200020150
:102A4000D8900201993302019833020197330201B1
:102A50009633020102019F3FF2D724D01F0E0201DC
:102A600002019F651BD0000E02010201966F000E4D
:102A70000201976F000E0201986F000E0201996F1C
:102A800012000201D8900201963702019737020125
:102A9000983702019937020102019F0702010201E2
:102AA0009F67EFD7020102019E51D8B410D00201F6
:102AB0000201991F0201981F0201971F0201966DE2
:102AC000000E02019723020198230201992396C266
:102AD00096F297C297F298C298F299C299F21200B0
:102AE0000101F86F000E01010101FD6F0101F851B4
:102AF00070C0FBF171C0FCF10101F86F000E010123
:102B00000101FE6F0101F8510101F86F000E010192
:102B10000101FF6F0101F8510101F86FB00E0101D1
:102B20000101FD6F0101F85100016CC0F8F10001D5
:102B30006DC0F9F1060E0101FA6F0101D890F93369
:102B4000F8330101FA2FF9D70101F8510F0B0101F8
:102B50000101FD1101010101FE6F000100016C4541
:102B6000E846FC0B01010101FF6F8A98FEC1F6F1F6
:102B700006EC26F0FFC1F6F106EC26F08A8801018A
:102B8000F86F000E01010101FD6F0101F851010113
:102B9000F86F000E01010101FE6F0101F851010102
:102BA000F86F000E01010101FF6F0101F8510101F1
:102BB000F86F300E01010101FD6F0101F8510101B3
:102BC000FBC1F8F10101FCC1F9F1060E0101FA6F38
:102BD0000101D890F933F8330101FA2FF9D7010137
:102BE000F85101010101FD1101010101FE6F010117
:102BF0000101FB45E846FC0B01010101FF6F8A98CA
:102C0000FEC1F6F106EC26F0FFC1F6F106EC26F067
:102C10008A88120001010101F9AF2BD00101F6C130
:102C200080F20101F7C181F20101F8C182F20101D4
:102C3000F9C183F20201801F811F821F831F802B35
:102C4000000E812382238323000E020180250101CF
:102C50000101F66F000E020181210101F76F000EE4
:102C6000020182210101F86F800E0201832101011E
:102C7000F96F01010101FDAF2BD00101FAC180F212
:102C80000101FBC181F20101FCC182F20101FDC120
:102C900083F20201801F811F821F831F802B000E81
:102CA000812382238323000E02018025010101017B
:102CB000FA6F000E020181210101FB6F000E02017B
:102CC00082210101FC6F800E020183210101FD6F51
:102CD000000E01010101F61B000E0101F71B000EA1
:102CE0000101F81B800E0101F91B000E0101010119
:102CF000FA1B000E0101FB1B000E0101FC1B800EE4
:102D00000101FD1B01010101FA5101010101F65D03
:102D100001010101FB5101010101F759010101010B
:102D2000FC5101010101F85901010101FD510101AD
:102D30000101F959D8B002D0D8901200D880120001
:102D4000016E000E056E0150030E056401D01200E5
:102D50000550070D0101200EF324D96E0101010E6B
:102D6000F420DA6EDE50DD10D8B46FD00550070DB8
:102D7000020EF326000EF4220101200EF324D96E78
:102D80000101010EF420DA6EDE50DD10D8A44CD023
:102D90000550070D060EF326000EF4220101200E49
:102DA000F324D96E0101010EF420DA6EDF2A0550FA
:102DB000070D040EF326000EF4220101200EF32469
:102DC000D96E0101010EF420DA6EDE50DD10D8B4A8
:102DD0003CD00550070D040EF326000EF42201012D
:102DE000200EF324D96E0101010EF420DA6EDECF3D
:102DF00001F0DDCF02F0FF0E0124036EFF0E022072
:102E0000046E0550070D020EF326000EF422010198
:102E1000200EF324D96E0101010EF420DA6E03C0F6
:102E2000DEFF04C0DDFF11D00550070D020EF326B2
:102E3000000EF4220101200EF324D96E0101010ECF
:102E4000F420DA6EDE06000EDD5A052A030E056454
:102E50007FD7120023C0D9FF24C0DAFFDECF27F0CE
:102E6000DDCF28F02850800A296E2550275C265097
:102E7000800A2958D8A003D020EE02F016D020EE08
:102E800004F02350D9262450DA22DECF27F0DDCFFC
:102E900028F02650800A296E2750255C2850800A89
:102EA0002958D8A00BD020EE06F02350D926245064
:102EB000DA22DECF2CF0DDCF2DF04CD020EE02F068
:102EC0002350D9262450DA22DECF27F0DDCF28F098
:102ED00020EE0AF02350D9262450DA22DF50296E42
:102EE00023C0D9FF24C0DAFFDECF2AF0DDCF2BF0DC
:102EF0002A1E2B1E2A4A2B2A25502A2626502B22F0
:102F00002AC017F02BC018F0000E18BEFF0E196E65
:102F10001A6E20EE08F02350D9262450DA22DECF94
:102F20001BF0DDCF1CF0000E1CBEFF0E1D6E1E6ED2
:102F3000C4EC22F0296601D007D01A341A321932B3
:102F400018321732292EF6D7275017242C6E285006
:102F500018202D6E2CC023F02DC024F0120001018A
:102F6000FC6F000E01010101FD6F0101FC5103D056
:102F700001010101FD2B01010101FD51070D0101BD
:102F8000200EF324D96E0101010EF420DA6EDE501A
:102F9000DD10D8B405D0030E01010101FD65E8D7AD
:102FA00001010101FD51040AD8A409D00101FC6FFF
:102FB000010E00010001C06F0101FC51120001016E
:102FC0000101FD51070D0101200EF324D96E01010D
:102FD000010EF420DA6E0101F6C1DEFF0101F7C136
:102FE000DDFF01010101FD51070D020EF326000E68
:102FF000F4220101200EF324D96E0101010EF42008
:10300000DA6E0101F8C1DEFF0101F9C1DDFF010146
:103010000101FD51070D040EF326000EF4220101FB
:10302000200EF324D96E0101010EF420DA6E0101A5
:10303000FAC1DEFF0101FBC1DDFF01010101FD510C
:10304000070D060EF326000EF4220101200EF324D4
:10305000D96E0101010EF420DA6E000EDF6E12004F
:103060001B50D8B406D01A50171018101910D8A435
:103070000FD0000E176E000E186E000E196E000EA7
:103080001A6E12001B2AD8901A32193218321732CF
:10309000000E17141D6E000E18141E6E000E19146B
:1030A0001F6EFE0E1A14206E20501D101E101F10D1
:1030B000D8B40FD0E7D71B2A010E1726000E18220E
:1030C000000E1922000E1A22D8901A321932183224
:1030D0001732000E17141D6E000E18141E6E000E0F
:1030E00019141F6EFF0E1A14206E20501D101E1092
:1030F0001F10D8B407D0DFD71B06D8901736183664
:1031000019361A3619AEF8D71BB008D0FF0E1716AD
:10311000FF0E18167F0E1916FF0E1A16D8901B32C6
:103120001BC01DF01E6A1F6A206A1DC020F01F6AA6
:103130001E6A1D6A1D5017121E5018121F501912B8
:1031400020501A121C50D8A41A8E17C017F018C09D
:1031500018F019C019F01AC01AF01200000100018D
:10316000BC05D8A424D0010E00010001876F040E15
:103170000001866F000E01010101EF6F460E010193
:10318000EE6F000E01010101ED6F3C0E0101EC6FCD
:10319000000E01010101F36F340E0101F26F000E08
:1031A00001010101F16F2D0E0101F06F120000010C
:1031B0000001BC51030AD8A424D0010E0001000173
:1031C000876F360E0001866F000E01010101EF6F5F
:1031D0005D0E0101EE6F000E01010101ED6F560E53
:1031E0000101EC6F000E01010101F36F500E0101AE
:1031F000F26F000E01010101F16F4B0E0101F06F42
:10320000120000010001BC51020AD8A41200010EF4
:1032100000010001876F160E0001866F000E01018C
:103220000101EF6F3C0E0101EE6F000E0101010183
:10323000ED6F3C0E0101EC6F000E01010101F36F17
:103240003C0E0101F26F000E01010101F16F320E1F
:103250000101F06F1200233424342F6E2F6609D041
:10326000000E216E000E226E000E236E000E246EE4
:10327000120027342834306E306609D0000E216EDB
:10328000000E226E000E236E000E246E12003050CF
:10329000890F2F5E24C030F02850301A800E30166F
:1032A000238EFF0E2116FF0E2216FF0E2316000E90
:1032B0002416278EFF0E2516FF0E2616FF0E271644
:1032C000000E2816296E200E2E6E2950D8902A3610
:1032D0002B362C362D362550215C2650225827506F
:1032E000235828502458D8A009D02550215E2650B4
:1032F000225A2750235A2850245A2A80D8902136FF
:103300002236233624362E2EE1D72AC017F02BC0C2
:1033100018F02CC019F02DC01AF02FC01BF030C0CF
:103320001CF030EC18F01AC024F019C023F018C0BB
:1033300022F017C021F0120002EEA5F0200EEE6A76
:10334000E806FDE101EE00F0960EEE6AE806FDE10A
:1033500000EE95F02E0EEE6AE806FDE100EE34F088
:103360000E0EEE6AE806FDE1B60EF66E220EF76E60
:10337000000EF86E02EEC5F011EEC2F00900F5CFB6
:10338000EEFFE550E150FAE1E250F8E1280EF66E6A
:103390003E0EF76E000EF86E02EE00F010EE80F0BA
:1033A0000900F5CFEEFFE550E150FAE1F40EF66EBC
:1033B000420EF76E000EF86E01EE96F010EE60F021
:1033C0000900F5CFEEFFE550E150FAE1860EF66E0A
:1033D000490EF76E000EF86E00EE60F010EE35F05C
:1033E0000900F5CFEEFFE550E150FAE1F00EF66E80
:1033F0004C0EF76E000EF86E00EE42F010EE08F084
:103400000900F5CFEEFFE550E150FAE1000EF86E4D
:10341000000155EF26F001010101F651070D0101F0
:10342000200EF324D96E0101010EF420DA6EDE5075
:10343000DD10D8A40CD00101F76F020E00010001CD
:10344000C06F0101F7510101F76F010E03D00101B7
:10345000F76F000E01010101F86F0101F751010141
:103460000101F651070D0101200EF324D96E01016F
:10347000010EF420DA6E000EDE6E000EDD6E01012C
:103480000101F651070D020EF326000EF422010190
:10349000200EF324D96E0101010EF420DA6E000E25
:1034A000DE6E000EDD6E01010101F651070D040E06
:1034B000F326000EF4220101200EF324D96E01013F
:1034C000010EF420DA6E000EDE6E000EDD6E0101DC
:1034D0000101F651070D060EF326000EF42201013C
:1034E000200EF324D96E0101010EF420DA6E000ED5
:1034F000DF6E1200000E8CBC010E01010101FF6F96
:103500008C9C000E000100019B6F000E00019A6F61
:103510000101FC6F970E01010101F86F0101FC51DF
:10352000DEEC24F00101F8C1AEF00101F9C1AFF009
:10353000000168C0FCF1000169C0FDF1000100015B
:103540009A510101FC27000100019B510101FD235B
:103550000101FD51800A0101FE6F00010001AE5121
:103560000101FC5D00010001AF51800A0101FE591B
:10357000D8A0120000010001B951D8B41200000116
:103580006AC0FCF100016BC0FDF1000100019A511D
:103590000101FC27000100019B510101FD230001F5
:1035A0000001AF51800A0101FE6FFC5100010001D2
:1035B000AE5D0101FD51800A0101FE59D8A005D080
:1035C00001010101FF51D8B412008C8C12004FECA4
:1035D00024F097EC1CF0D1EC1FF05CEC26F031EC01
:1035E00024F06DEC24F04B0E01010101F76F960EF3
:1035F0000101F66F000E01010101F96F000E0101DA
:10360000F86F000E01010101FB6F0A0E0101FA6F54
:10361000AFEC17F0AFEC23F0340E01010101F76FAE
:10362000F40E0101F66F000E01010101F96F050EA4
:103630000101F86F010E01010101FB6FF40E0101A0
:10364000FA6FAFEC17F04A0E01010101F76FD60EC9
:103650000101F66F000E01010101F96F140E010165
:10366000F86F000E01010101FB6F960E0101FA6F68
:10367000AFEC17F02A0E01010101F76FE00E010116
:10368000F66F000E01010101F96F0C0E0101F86FD8
:10369000010E01010101FB6FF40E0101FA6FAFECA5
:1036A00017F069EC26F01200233424342A6E2A66BF
:1036B00009D0000E216E000E226E000E236E000E49
:1036C000246E120021C025F022C026F023C027F06E
:1036D00024C028F0200E05D0D89028322732263278
:1036E0002532E82EF9D72550296E238EFF0E21169C
:1036F000FF0E2216FF0E2316000E2416960E2A5ECB
:103700002AAE16D02A50800A970FD8B009D0000EE2
:10371000216E000E226E000E236E000E246E12002B
:10372000D89024322332223221322A3EF9D714D0C3
:103730001F0E2A640FD0000E216E000E226E000EA6
:10374000236E000E246E1200D890213622362336C6
:1037500024362A062A66F8D72950D8B408D0241E61
:10376000231E221E216C000E22222322242221C08D
:1037700021F022C022F023C023F024C024F0120044
:103780001F6E000E216E1F501EAE0CD01E1E1D1E81
:103790001C1E1B6C000E1C221D221E221F6E010E01
:1037A000216E1F501AAE0AD01A1E191E181E176C51
:1037B000000E182219221A22010E211A000E226E62
:1037C000000E236E000E246E000E256E1E501B1080
:1037D0001C101D10D8B42CD01F6E010E206E1F506F
:1037E00006D0D8901B361C361D361E36202A1EAE3B
:1037F000F8D7D89022362336243625361B50175C4E
:103800001C5018581D5019581E501A58D8A009D0CD
:103810001B50175E1C50185A1D50195A1E501A5A28
:103820002280D8901E321D321C321B32202EE1D74E
:103830002150D8B408D0251E241E231E226C000E51
:1038400023222422252222C017F023C018F024C0EE
:1038500019F025C01AF012000201A36F000E020138
:103860000201A46F0201A351030E02010201A4652B
:1038700001D0120002010201A451070D060EF32629
:10388000000EF4220101200EF324D96E0101010E75
:10389000F420DA6EDF50D8B441D002010201A45105
:1038A000070D0101200EF324D96E0101010EF42051
:1038B000DA6E01D80AD00500FA6EDE50FD6EDE50D9
:1038C000FE6EF850FF6EFA50120002010201A45180
:1038D000070D060EF326000EF4220101200EF3243C
:1038E000D96E0101010EF420DA6EDF060201020139
:1038F000A451070D040EF326000EF4220101200E40
:10390000F324D96E0101010EF420DA6EDE50DD10D1
:10391000D8A404D0A4C2F6F10BEC1AF00201020103
:10392000A42B030E02010201A465A4D71200010119
:10393000FB6F000E01010101FC6F0101FB51010150
:10394000FB6F000E01010101FD6F0101FB5101013F
:10395000FB6F000E01010101FE6F0101FB517FECC5
:1039600026F0000E0F010F01386F000E0F010F013E
:103970003C6F0F010F0138810F010F0138830F01D8
:103980000F0138850F010F0138870F010F01388BA8
:103990000F010F013C810F010F013C830F010F014B
:1039A0003C859280928292849286928A96809682B8
:1039B00096840101FB6FEE0E01010101FC6F010114
:1039C000FB510101FB6F040E01010101FD6F0101BB
:1039D000FB510101FB6F000E01010101FE6F0101AE
:1039E000FB51FCC1F6F1FDC1F7F1FEC1F8F181EC2C
:1039F00020F012001AAE1DD017C01FF018C020F022
:103A000019C021F01AC022F01F1E201E211E221EE6
:103A10001F2A000E202221222222000E1F24176EB0
:103A2000000E2020186E000E2120196E800E22201C
:103A30001A6E1EAE1DD01BC01FF01CC020F01DC092
:103A400021F01EC022F01F1E201E211E221E1F2A32
:103A5000000E202221222222000E1F241B6E000EA7
:103A600020201C6E000E21201D6E800E22201E6E56
:103A7000000E171A000E181A000E191A800E1A1AC4
:103A8000000E1B1A000E1C1A000E1D1A800E1E1AA4
:103A90001B50175C1C5018581D5019581E501A58AE
:103AA000D8B002D0D8901200D8801200A70E020120
:103AB0000201816FA10E0201806F1F0E020102013F
:103AC000836F0F0E0201826F300E02010201856FBB
:103AD000200E0201846F8A9680C2F8F181C2F9F14A
:103AE0000101FB6F010E01010101FA6F0101FB51A0
:103AF00099EC22F08A86E40E00D000D0E82EFCD7A4
:103B000000D000D08A9682C2F8F183C2F9F1010197
:103B1000FB6F010E01010101FA6F0101FB5199ECEC
:103B200022F08A86E40E00D000D0E82EFCD700D028
:103B300000D08A9684C2F8F185C2F9F10101FB6FC9
:103B4000010E01010101FA6F0101FB5199EC22F014
:103B50008A861200000E01010101FA6F000E0101B8
:103B6000F96F0101F66F000E01010101FB6F010108
:103B7000F65117D001010101FB51020D0101000EA8
:103B8000F324D96E0101010EF420DA6EDE5001013A
:103B90000101F927DD5001010101FA2301010101B1
:103BA000FB2B0F0E01010101FB65E4D70101F9C1F7
:103BB000F6F10101FAC1F7F1040E0101F86F0101FC
:103BC000D890F733F6330101F82FF9D7F6C1F9F1A0
:103BD000F7C1FAF1F9C196F0FAC197F00101F66F59
:103BE000010E00010001956F0101F6511200000E57
:103BF00001010101FA6F000E0101F96F0101F66F79
:103C0000000E01010101FB6F0101F65117D0010106
:103C10000101FB51020D0201A50EF324D96E020130
:103C2000020EF420DA6EDE5001010101F927DD50A9
:103C300001010101FA2301010101FB2B0F0E01011A
:103C40000101FB65E4D70101F9C1F6F10101FAC1F7
:103C5000F7F1040E0101F86F0101D890F733F63344
:103C60000101F82FF9D7F6C1F9F1F7C1FAF1F9C15D
:103C700039F0FAC13AF00101F66F010E386E010118
:103C8000F651120028D0100ED36E9B9C1200200E0D
:103C9000D36E9B9C1200300ED36E9B9C1200400E84
:103CA000D36E9B9C1200500ED36E9B9C1200600E34
:103CB000D36E9B9C1200700ED36E9B9C1200600E04
:103CC000D36E9B8C1200700ED36E9B8C1200100E64
:103CD000D36E9B9C120001010101F651000AD8B479
:103CE000D2D7010AD8B4D3D7030AD8B4D4D7010A9B
:103CF000D8B4D5D7070AD8B4D6D7010AD8B4D7D7FD
:103D0000030AD8B4D8D7010AD8B4D9D70F0AD8B47F
:103D1000DAD7DDD701010101F951F811D8B43AD051
:103D20000101FA6F010E01010101FB6F0101FA515E
:103D300009D0010101010101D890F837F9370101DB
:103D40000101FB2B01010101F9AFF3D701010101D1
:103D5000F85101010101F65D01010101F951010173
:103D60000101F759D8A00CD001010101F85101015E
:103D70000101F65F01010101F95101010101F75B48
:103D8000010101010101D890F933F833010101016A
:103D9000FB2FDCD7F6C1F6F1F7C1F7F11200E9CF3E
:103DA000DBF0EACFDCF0E1CFDDF0E2CFDEF0D9CF1F
:103DB000DFF0DACFE0F0F3CFE1F0F4CFE2F0F6CFCE
:103DC000E3F0F7CFE4F0F8CFE5F0F5CFE6F09EA40E
:103DD00001D001D004D00DEC20F09E9400D09EA024
:103DE00001D001D004D06EEC0DF09E9000D0E6C062
:103DF000F5FFE5C0F8FFE4C0F7FFE3C0F6FFE2C05F
:103E0000F4FFE1C0F3FFE0C0DAFFDFC0D9FFDEC09E
:103E1000E2FFDDC0E1FFDCC0EAFFDBC0E9FFDAC0A2
:103E2000FBFFD9C0FAFF11000000803F0000803F77
:103E30000000803F0000803F0000803F0000803F86
:103E40000000803F0000803F0000803F0000803F76
:103E50000000803F0000803F0000003F0000003F66
:103E60000000003F0000003F0000003F0000003F56
:103E70000000803F0000803F0000803F0000803F46
:103E80000000803F0000803FA1160010500B00088A
:103E9000A8050004D40200026A010001B5008000F8
:103EA0005A0040002D00000088C0F6F189C0F7F1EB
:103EB000000E01010101F96F0A0E0101F86F18EC03
:103EC00021F00101F6C1EAF10101F7C1EBF10101B5
:103ED000FC6F000E01010101FD6F0101FC5113D0C7
:103EE00001010101FD51020D0201A50EF324D96E5D
:103EF0000201020EF420DA6E000EDE6E000EDD6EA0
:103F000001010101FD2B0F0E01010101FD65E8D743
:103F1000000E3A6E000E396E0101FC6F000E386E15
:103F20000101FC51120000010001BD51D8B403D0C1
:103F300010EC25F0120000010001BF51D8B40ED0E2
:103F40000101F76F010E416E0101F751030E0001EF
:103F50000001AD6FE80E0001AC6F06D00101F76FF4
:103F6000000E416E0101F751020E3B5C000E3C5801
:103F7000D8A009D0800E3B5C020E3C58D8B003D0CC
:103F8000E9EC25F0120000010001AC07D8A0AD0754
:103F90000001AC29D8B4AD29D8A4120010EC25F04A
:103FA00012000101F96F000E01010101FA6F010118
:103FB000F9510101F96F000E01010101FB6F0101CF
:103FC000F9510101F96F000E01010101FC6F0101BE
:103FD000F9518A888A86C69A0101F96F020E010199
:103FE0000101FA6F0101F9510101F96F000E0101A0
:103FF0000101FB6F0101F9510101F96F000E01018F
:104000000101FC6F0101F951FAC1F6F1FBC1F7F1B1
:10401000FCC1F8F1E6EC20F01200BAEC25F017C074
:104020009EF018C09FF000010001A151A011D8B46A
:1040300014D00001A0C01BF00001A1C01CF01B1E89
:104040001C1E1B4A1C2A000100019E511B243B6EB2
:10405000000100019F511C203C6E9EC0A0F09FC03B
:10406000A1F0020E3B5C000E3C58D8A00DD0000E13
:104070003B5C100E3C58D8B007D01B6E190E0001E7
:104080000001BF6F1B501200000E3C6E000E3B6E15
:1040900012000201846F000E02010201856F02010D
:1040A00084510201020181AF0AD002010201806D38
:1040B0000201811FD8B0812B02010201852B020170
:1040C000010180C2F6F10201010181C2F7F1010193
:1040D0000101F86B0101F96B0201846F960E010179
:1040E0000101FA6F0201845185C2FBF13CEC12F030
:1040F000F9C183F2F8C182F2F7C181F2F6C180F210
:104100001200000EC26E000EC16E000EC06E0101E4
:104110000101F7517C0BC26EF8C1C1FFF6C1F9F184
:104120000101D890F9370101D890F937380E010113
:10413000F917F6C1FAF10101FA3B0F0EFA17070E53
:104140000101FA1701010101F651800B0101FA1179
:104150000101F911C06E01010101F7AF03D09E9C6E
:104160009D8CF28CC280120018D063EC23F01200F8
:1041700040EC25F012006AEC22F0120093EC1FF0E4
:104180001200DAEC25F0120045EC26F0120085EC66
:1041900026F0120085EC26F0120000010001BE514D
:1041A000000AD8B4E2D7010AD8B4E2D7030AD8B4D7
:1041B000E2D7010AD8B4E2D7070AD8B4E2D7010A95
:1041C000D8B4E2D7FA0AD8B4E2D7E4D73F0EC7167C
:1041D000000EC66E01010101F651C6120101010176
:1041E000F851C71205D0C78C15D0C78CC68812D01D
:1041F00001010101F751000AD8B4F5D7020AD8B479
:10420000F4D7010AD8B4F2D705D0928A94860CD09C
:1042100094960AD001010101F651040AD8B4F5D7E9
:10422000010AD8B4F3D7F4D79488949AC68A1200B6
:1042300001010101F65101010101F803F3CFFAF187
:10424000F4CFFBF101010101F65101010101F90374
:10425000F3CFF4FFF36AF35001010101FA27F450A0
:1042600001010101FB2301010101F75101010101DC
:10427000F803F3CFF4FFF36AF35001010101FA27C9
:10428000F45001010101FB23FAC1F6F1FBC1F7F182
:1042900012000101F66F000E01010101F76F01012B
:1042A000F65113D001010101F751020D0101000E79
:1042B000F324D96E0101010EF420DA6E000EDE6ED9
:1042C000000EDD6E01010101F72B0F0E010101014E
:1042D000F765E8D7000E00010001976F000E00019E
:1042E000966F0101F66F000E00010001956F01014C
:1042F000F6511200FA01FA01FA01FA01FA01FA0183
:10430000FA01FA01FA01FA01FA01FA01FA01FA01D5
:10431000FA01FA01FA01FA01FA01FA01FA01FA01C5
:10432000FA01FA01FA01FA01B700DC00B700DC007B
:104330000000803F0000803F7101BC020000803F10
:104340000000803F0000A041F000500052003C00FF
:10435000460002000101FA6F000E01010101FB6F2E
:104360000101FA510101FA6F000E01010101FC6F18
:104370000101FA51000E01010101F76F000E010168
:10438000F66F2AEC26F00101FA6F910E010101018E
:10439000FB6F0101FA510101FA6F000E01010101E9
:1043A000FC6F0101FA51FBC1F6F1FCC1F7F13DECE4
:1043B00023F012000101FC6F8F0E01010101F86F63
:1043C0000101FC51DEEC24F000010001BB51020DA3
:1043D0000201A50EF324D96E0201020EF420DA6E5A
:1043E0000101F8C1DEFF0101F9C1DDFF000100019B
:1043F000BB2B00010001BB51100AD8A4120001011F
:10440000FC6F000E00010001BB6F0101FC51F7ECD5
:104410001DF012000101FC6F9F0E01010101F86FF8
:104420000101FC51DEEC24F000010001B651020D47
:104430000101000EF324D96E0101010EF420DA6EA1
:104440000101F8C1DEFF0101F9C1DDFF000100013A
:10445000B62B00010001B651100AD8A412000101C8
:10446000FC6F000E00010001B66F0101FC51AAECC7
:104470001DF012000101FA6F000E01010101FB6F36
:104480000101FA510101FA6F000E01010101FC6FF7
:104490000101FA51000E01010101F76F000E010147
:1044A000F66F33EC26F00101FA6F450E01010101B0
:1044B000FB6F0101FA510101FA6F000E01010101C8
:1044C000FC6F0101FA51FBC1F6F1FCC1F7F189EC77
:1044D00023F0120000010001BD51D8B403D010EC4C
:1044E00025F01200ACC0F6F1ADC0F7F1000E0101ED
:1044F0000101F96F320E0101F86F8AEC1EF0010123
:104500000101F7510101F611D8B48A7000010001D0
:10451000AC07D8A0AD070001AC29D8B4AD29D8B4F8
:1045200005D000010001BF51D8B412008BEC24F07B
:10453000120020D001010101F95101010101F66FC2
:1045400006EC26F00009D8A41200F8C1F6F106EC3A
:1045500026F0120001010101F95101010101F66F7C
:10456000F8EC25F00009D8A41200F8C1F6F1F8EC37
:1045700025F0120001010101FA51010AD8B4DAD77D
:10458000030AD8A41200E6D7000E1F6E000E206E9C
:10459000000E216E000E226E17A008D01B501F26A1
:1045A0001C5020221D5021221E502222D8901B3642
:1045B0001C361D361E36D8901A3219321832173270
:1045C0001A50171018101910D8A4E6D71FC017F0EA
:1045D00020C018F021C019F022C01AF01200020108
:1045E000010180C2F6F10201010181C2F7F101016E
:1045F0000101F86B0101F96B0201846F960E010154
:104600000101FA6F020184510201856F000E010160
:104610000101FB6F020185513CEC12F0F9C183F2FC
:10462000F8C182F2F7C181F2F6C180F212000101F5
:10463000FD6F000E02010201806F0101FD51000EAD
:1046400002010201826F000E0201816F0101FD6F04
:10465000090E02010201806F0101FD51000E0F01E0
:104660000F01576F81C258FF0201020182510F01F1
:104670000F01596FAAEC21F0120001010101F7515D
:10468000F30BCC6EF6C1F8F17F0E0101F8170101B2
:10469000D890F835CD6E000ECF6E000ECE6E9E9087
:1046A00001010101F6AF02D09D8001D09D90A49040
:1046B00001010101F7A502D0A38001D0A390CCBED7
:1046C000CC86CD80120000010001BD51D8B403D0CA
:1046D00010EC25F01200386601D012000201A26F22
:1046E000020E00010001BC6F0201A25134EC0CF07B
:1046F000EBEC13F0AEEC18F000010001BA51D8B4A5
:1047000003D056EC25F012006EEC05F013EC24F00B
:10471000120001010101F751F30BB46EF6C1F8F17B
:104720007F0E0101F8170101D890F835B16E000E27
:10473000B36E000EB26EA192A49201010101F6AF18
:1047400002D0A08201D0A09201010101F7A502D000
:10475000A38201D0A392B4BEB486B180120001013D
:10476000010E02010201876F0101720E0201866FC4
:1047700066C088F267C089F262C08AF263C08BF2B9
:1047800064C08CF265C08DF260C08EF261C08FF2A1
:10479000000E02010201916F0A0E0201906F61EC9E
:1047A00007F01200326E000E336E32502FAE05D07D
:1047B0002E6C2F1ED8B02F2A332A2EC017F02FC0F0
:1047C00018F0196A1A6A326E960E1B6E325033C098
:1047D0001CF030EC18F01AC031F019C030F018C0DD
:1047E0002FF017C02EF012000101FA6F000E010128
:1047F0000101FB6F0101FA51C10E01010101F76FC7
:10480000800E0101F66F3CEC26F0F1940101FA6F85
:10481000880E01010101FB6F0101FA51FBC1F6F1A4
:10482000A7EC25F012008C988C8456EC1DF08C8A35
:1048300000010001BC05D8A407D0000E0001000152
:104840006D6F0A0E00016C6F0101FC6F020E00011A
:104850000001BE6F0101FC518CC0ACF08DC0ADF009
:1048600012000101FD6F000E01010101FE6F010147
:10487000FD510101FD6F940E01010101FE6F010167
:10488000FD51040EBD6E0F010F014951FC0B0109D2
:104890000F01496F3AEC22F09E949D841200000EA5
:1048A0000F010F01396F000E936E000E0F010F0103
:1048B0003A6F140E946E000E0F010F013B6F000E45
:1048C000956E8C9A8C948C9C8C908C928C968C8807
:1048D0008C8E8A808A828A8412000101F96F000E10
:1048E00001010101FA6F0101F95107D0FAC1F6F196
:1048F0000BEC1AF001010101FA2B030E0101010179
:10490000FA65F4D70101F96F000E00010001C06FD4
:104910000101F95112000201A26F010E0001000114
:10492000B96F0201A2518A808A920201A26F030E1E
:1049300000010001BE6F0201A251030E000100013F
:10494000AD6FE80E0001AC6F6DEC10F0120028ECBA
:1049500025F08C888C948C9A0101FE6F000E416EBC
:104960000101FE510101FE6F000E00010001B96F4F
:104970000101FE510101FE6F000E00010001BE6F3A
:104980000101FE5112008AFF4C0066011400210251
:104990000902FF011027FF033200660052003508AC
:1049A000D1E0E345181101009A036600F0001E00F3
:1049B0000300DC0501005A0023000800FA0E010183
:1049C0000101FB6F000E0101FA6FF8C1F6F114EC62
:1049D00026F07CEC26F00009D8A4FBD74DEC26F09D
:1049E0000101F6C1F8F10101F7C1F9F1120001016D
:1049F0000101F7AF10D00101F6C1F8F10101F7C1D3
:104A0000F9F10101F81FF91FF84BF92BF8C1F6F184
:104A1000F9C1F7F11200F6C1F6F1F7C1F7F1120092
:104A20008C9A0101F66F000E416E0101F6518C94D3
:104A30008C880101F66F010E00010001B96F0101C0
:104A4000F6518A808A828A9400010001BE691200B0
:104A50002C0E01010101FD6F000E0101FC6F8A9611
:104A6000FCC1F8F1FDC1F9F10101FB6F010E01017B
:104A70000101FA6F0101FB5199EC22F08A861200C4
:104A800000010001BD51D8B403D010EC25F0120094
:104A900000010001AC07D8A0AD070001AC29D8B4D3
:104AA000AD29D8A4120010EC25F012008C988C844B
:104AB00056EC1DF08A900101FC6F010E000100010F
:104AC000BE6F0101FC51750E00010001AD6F300E8B
:104AD0000001AC6F120039C09CF03AC09DF000019B
:104AE00000019D51800A7F0F230ED8B49C5DD8A091
:104AF00003D08C808C8612008C908C96120018AE9D
:104B00000DD017C019F018C01AF0191E1A1E194A34
:104B10001A2A19C017F01AC018F0120017C017F09F
:104B200018C018F01200FA0E1C6E000E1B6E19C091
:104B300017F020EC26F082EC26F00009D8A4FBD771
:104B400073EC26F017C019F018C01AF0120001011A
:104B50000101F6517F0BD56E000ED76E000ED66E9A
:104B6000F29401010101F6AF02D0F28A01D0F29A6B
:104B7000D58E120000010001B8959EA403D000015B
:104B80000001B885BECF19F0BFCF1AF019C017F0D9
:104B90001AC018F012000AEC22F0DAEC21F0B4ECA2
:104BA00020F000010001BF51D8B412000001000143
:104BB000BF07120000010001BD51D8B403D010ECB2
:104BC00025F0120000010001BF67120010EC25F073
:104BD00012000101F66F010E416E0101F651010153
:104BE000F66F040E00010001BE6F0101F6511200C4
:104BF0006FCFF7F1A49E6C9EF6C16FFF6CAE02D032
:104C0000FF0E1200A4AEFED7000E1200C9CFF7F1BE
:104C10009E96C69EF6C1C9FFC6AE02D0FF0E120018
:104C20009EA6FED7000E1200F6C1F7F17C0E010120
:104C3000F717C250830B0101F711C26EC282120036
:104C400017C018F07C0E1816C250830B1810C26ED5
:104C5000C2821200F6C1F8F1F7C1F9F1F9C1CFFF34
:104C6000F8C1CEFF1200F6C1F8F1F7C1F9F1F9C1B0
:104C7000B3FFF8C1B2FF1200F6C1F8F1F7C1F9F1C4
:104C8000F9C1D7FFF8C1D6FF120000010001BD51E4
:104C9000D8B4120010EC25F01200C450010101013B
:104CA000F76FC3500101F66F12006EEC26F0E7ECCF
:104CB0001AF02CEC1CF0FDD749EC21F054EC1FF05D
:104CC000A7EC24F01200F28CF28ED08EF28CF28ED1
:104CD0001200F4EC23F063EC26F0120094C0F6F11D
:104CE00042EC1EF01200C450186EC350176E120032
:104CF0000000A0410000803FC230010B1200C290B2
:104D00009D9C1200C230010B12001200FFFFFFFF3A
:104D1000FFFFFFFFFFFFFFFFFFFFFFFFFFFFFFFFA3
:104D2000FFFFFFFFFFFFFFFFFFFFFFFFFFFFFFFF93
:104D3000FFFFFFFFFFFFFFFFFFFFFFFFFFFFFFFF83
:020000040020DA
:080000000D07050400000000DB
:020000040030CA
:0A000000FF281E3CFFBD81FF00C079
:00000001FF
